:020000040800F2
:10000000F0910120D5020008358C000855840008C5
:10001000318C00086D1800085DB400080000000075
:10002000000000000000000000000000418C0008FB
:100030007D27000800000000398C0008EDA00008B2
:10004000EF020008EF020008EF020008EF020008CC
:10005000EF0200083D8C0008EF020008EF020008E4
:10006000EF020008EF020008EF020008EF020008AC
:10007000EF020008EF020008EF020008492700081D
:1000800055270008EF020008EF020008EF02000801
:10009000EF020008EF020008EF020008EF0200087C
:1000A000EF020008ADA10008EF020008EF0200080F
:1000B000EF020008EF020008EF020008EF0200085C
:1000C000EF020008EF020008EF020008EF0200084C
:1000D000EF02000851B40008EF020008EF02000828
:1000E000EF020008EF020008EF020008EF0200082C
:1000F000EF020008EF020008EF020008EF0200081C
:10010000EF020008EF020008B9A10008EF020008A2
:1001100009A3000815A30008EF020008EF02000879
:1001200061270008EF020008EF020008EF02000854
:10013000EF020008EF020008EF020008EF020008DB
:10014000EF020008EF020008EF020008EF020008CB
:100150006D270008EF020008EF020008EF02000818
:10016000EF020008EF020008EF020008EF020008AB
:10017000EF020008EF020008EF0200080000000094
:10018000EF020008EF02000800F002F800F092F819
:100190000AA090E8000C82448344AAF10107DA45E2
:1001A00001D100F087F8AFF2090EBAE80F0013F0A2
:1001B000010F18BFFB1A43F001031847CCE40000FD
:1001C0000CE50000103A24BF78C878C1FAD852076D
:1001D00024BF30C830C144BF04680C6070470000C1
:1001E0000023002400250026103A28BF78C1FBD840
:1001F000520728BF30C148BF0B6070476E2900F01E
:100200006185702900F0AF8266290EF0168065299D
:100210000EF0138067290EF0108061290EF00F8018
:1002200003681B0A28BF41F08001692900F08A8118
:10023000642900F08781752900F084816F2900F01E
:100240003D82782900F07B82E92900F09B85E42932
:1002500000F09885F52900F09585EF2900F03A82A5
:10026000F82900F07A820368DB0928BF41F0800199
:10027000632900F06585732900F06A85E32900F0A1
:100280007585F32900F07A85002070471FB50DF0C1
:10029000C2FF00F00FFE0400002000210DF094FBCF
:1002A000401C6060002000210DF0A4FBE0601FBD39
:1002B00010B510BD01F0D4F91146FFF7E7FF0BF0C0
:1002C000E9FC01F0A5FA03B4FFF7F2FF03BC01F06B
:1002D000A9FA00000948804709480047FEE7FEE701
:1002E000FEE7FEE7FEE7FEE7FEE7FEE7FEE7FEE7E6
:1002F00004480549054A064B7047000099A10008CB
:1003000089010008E8CF0120F0910120E8D1012007
:10031000F08D012053EA020C00F069802DE9F04BCA
:100320004FF00006002B1FBFB3FA83F503FA05F464
:1003300024FA05F65E4012BF1643B2FA82F502FABD
:1003400005F4C5F120051EBF22FA05FC44EA0C04A1
:10035000203556EA044C4FEA144418BF641C4FF091
:1003600000084FF00009904271EB030C39D30029CB
:1003700019BFB1FA81F701FA07F6B0FA80F700FA6F
:1003800007F6C7F120071EBF20FA07FC46EA0C0655
:100390002037B6FBF4FCA7EB0507103F07F01F0B57
:1003A000CBF120062CFA06F60CFA0BFB44BFB34641
:1003B0000026202FA4BF5E464FF0000B5BEA060C20
:1003C00008BF4FF0010B19EB0B0948EB0608ABFB1C
:1003D000027C06FB02CC0BFB03CCC01B71EB0C01B7
:1003E000C1E70B46024641464846BDE8F08B13B5CF
:1003F000084318BF4FF0FF300146AFF30080BDE85F
:100400001C4070477CB51D4616460C00009007D076
:100410004142A14202D32044401E01E04FF0FF3090
:10042000064B7B442A4669460190304600F063FC47
:10043000002C02D0009A002111707CBDF70800004A
:100440000FB41CB50C0007AA009007D04142A1428E
:1004500002D32044401E01E04FF0FF30074B7B44A5
:1004600069460190069800F046FC0021002C01D05E
:10047000009A11701CBC5DF814FB0000BB08000062
:1004800070B5044685690068C10601D5302600E0D4
:100490002026C00707D070BDD4E90121304690471F
:1004A000206A401C20626D1EF6D570BD70B50446F2
:1004B00085690078C00707D170BDD4E901212020EB
:1004C0009047206A401C20626D1EF6D570BD0968F9
:1004D0004A0501D540B27047C905FCD500B2704746
:1004E00009684A0501D5C0B27047C905FCD580B27C
:1004F000704770B50C460546012A05D0287880065D
:1005000000D5EA69002302E0012305E05B1C934269
:1005100002D2E05C0028F9D1A869E618C01AA861E7
:10052000286A184428622846FFF7AAFF04E0D5E9A4
:10053000012114F8010B9047B442F8D32846FFF785
:10054000B5FF70BD2DE9F0410646002410687529FD
:10055000314616A510D0FFF7BAFF002802DA404254
:1005600013A507E031688A0701D512A502E0490703
:1005700004D511A5012401E0FFF7B2FF00210A22F2
:1005800006F1240709E0B0FBF2FCB0FBF2F302FB3A
:100590001C00303078541846491C0028F3D12346FB
:1005A0002A463046BDE8F04100F033BB00000000B1
:1005B0002D0000002B000000200000002DE9FF5F4F
:1005C00015468A460446DFF8AC80F8440027D8E98F
:1005D00000103E46CDE9001010E03AF816106A46C9
:1005E00002A800F00DFC411C07D02178890603D534
:1005F000E269391891420DD80744761C20788006AC
:1006000002D5E069B84205DDAE42E6DB3AF81600F5
:100610000028E2D1A069C01BA0612046FFF730FF8F
:10062000D8E90010CDE90010002017E03AF81810C2
:100630006A4602A800F0E4FBB0F1FF3F81460BD010
:1006400000250DF1080B05E0D4E901211BF8050098
:1006500090476D1C4D45F7D308F10100B04280462C
:10066000E4DB206A384420622046FFF71FFFBDE824
:10067000FF9F000076DC000030B4002100F124046C
:1006800008E002F00705D208303542EA4372DB0881
:100690006554491C52EA0305F3D10468002310A2F3
:1006A000250708D504F020040C4304D0C4690123B5
:1006B0000CA2641EC46130BC00F0ABBA10B5044695
:1006C00021461068FFF70CFF02462046BDE81040A7
:1006D0000023D1E7D21D22F00701D1E90023CBE7A7
:1006E0000000000030000000F0B40D46018809054C
:1006F00002D5214C7C4402E01F4C7C440E34002186
:1007000000F1240608E002F00F071209E75D42EA53
:1007100003721B097754491C52EA0307F3D102788C
:100720000023120704D5702D06D009B1022311341D
:100730002246F0BC00F06DBA01231034F8E770B522
:1007400004460D4621461068FFF7CAFE02462946B8
:100750002046BDE870400023C6E7D21D22F0070303
:10076000D3E90023C0E70368126843F02003036065
:100770000823C3610023B7E754DB00002DE9F05FD5
:10078000894604464FF0000ADFF874B1FB44C0F814
:1007900020A02046E1688847002874D0252806D08C
:1007A000D4E901219047206A401C2062F1E700262D
:1007B0005F462046E16888472028054607DB312D43
:1007C00005D2781910F8200C08B10643F1E7B007FC
:1007D00001D526F00406C4F81CA00027C4F818A010
:1007E0002A2D09D028460DF0E7F838B304EB870826
:1007F000303DC8F8185019E059F8041B204604EBA6
:1008000087029161E1688847012F054618D1E069A8
:10081000002820DA26F020061DE0D8F8180000EBAA
:10082000800005EB40003038C8F818002046E16829
:10083000884705460DF0C0F80028EED1012F0AD0F8
:100840002E2D08D12046E16888477F1C0546022FDF
:1008500046F02006C4DBA069002803DA404246F0D7
:100860000106A061F00701D026F010066C2D0BD018
:10087000682D09D04C2D39D06A2D35D0742D35D046
:100880007A2D33D016E038E0E1682F4620468847BD
:10089000B842054609D16C2F26D04FF48060E1683C
:1008A000064320468847054604E06C2F1AD04FF4D3
:1008B000807006430DB3A5F14100192802D82035F8
:1008C00046F400664A462946204626604E46FFF713
:1008D00095FC80B101280BD0F61D26F0070000F131
:1008E000080956E74020E4E78020D8E70020D6E753
:1008F00006F104094DE7284652E7206ABDE8F09F5B
:10090000E4DA000040EA010310B59B070FD1042A86
:100910000DD310C808C9121F9C42F8D020BA19BACA
:10092000884201D9012010BD4FF0FF3010BD1AB12F
:10093000D30703D0521C07E0002010BD10F8013B84
:1009400011F8014B1B1B07D110F8013B11F8014BAB
:100950001B1B01D1921EF1D1184610BD40EA0103C4
:10096000024630B59B0710D14FF0013400E008C2B9
:1009700008C91D1B9D4315EAC41FF8D013F0FF01E1
:1009800002F8011B0DD01B0AF8E711F8013B002B00
:1009900002F8013B05D011F8013B002B02F8013BA6
:1009A000F3D130BD10B5431C02E010F8011B71B14A
:1009B0008107FAD14FF0013202C88C1A8C4314EA35
:1009C000C211F9D0C01A0A0603D0C01E10BDC01A49
:1009D00010BD0A0401D0801E10BD0902FCD0401ECB
:1009E00010BD40EA010370B59B072ED14FF00136D0
:1009F000042A2AD308C810C99D1B9D43121F15EA5B
:100A0000C61517D0D8B2E1B2401A50EA056110D12C
:100A100098B2A1B2401A50EA05410AD123F07F40B2
:100A200024F07F41401A50EA052102D1180EA0EBB4
:100A3000146070BDA342DBD018BA21BA884201D934
:100A4000012070BD4FF0FF3070BD0AB9002070BDAD
:100A500010F8013B11F8014B63B1A3420AD1521EB9
:100A600008D010F8013B11F8014B1BB1A34201D192
:100A7000521EEDD1181B70BD032A40F2308010F0D9
:100A8000030C00F0158011F8013BBCF1020F624429
:100A900098BF11F801CB00F8013B38BF11F8013BBA
:100AA000A2F1040298BF00F801CB38BF00F8013B67
:100AB00011F0030300F0C881083AC0F0088051F833
:100AC000043B083A51F804CBA0E80810F5E7121DE2
:100AD0005CBF51F8043B40F8043BAFF30080D20701
:100AE00024BF11F8013B11F801CB48BF11F8012BCD
:100AF00024BF00F8013B00F801CB48BF00F8012BF0
:100B0000704702F0FF0343EA032242EA024200F088
:100B100002B84FF0000200B51346944696462039BD
:100B200022BFA0E80C50A0E80C50B1F12001BFF4A6
:100B3000F7AF090728BFA0E80C5048BF0CC05DF80C
:100B400004EB890028BF40F8042B08BF704748BF5A
:100B500020F8022B11F0804F18BF00F8012B7047CE
:100B600030B44FF0013C50F8042B51F8043BCCFA60
:100B700052F4D51A20D1FCB950F8042B51F8043B9B
:100B8000CCFA52F4D51A17D1B4B950F8042B51F855
:100B9000043BCCFA52F4D51A0ED16CB950F8042BA0
:100BA00051F8043BCCFA52F4D51A05D1002CDAD016
:100BB00030BC4FF00000704729BAB1FA81F111F052
:100BC0001801D1F120008440F2D1CA40CB4012F08C
:100BD000FF0213F0FF0330BCD01A70477047704714
:100BE0007047000010B500F065F9001D10BD00BF92
:100BF000D9CD00000048704708C0012010B5FFF7AC
:100C0000F9FF006810BD10B50446FFF7F3FF04605C
:100C100010BD2DE9F0470D4699469246044600F175
:100C200024080168880604D5E06921F010012160DC
:100C300000E00120A84201DD471B00E00027A16978
:100C40007A1902EB0900081AA0612078C00602D4C4
:100C50002046FFF715FC002608E0D4E901211AF828
:100C600006009047206A401C761C20624E45F4DB4B
:100C70002078C0060AD52046FFF702FC06E0D4E93A
:100C8000012130209047206A401C2062381EA7F1C5
:100C90000107F4DC07E0D4E9012118F805009047CA
:100CA000206A401C2062281EA5F10105F3DC2046C5
:100CB000FFF7FCFB2078000602D50220BDE8F08794
:100CC0000120FBE711680268006A530501D508702E
:100CD0000AE0D30501D5088006E0130603D5C21744
:100CE000C1E9000200E008600120704701694A1C68
:100CF00002610878704700B58FB0CDE9013100215D
:100D0000059105497944CDE9031011466846FFF77E
:100D100035FD0FB000BD0000E5FFFFFFD1E9002366
:100D20009A4202D2531C0B601070704710B5436991
:100D300013B1AFF3008001E0FFF7DBFB012010BD32
:100D4000127800F124010A7000224A700122EDE7B6
:100D500011684FF0FF32E9E710B5436913B1AFF303
:100D6000008001E0FFF72AFC012010BD128800F18D
:100D7000240182840022C2840122EDE711684FF031
:100D8000FF32E9E72DE9F0418046D21D22F007024B
:100D90000025D2E90002F52915A614D0011E72F132
:100DA000000106DA0023D0EB030063EB020211A678
:100DB00008E0D8F800108B0701D50FA602E049071C
:100DC00001D50EA601251146002408F1240704E0F0
:100DD00000F074F830323A55641C50EA0102F7D141
:100DE0002B46324621464046BDE8F041FFF711BF91
:100DF000000000002D0000002B000000200000007B
:100E00002DE9F04116460C460546FFF7EBFE036858
:100E100093F80101012807D0FF2C12D8185D80B18A
:100E200001202C70BDE8F081D3F80701324621463D
:100E300003F20713C7182846BC46BDE8F04100235B
:100E400060474FF0FF30EDE710B5203AC0F00B805F
:100E5000B1E81850A0E81850B1E81850A0E81850B0
:100E6000203ABFF4F5AF5FEA027C24BFB1E8185026
:100E7000A0E8185044BF18C918C0BDE810405FEA88
:100E8000827C24BF51F8043B40F8043B08BF704704
:100E9000D20728BF31F8023B48BF11F8012B28BF09
:100EA00020F8023B48BF00F8012B7047004870470C
:100EB00008C001200048704728C0012030B5B0F1BB
:100EC0000A0271F100034FEA900E4EEA817EB0EB08
:100ED0000E0061EB91014FEA101E4EEA017E10EB0D
:100EE0000E0041EB11114FEA102E4EEA016E10EB8D
:100EF0000E0041EB11214FEA104E4EEA014E10EB6D
:100F00000E0041EB1141401841F100014FEAD000C1
:100F100040EA41704FEAD1014FEA810444EA9074FB
:100F200010EB800544EB01046D1944EB0404521BE3
:100F3000A3414FF0000348BF0A3200D530BD401C2A
:100F400041F1000130BD2DE9FF4F0C461E464FF028
:100F5000FF378BB0D2E90001DDF860800A908A4645
:100F6000C1F30A5505B93D46002108464FF000007F
:100F7000BAF1000F00F4400005DA00EB80004FF4F6
:100F8000400101EA50004FEA9059B9F1010F00DD2C
:100F9000B9460A9850EA4A000ED044F61050A5F21D
:100FA000FF3545432F14B8F1000F1ED07542291E9E
:100FB0001EDDC9F100021CE0B8F1010F4FF0000086
:100FC00001D0302103E0F24305E02154401CB0423F
:100FD000FBDB30460022002121540B99C1F8088028
:100FE000C1E900200FB0BDE8F08FBD1B6D1CDEE72E
:100FF0004A4600DA694206A800F098FB06AB93E87F
:10100000070003AB83E8070050460A990BF0CAFDBE
:101010008DE80700A0F500501F3800900398002DC0
:101020000ADD42F21F014A460844002303A9039047
:1010300068460CF033F809E0A0F500504A461F3826
:10104000002303A9039068460CF03DF88DE80700E3
:101050000004000C03D04FF0FF30410800E01046C0
:10106000B8F1000F03D00022009215461EE0751E55
:1010700005D4FFF723FF303262556D1EF9D5B34614
:101080000122084302D000227F1C04E0207830288F
:1010900001D100227F1E002A099784D01DE0112D66
:1010A00007DAFFF70BFF303262556D1C50EA010280
:1010B000F5D1084302D00098C8B10EE00021681EA7
:1010C00005E0235C625C63542254401E491C81424B
:1010D000F7DBAB46A81B401E0990002004F80B006C
:1010E0000B98099AC0F80880C0E9002B7AE711260E
:1010F0004FF0000857E72DE9F04F88460446D21D0F
:1011000022F0070191B0D1E90001CDE90A010CF00C
:1011100011F902460B98C00F01D02D2007E020687E
:10112000810701D52B2002E0202101EAC000032A1B
:10113000099001D0072A05DB03464146204600F00E
:10114000B5FA0BE12078800601D5E06900E00620C1
:10115000B8F1650F814606D0B8F1660F18D0B8F126
:10116000670F70D131E00020B9F1110F009001DB61
:10117000112301E009F101030AAA01A90CA8FFF754
:10118000E2FEDDE90C70002609F10105834647E027
:1011900001204B4600904FF000470AAA01A90CA875
:1011A000FFF7D1FEDDE90DB00C995D46002610B9C0
:1011B00009F101000D18B9EB050003D4C0F1FF36A9
:1011C00009F10105A5EB09002BE0B9F1010F01DAE6
:1011D0004FF001090020B9F1110F0090484601DDE0
:1011E000112300E003460AAA01A90CA8FFF7ABFEF1
:1011F000DDE90C704D4600268346207800070AD4AE
:10120000AB4500DA5D4601A8012D04DD411911F856
:10121000011C302907D04F4502DA17F1040F04DA18
:10122000012082460FE06D1EEEE7002F02DCED1B71
:101230003E4403E0781CA84200DD7D1CB81B00F191
:10124000010A4FF000472078000703D4AA4501DBCC
:101250004FF0FF3A0021B7F1004F0DF143088DF830
:10126000431024D002202B23002F01DA7F422D23AC
:101270000A21021EA0F1010000DC5FB197FBF1FC26
:1012800097FBF1F201FB1C7C17460CF1300C08F8BF
:1012900001CDEEE7A8F1010003702188090501D511
:1012A000452100E06521A0F1010800F8011C099822
:1012B0000FA9A1EB0807FF1D00B10120411901EBA7
:1012C000EA70A1693844081A401EA0612078C0065F
:1012D00002D42046FFF7D4F8099828B1D4E90121B7
:1012E0009047206A401C20622078C00622D5204604
:1012F000FFF7C6F81EE0002E04DBB34502DD01A8AF
:10130000805D00E03020D4E901219047206A401C34
:101310002062761CAAF101005FEA000A0AD1FFF7F9
:10132000C9FDC0680168405CD4E901219047206A8A
:10133000401C2062281EA5F10105DCDC07E0D4E991
:10134000012118F8010B9047206A401C2062381ECA
:10135000A7F10107F3DC2046FFF7A8F8032011B03E
:1013600041E600002DE9F04F04460D46D21D22F063
:10137000070089B0D0E90097484639460BF0DAFFFC
:101380000246F80F01D02D2307E02068810701D520
:101390002B2302E0202101EAC0038DF820300BB19D
:1013A000012000E00020032A824601D0072A04DB46
:1013B0002946204600F07AF93FE12078800601D4E2
:1013C0000D2500E0E569C7F30A560D2D49DA002125
:1013D0004FEA175B08464FF00000002F00F4400072
:1013E00007DA00EB80004FF4400100EBD07001EA17
:1013F00060008115012901DD4FF0FF3100224FEA25
:10140000850CBCF1180F06D31346ACF118004FF051
:101410008052C24003E04FF4801323FA0CF30CF126
:101420000C0CBCF1200F04D3ACF1200C09FA0CF029
:1014300001E007FA0CF000294FF0004801DD18B96F
:101440000FE00ED140450CD319EB02095F4121B9E1
:10145000404502D19F4329EA0209BBEB175F00D048
:10146000761C2088000502D57B48784402E07A4843
:101470007844193808AA302302F80A30037C0AF1AC
:101480000101002E0AF1020A53546A4602DC4FF0B1
:10149000300101E04FF031014FF001088DF80010EC
:1014A00002D0A6F2FF3603E059EA470100D06B4EA6
:1014B000002D02DC2178090704D54FF002082E2107
:1014C0008DF80110C44600210BE0C7F303433F0130
:1014D000C35C491C6D1E02F80830052908F101089B
:1014E00001DA002DF1DC00210CE000EB1973491C3E
:1014F0001B786D1E082902F808304FEA091908F117
:10150000010801DA002DF0DC21688B0602D516E017
:10151000A8F10108E04505DD02EB080313F8013CE2
:10152000302BF5D0B8F1000F09DD02EB080313F8FA
:10153000013C2E2B03D1090701D4A8F10108002D8D
:1015400005DD3E2102F808106D1E08F10108407CFF
:10155000002E02F8080008F1010804DA2D20764276
:1015600002F8080002E02B2002F808000A214FF4DC
:101570007A70864208F101080BDB96FBF0F33033FA
:1015800002F8083096FBF0F308F1010800FB13663F
:1015900001E0642E0CDB642096FBF0F3303302F89C
:1015A000083096FBF0F308F1010800FB136601E038
:1015B0000A2E06DB96FBF1F0303002F8080008F145
:1015C000010896FBF1F001FB1060303002F80800D2
:1015D000A16908F1010808EB050202EB0A00081AEC
:1015E000A0612078C00602D42046FEF749FF216A98
:1015F00008AE01EB0A00206204E0D4E9012116F8EC
:10160000010B9047BAF1010AF7D22078C00602D543
:101610002046FEF735FF6E4609E016F8010B3E281E
:101620000FD0D4E901219047206A401C2062B8F114
:101630000108F2D22046FEF739FF09B00320BDE8C9
:10164000F08F206A2844206203E0D4E90121302091
:1016500090476D1EEBD3F8E78DCE000002FCFFFF34
:101660007546FFF723FCAE4605006946534620F059
:101670000700854618B020B5FEF73AFEBDE82040C9
:101680004FF000064FF000074FF000084FF0000B3E
:10169000AC46ACE8C009ACE8C009ACE8C009ACE8AD
:1016A000C00921F007018D46704700002DE9F04187
:1016B0001F46044603260168072A01F4006004DB84
:1016C00008B116A505E016A503E008B115A500E0D0
:1016D00015A521F010002060A069C01EA0610FB107
:1016E000401EA0612046FEF7CBFE4FB1D4E9012198
:1016F00038469047206A401C2062C01C206206E0E9
:10170000206AFAE7D4E9012115F8010B9047761E0B
:10171000F8D22046FEF7CAFEBDE8F0814E414E00E9
:101720006E616E00494E4600696E66002DE9F04715
:10173000814616468AB0354878440DC88DE80D00BC
:1017400032487844801C03AC0DC884E80D0041F693
:101750009B300844372190FBF1F290FBF1F5A5F1A5
:10176000800501FB12041B3C02D56442012000E00D
:101770000020DFF898A080460027FA44AAF1BE0AAC
:101780000EE0E0070AD03246684607EB4701012326
:101790000AEB81010BF097FC8DE8070064107F1CB9
:1017A000002CEED1194F7F44AE3F19E0E80715D069
:1017B00007EB04100DF1180A90E80E008AE80E00FD
:1017C000C068F04201D1981908903246012306A959
:1017D00003A80BF078FC03AB83E807006D10641CD2
:1017E000002DE3D14FF0010332466946B8F1000FF6
:1017F00003A802D00BF052FC01E00BF064FCC9E935
:101800000001C9F808200AB0BDE8F08750CC0000FC
:1018100010B50446AFF300802046BDE81040FEF747
:1018200052BD000001491820ABBEFEE726000200B1
:10183000704700004CF2BC10C2F201000178002990
:1018400008BF704746F20C41C4F2020151F8082C5F
:10185000120506D54FF400620A60002202700122D0
:1018600042704FF4E860086070470000FEE7000037
:1018700010B504F0EBFC4CF21C14C2F20104E06061
:10188000A0780D2801D00A280AD12078E8B1607824
:10189000D8B920780021204401740120607014E040
:1018A000617891B92178262906D821784A1C2144EB
:1018B0002270087409E000BF00202070A06820B1E9
:1018C00005A11622642306F065FCA068A11C012274
:1018D000BDE8104006F006BC45525220636F6D6DA6
:1018E000616E6420746F6F206C6F6E670D0A00006C
:1018F0004CF21C11C2F201018868002808BF704731
:101900000231012206F0EEBB4CF2B400C2F201003B
:1019100000218180C18001810180017480F828103C
:10192000704700002DE9F04192B04FF0010678B108
:101930004CF2B408C2F20108D8F80C4044B1074692
:10194000FFF730F80546423810F1410F04D2012666
:10195000304612B0BDE8F08101AE304639462A4625
:10196000FFF78AF8022D08D3A81910F8021C0D29D8
:1019700003D110F8010C0A2803D040F60D20705353
:10198000023598F800000B2804D90126304612B021
:10199000BDE8F0813A7840F2407C0026002AC2F28D
:1019A000000C61D000EB40030CF83320797800295B
:1019B0005CD00CEBC3025170B978002958D09170FB
:1019C000F978002956D0D1703979002954D0117195
:1019D0007979002952D05171B979002950D091718B
:1019E000F97900294ED0D171397A00294CD0117281
:1019F000797A00294AD05172B97A002948D0917277
:101A0000F97A002946D0D172397B002944D011736C
:101A1000797B002942D05173B97B002940D0917362
:101A2000F97B00293ED0D173397C00293CD0117458
:101A3000797C00293AD05174B97C002938D091744E
:101A4000F97C002936D0D174397D002934D0117544
:101A5000797D002932D05175B97D00291ABF917561
:101A6000172216222BE000BF002228E0012226E0E8
:101A7000022224E0032222E0042220E005221EE0CC
:101A800006221CE007221AE0082218E0092216E0CC
:101A90000A2214E00B2212E00C2210E00D220EE0CC
:101AA0000E220CE00F220AE0102208E0112206E0CC
:101AB000122204E0132202E0142200E0152200EBBF
:101AC00040010CEBC10101308E5488F80000B8F8D9
:101AD0000600AAB20130A8F8060001A92046C823D2
:101AE00006F058FB00283FF433AFB8F80600012693
:101AF0000138A8F8060098F80000013888F80000BE
:101B0000304612B0BDE8F08183B010B581B00DF160
:101B10000C0C40F25C048CE80E00C2F20004617907
:101B200009290DD802464CF2A830C2F2010003ABDD
:101B300000EB411020210093FEF764FC1F2805D91B
:101B4000002001B0BDE8104003B07047607901305B
:101B50006071012001B0BDE8104003B07047000083
:101B60002DE9F04385B030B10FF254510422044600
:101B7000FEF737FF20B10024204605B0BDE8F08312
:101B80000FF244512046FEF7EBFF40F25C07C2F231
:101B90000007797850B1A9B14EF29C504EF29351A2
:101BA000C0F60000C0F6000182E200BF002943D069
:101BB0004EF29C504EF23451C0F60000C0F60001C7
:101BC00076E200BF0FF20C512046FEF7C9FF002855
:101BD00060D00FF20C5120460722FEF702FF0028CA
:101BE0006ED00FF204512046FEF7BAFF002800F035
:101BF000C5800FF2005120460A22FEF7F2FE0028AF
:101C000000F018810FF2F84120460922FEF7E9FEA4
:101C1000002800F069810FF2F44120460A22FEF705
:101C2000E0FE002800F0C4814EF29C50C0F6000097
:101C30000FF2E4413CE200BF387800285AD0411E40
:101C4000032900F003025FD200210020002A00F0E7
:101C5000DE8029B10A2803D86B462C261E54013099
:101C60000A2805D87B181B7D6E463033335401306B
:101C7000012A00F0CC800A2800F2AE806B462C26A8
:101C80001E5401300A2840F2AA80022A40F0B08097
:101C9000BDE000BF0020B880F8704EF27650C0F66C
:101CA0000000FFF731FF002800F0F281032001213E
:101CB0000022012400F0F0FA204605B0BDE8F083D0
:101CC000E01D6946012200F055FA002800F0A880C6
:101CD0000098002800F0A480042800F2A18040F2BF
:101CE0000801C2F2000108700124204605B0BDE8D9
:101CF000F08300BF4EF29C504EF28D51C0F60000B2
:101D0000C0F60001D4E100BF00F0FC0300216E46E4
:101D10002C25002003E000BF04318B4296D019B17E
:101D20000A289CBF355401300A2804D87C18247D29
:101D30003034345401300A289CBF355401300A280D
:101D400004D87C18647D3034345401300A289CBF98
:101D5000355401300A2804D87C18A47D303434541A
:101D600001300A289CBF355401300A28D4D87C1889
:101D7000E47D303434540130CEE700BF40F2080433
:101D80000020C2F20004B8802178F8704EF2AC5006
:101D9000C0F60000FFF7B8FE002800F07981207837
:101DA0003844C079012819BF4EF21150C0F6000026
:101DB0004EF22750C0F60000FFF7A6FE002800F004
:101DC00067812178C819C279022000F065FA0124E0
:101DD000204605B0BDE8F0830A283FF656AF4B1CFD
:101DE0003B441B7D6E46303333540130022A0ED003
:101DF0000A2803D86A462C23135401300A2806D82F
:101E000002313944097D6A46303111540130694646
:101E100000220A544EF29C50C0F6000048E100BF78
:101E20004EF29C504EF24851C0F60000C0F6000140
:101E30003EE100BF04F10A006946022200F09AF96F
:101E4000002847D0009C43F6FF50CFF214402118E1
:101E5000013081423ED3019DB5F5806F3AD200201A
:101E6000B880F8704EF27F50C0F60000FFF74CFECD
:101E7000002800F00D8140F20806C2F20006317819
:101E80004EF2AC50C0F60000FFF73EFE002800F016
:101E9000FF804EF2BA50C0F600002946FFF734FE2C
:101EA000002800F0F5804EF20850C0F60000FFF761
:101EB0002BFE002800F0EC804EF2DC50C0F6000053
:101EC0002146FFF721FE002800F0E2803178012052
:101ED000EEE600BF4EF29C504EF26151C0F600009B
:101EE000C0F60001E4E000BF04F1090069460322E6
:101EF00000F040F9002851D0009D43F6FF50CFF28A
:101F0000144029180130814248D3019C002C45D04F
:101F10004CF20020C0F6EB3084423FD8029EB6F56A
:101F2000806F3BD20020B880F8704EF21A50C0F695
:101F30000000FFF7E9FD002800F0AA8040F2080742
:101F4000C2F2000739784EF2AC50C0F60000FFF73D
:101F5000DBFD002800F09C804EF2BA50C0F6000075
:101F60003146FFF7D1FD002800F092804EF2C450B8
:101F7000C0F600002946FFF7C7FD002800F0888062
:101F80004EF2D050C0F600002146FFF7BDFD0028FC
:101F90007ED03978012002228BE600BF4EF29C50A1
:101FA0004EF24F51C0F60000C0F6000180E000BFC5
:101FB00004F10A006946052200F0DCF800286FD021
:101FC000009C43F6FF50CFF21440211801308142AB
:101FD00066D3019E002E63D04CF20020C0F6EB3099
:101FE00086425DD8DDF80890B9F1000F58D08145E0
:101FF00056D8039D002D53D042F20F7085424FD822
:10200000DDF81080B8F5806F4AD20020B880F870F3
:1020100044A0FFF779FDD8B340F20807C2F20007E9
:1020200039784EF2AC50C0F60000FFF76DFD78B382
:1020300040A02146FFF768FD50B342A03146FFF7AC
:1020400063FD28B343A04146FFF75EFD00B345A002
:102050004146FFF759FDD8B14EF2A150C0F600003D
:102060002946FFF751FD98B14EF2E750C0F6000047
:102070004946FFF749FD58B14EF23C50C0F600000A
:10208000FFF742FD20B139780120012211E600BF9F
:1020900000F0EAF80124204605B0BDE8F08300BF57
:1020A0004EF29C504EF25751C0F60000C0F60001AF
:1020B00007F04AFE0124204605B0BDE8F08300BFCA
:1020C0004444533A000000004444533A53544154AA
:1020D000555300004444533A5245534554000000C0
:1020E0004444533A43483A004444533A53544F50BB
:1020F000000000004444533A504F494E543A000007
:102100004444533A46534B323A0000004444533A55
:1021100053574545503A00004444535F434D445F94
:102120004552520041542B4D4F44452B5357454582
:102130005000000041542B53544152544652452BF9
:10214000256C750041542B454E444652452B256C59
:102150007500000041542B5354415254414D502BB3
:102160002575000041542B454E44414D502B25759B
:102170000000000070B582B349F6991E4FF0000CC4
:10218000C1F6991E0478A4F13003092B2AD8013036
:1021900000230025754525D805EB850504EB45058D
:1021A00010F8014B303DA4F130060A2E03F1010373
:1021B000F0D31B0616D041F82C500CF1010C9445BD
:1021C000A0F1010306D21B782C2B0BD19445D9D159
:1021D00003E000BF18469445D4D10078B0FA80F0EF
:1021E000400970BD002070BDB0B5FFF78DFB40F217
:1021F0005C04C2F200040025E57004F027F82179A0
:1022000062792061914208D24CF2A830C2F20100FA
:1022100000EB4110FFF786FB90B1FFF775FB4EF224
:102220009C504EF26B51A580E570C0F60000C0F6E0
:102230000001A4F80150BDE8B04007F085BD00BF23
:10224000A07803280FD12079002818BFB0BDFFF770
:102250005BFB2079013020710120E07003F0F6FF74
:1022600000F5FA70E060B0BD80B5FFF74DFB40F2BD
:102270005C02C2F2000200234EF29C504EF26B51FF
:102280009380D370C0F60000C0F60001A2F80130C0
:10229000BDE8804007F058BD10B540F25C04C2F2C2
:1022A00000046379B3B1A070E171A27103F0CEFFB5
:1022B0002061012060704EF29C504EF23451C0F605
:1022C0000000C0F6000107F03FFDBDE81040FFF739
:1022D0008BBF00BFFFF718FB00224EF29C504EF25E
:1022E0006B51A280E270C0F60000C0F60001A4F8B5
:1022F0000120BDE8104007F027BD0000B0B54CF24A
:10230000B405C2F20105A978E8780A2910D1C8B14C
:10231000411991F847200D2A18D1013855FA80F15A
:10232000002210F0FF0F81F8482012D1FEE100BF1B
:102330001E2800F2FB81421C2844EA7080F84810F5
:10234000F6E100BF002085F84800EFE1002081F8A9
:10235000480005F148040FF2EC3120460322FEF755
:10236000D1FA002800F084804EF20251C0F600013C
:1023700020460522FEF7C6FA002840F0C8812889C9
:102380000130288129786878884280F0AA8040F25C
:10239000407300EB4001C2F2000313F8312000202B
:1023A000002A71D003EBC1014B782A74002B6DD049
:1023B0008A786B74002A6BD0CB78AA74002B69D012
:1023C0000A79EB74002A67D04B792A75002B65D007
:1023D0008A796B75002A63D0CB79AA75002B61D0FE
:1023E0000A7AEB75002A5FD04B7A2A76002B5DD0F3
:1023F0008A7A6B76002A5BD0CB7AAA76002B59D0EA
:102400000A7BEB76002A57D04B7B2A77002B55D0DE
:102410008A7B6B77002A53D0CB7BAA77002B51D0D5
:102420000A7CEB77002A4FD04B7C85F82020002BCC
:102430004CD08A7C85F82130002A49D0CB7C85F8A5
:102440002220002B46D00A7D85F82330002A43D075
:102450004B7D85F82420002B40D0897D85F82530E0
:1024600000291ABF85F826101721162137E000BF72
:10247000A8880130A880E888002800F05181E88809
:102480000138E8804CE100BF002128E0012126E06E
:10249000022124E0032122E0042120E005211EE0A6
:1024A00006211CE007211AE0082118E0092116E0A6
:1024B0000A2114E00B2112E00C2110E00D210EE0A6
:1024C0000E210CE00F210AE0102108E0112106E0A6
:1024D000122104E0132102E0142100E01521294417
:1024E000087495F848100020002900F0CD8095F878
:1024F000492085F82810002A00F0C88095F84A1075
:1025000085F82920002900F0C38095F84B2085F834
:102510002A10002A00F0BE8095F84C1085F82B2078
:10252000002900F0B98095F84D2085F82C10002A7C
:1025300000F0B48095F84E1085F82D20002900F0A9
:10254000AF8095F84F2085F82E10002A00F0AA8061
:1025500095F8501085F82F20002900F0A58095F8F7
:10256000512085F83010002A00F0A08095F8521014
:1025700085F83120002900F09B8095F8532085F8DC
:102580003210002A00F0968095F8541085F8332018
:10259000002900F0918095F8552085F83410002A24
:1025A00000F08C8095F8561085F83520002900F051
:1025B000878095F8572085F83610002A00F0828031
:1025C00095F8581085F83720002900F07D8095F89F
:1025D000592085F83810002A00F0788095F85A10B4
:1025E00085F83920002900F0738095F85B2085F884
:1025F0003A10002A00F06E8095F85C1085F83B20B8
:10260000002969D095F85D2085F83C10002A65D036
:1026100095F85E1085F83D20002961D095F85F207F
:1026200085F83E10002A5DD095F8601085F83F20AF
:10263000002959D095F8612085F84010002A55D01E
:1026400095F8621085F84120002951D095F8632053
:1026500085F84210002A4DD095F8641085F8432083
:10266000002949D095F8652085F84410002A45D006
:1026700095F8661085F8452000291ABF85F84610A0
:102680001F211E213BE000BF002138E0012136E080
:10269000022134E0032132E0042130E005212EE064
:1026A00006212CE007212AE0082128E0092126E064
:1026B0000A2124E00B2122E00C2120E00D211EE064
:1026C0000E211CE00F211AE0102118E0112116E064
:1026D000122114E0132112E0142110E015210EE064
:1026E00016210CE017210AE0182108E0192106E064
:1026F0001A2104E01B2102E01C2100E01D212944D5
:1027000081F82800E88810B1E8880138E8804EF2A6
:102710000251C0F6000120460522FEF7F3F828B961
:102720002978687888423CBF013068700020E870E2
:10273000E868002808BFB0BDA91C0122BDE8B04070
:1027400005F0D0BC4F4B000040F26850C2F20000D0
:1027500003F0A2BA4CF22820C2F2010003F09CBAA6
:1027600040F20850C2F2000003F096BA80B5FFF7BD
:1027700061F8BDE8804000F007B800007047000035
:1027800072B600BFFEE7000046F20440C4F2020049
:1027900002684CF2541112F4507FC2F2010103D0CE
:1027A00002314FF4746205E0120558BF70470131E1
:1027B0004FF4006282600020C4F20100C26822F47B
:1027C0008072C260026822F001020260012008707B
:1027D0007047000010B528B101680022C4F2010260
:1027E000914201D0012010BD4CF25411C2F20101FE
:1027F000002488600C704C708C70442001210022F1
:1028000003F0AEFD442003F09BFD204610BD000008
:1028100048F6E411C2F20101086070472DE9F04F5B
:10282000A7B0002900F00E810446002800F00A81BC
:1028300048F6E41BC2F2010BDBF80000002800F0B0
:10284000018115460E46069380A118224FF4FA73B3
:1028500005F0A0FCA06844F6D357C1F26207A0FBC4
:102860000712D4E9003192094FF47A78059502FBFA
:1028700018050DF11C0ACDE900127BA250468021FB
:102880000295FDF7DDFDDBF800405046FEF78AF8C3
:1028900082B2204651464FF4FA7305F07BFC306853
:1028A0004DF68369C4F21B39A0FB0912A0FB070196
:1028B0008809A0FB0703900C9A0902FB08F24EF26C
:1028C0005E64F568C2EB91110122C0F600048DE848
:1028D000070050468021224601230395FDF7B0FDF5
:1028E000DBF800505046FEF75DF882B228465146AC
:1028F0004FF4FA7305F04EFC70683569A0FB0912BD
:10290000A0FB07018809A0FB0703900C9A0902FBB2
:1029100008F2C2EB911102228DE807005046802197
:10292000224602230395FDF78BFDDBF8005050464D
:10293000FEF738F882B22846059D51464FF4FA73E7
:1029400005F028FCB068A0FB0912A0FB070188096C
:10295000A0FB0703900C9A0902FB08F27769C2EB0F
:10296000911103228DE8070050468021224603235F
:102970000397FDF765FDDBF800405046FEF712F8BF
:1029800082B2204651464FF4FA7305F003FC4EF232
:102990007D684EF28269C0F60008C0F600091DB3DA
:1029A000DBF800003BA105224FF4FA7305F0F2FBBF
:1029B0006E1EFF2707AC00BF16F8013F4A462046AF
:1029C0008021012F08BF4246FDF73AFDDBF8005099
:1029D0002046FDF7E7FF82B2284621464FF4FA73FE
:1029E00005F0D8FB013FE7D1069C1CB3DBF80000E3
:1029F0002AA109224FF4FA7305F0CCFB661EFF27CB
:102A000007AC00BF16F8013F4A4620468021012F3F
:102A100008BF4246FDF714FDDBF800502046FDF7E5
:102A2000C1FF82B2284621464FF4FA7305F0B2FB8B
:102A3000013FE7D1DBF800001BA10F224FF4FA732E
:102A400005F0A8FB27B0BDE8F08F00BF3D3D3D205D
:102A5000472D5369676E616C204672616D65203D3C
:102A60003D3D0D0A000000005570703D256C75203D
:102A70006D56202055726D733D256C75206D562066
:102A80002066313D256C752E2530336C7520487AD3
:102A90000D0A0000574156453A0000005350454387
:102AA0005452554D3A0000003D3D3D20456E642096
:102AB0003D3D3D0D0A0D0A002DE9F04F81B02DED91
:102AC000108B9EB04CF2541BC2F2010B9BF802001B
:102AD00040B100208BF802008BF800000FF230406C
:102AE00008F0CAFA9BF80100002802F0898544F634
:102AF000D4190020C2F201099FEDF71A9FEDF72AC1
:102B00009FEDF73A9FEDF79A9FEDF7AA8BF801003A
:102B1000A9F110004FF40051B1EE04BA028C92FA00
:102B2000A2F2120D00EE102AB8EE400A39EE400A69
:102B300020EE0B0A20EE0A0AB4EE430AF1EE10FA78
:102B4000B4EE420AB8BFB0EE403AF1EE10FAC8BF98
:102B5000B0EE402A428C20EE000A92FAA2F2120D48
:102B600030EE010A01EE102AB8EE411A39EE411A90
:102B700021EE0B1A21EE0A1AB4EE431AF1EE10FA06
:102B8000B4EE421AB8BFB0EE413AF1EE10FAC8BF47
:102B9000B0EE412A828C21EE011A92FAA2F2120DB5
:102BA00031EE000A01EE102AB8EE411A39EE411A50
:102BB00021EE0B1A21EE0A1AB4EE431AF1EE10FAC6
:102BC000B4EE421AB8BFB0EE413AF1EE10FAC8BF07
:102BD000B0EE412AC28C21EE011A92FAA2F2120D35
:102BE00031EE000A01EE102AB8EE411A39EE411A10
:102BF00021EE0B1A21EE0A1AB4EE431AF1EE10FA86
:102C0000B4EE421AB8BFB0EE413AF1EE10FAC8BFC6
:102C1000B0EE412A028D21EE011A92FAA2F2120DB3
:102C200031EE000A01EE102AB8EE411A39EE411ACF
:102C300021EE0B1A21EE0A1AB4EE431AF1EE10FA45
:102C4000B4EE421AB8BFB0EE413AF1EE10FAC8BF86
:102C5000B0EE412A428D21EE011A92FAA2F2120D33
:102C600031EE000A01EE102AB8EE411A39EE411A8F
:102C700021EE0B1A21EE0A1AB4EE431AF1EE10FA05
:102C8000B4EE421AB8BFB0EE413AF1EE10FAC8BF46
:102C9000B0EE412A828D21EE011A92FAA2F2120DB3
:102CA00031EE000A01EE102AB8EE411A39EE411A4F
:102CB00021EE0B1A21EE0A1AB4EE431AF1EE10FAC5
:102CC000B4EE421AB8BFB0EE413AF1EE10FAC8BF06
:102CD000B0EE412AC28D21EE011A92FAA2F2120D33
:102CE00031EE000A01EE102AB8EE411A39EE411A0F
:102CF00021EE0B1A21EE0A1AB4EE431AF1EE10FA85
:102D0000B4EE421AB8BFB0EE413AF1EE10FAC8BFC5
:102D1000B0EE412A21EE011A31EE001A083900F115
:102D200010007FF4FBAE4FF07E5A0EAA01204FF444
:102D300000518DED053A8DED062A8DED071ACDF87F
:102D400038A009F0B9FB9DED0E0A40F66008C2F20A
:102D50000008B5EE400AA8F10804002715AD0026CA
:102D6000F1EE10FAD8BFCDF838A000BF09EB46004D
:102D7000008A314690FAA0F0000D00EE100AB8EE7D
:102D8000400A39EE400A20EE0B0A01204FF40052AF
:102D90002B4620EE0A8ACDF854A009F0D9FA9DED11
:102DA000150A013620EE080A84ED020AE7600834AD
:102DB000B6F5005FDAD140464FF4005100220026FC
:102DC00008F04EFB40F6281008F11004C2F2010092
:102DD0009FED518A4EF6FC7800F10805C7F6FF78A2
:102DE00041F2010714ED030A14ED041A20EE000A63
:102DF00021EE011A31EE001AB1EEC10AB4EE400A1A
:102E0000F1EE10FA72D69DED0E1A16EA080F21EEB9
:102E1000081A80EE010A06F1010630EE001A08BF1A
:102E2000B0EE401ABE4205ED021A00F0858014EDA6
:102E3000010A14ED021A20EE000A21EE011A31EE09
:102E4000001AB1EEC10AB4EE400AF1EE10FA53D600
:102E50009DED0E1A21EE081A80EE012A94ED010A6A
:102E600094ED001A20EE000A21EE011A31EE001A4C
:102E7000B1EEC10A32EE022A05ED012AB4EE400A93
:102E8000F1EE10FA3ED69DED0E1A21EE081A80EEF4
:102E9000012A94ED030A94ED021A20EE000A21EEB5
:102EA000011A31EE001AB1EEC10A32EE022A85EDA6
:102EB000002AB4EE400AF1EE10FA37D69DED0E1A54
:102EC000203421EE081A80EE010A033630EE000AA3
:102ED00085ED010A103585E700000000CAF249F1CE
:102EE000CAF24971000000450000003AB0EE410A04
:102EF0000AF07CFC87E700BFB0EE410A0AF076FCDE
:102F0000A6E700BFB0EE410A0AF070FCBBE700BFC5
:102F1000444D415F45525200000000460024744A6F
:102F200027D4D2356666663FCDCC8C3FB0EE410AE1
:102F30000AF05CFCC2E700BF40F6FF70009040F66C
:102F400028101FED0A0A0AAFC2F2010041F2010186
:102F50004FF400520123019709F0A6FC9DED0C0AE5
:102F60001FED111A1FED24DA20EE01EA0024F0EE25
:102F70004DDAF0EE4DEAF0EE4DFAB0EE4DBAB0EEAD
:102F80004DCAB0EE4D8AF0EE4DCAF0EE4D9AF0EE1D
:102F90004DAAF0EE4DBA8DED080A00BF00EE104AC2
:102FA000B8EE400A2EEE009AB0EE490A0AF0EEF9A9
:102FB000B0EE40AAB0EE490A0AF050FB09EB440516
:102FC000288A2AEE0A1A31EE0CCA2AEE001A90FA62
:102FD000A0F031EE088A20EE001A000D71EE2CCA26
:102FE00001EE100A1FED412AB8EE411A32EE411AE5
:102FF000F0EE428AB1EE042A21EE021A1FED462AB3
:103000007FEE80FA21EE021A3BEE00BA21EE000AB2
:10301000601C70EE2BBA00EE100AB0EE4EFAB8EE5D
:10302000400A2FEE009A21EE0A2AB7EE00EAB0EE2F
:10303000490A7DEE8ADA7EEE8AEA72EE2AAA79EEF3
:10304000819A3DEE0EDA0AF0A1F9B0EE40AAB0EE98
:10305000490A0AF003FB2AEE0A1A688A31EE0CCA02
:103060002AEE001A31EE081A90FAA0F08DED091A36
:1030700020EE001A000D71EE2CCA01EE100AB8EE17
:10308000411AB0EE68EA38EEC11AF1EE048A1FED7B
:103090006A8A21EE281A21EE081A7FEE80FA3BEEAA
:1030A00000BA21EE000A70EE2BBAB7EE000AA01C9F
:1030B0003DEE00DA00EE100AB8EE400A2FEE009A5C
:1030C00021EE0A2AB0EE490A7DEE8ADA7EEE8AEA1D
:1030D00072EE2AAA79EE819A0AF058F9B0EE40AA67
:1030E000B0EE490A0AF0BAFA2AEE0A1A9DED092A48
:1030F000A88A31EE0CCA2AEE001A31EE021A90FAB2
:10310000A0F08DED091A20EE001A000D71EE2CCA08
:1031100001EE100AB8EE411A3EEE411A21EE281ACD
:1031200021EE081A7FEE80FA3BEE00BA21EE000A8B
:1031300070EE2BBAB7EE000AE01C3DEE00DA00EEAE
:10314000100AB8EE400A2FEE009A21EE0A2AB0EEDD
:10315000490A7DEE8ADA7EEE8AEA72EE2AAA79EED2
:10316000819A0AF013F9B0EE40AAB0EE490A0AF0CB
:1031700075FAE88A2AEE0A1A9DED092A31EE0CCA80
:103180002AEE001A90FAA0F031EE028A20EE001A20
:10319000000D71EE2CCA01EE100AB8EE411A3EEE97
:1031A000411A1FEDAF2A21EE281A21EE021A7FEEF6
:1031B00080FA3BEE00BA21EE000A21EE0A2A70EEF8
:1031C0002BBA0434B7EE000A7DEE8ADA7EEE8AEA84
:1031D00072EE2AAA79EE819AB4F5005F3DEE00DA2C
:1031E000B0EE4FEA7FF4DAAE15A812A90FAA0323B6
:1031F0008DED15DACDED16DACDED18EACDED17FA35
:103200008DED1BBA8DED19CA8DED1C8ACDED1DCA51
:10321000CDED129ACDED13AACDED14BA8DED1A8A2B
:1032200008F0A6FD002800F06D861FEDC20A9DED96
:10323000082A1FEDC31ADDED10EA1FEDD9BA22EE00
:10324000000ADDED0FDADDED11FA1FEDDAFA5FEDC0
:10325000DABA5FEDCD9A8DED030A22EE010AB1EEE6
:103260006E8A0024B0EE4BCAF1EE04CA8DED040A5A
:1032700000EE104AB8EE40DA2EEE0D9AB0EE490A92
:103280000AF084F8B0EE40AAB0EE490A0AF0E6F976
:1032900009EB4405288A2EEE8A1A90FAA0F031EE46
:1032A0002D1A2FEE802A000D32EE011A02EE100ABE
:1032B000B8EE422A3FEE422A22EE2C2A22EE2B2A98
:1032C00032EE411A2FEE8A2A28EE000A30EE020A68
:1032D00020EE0D0A20EE290A21EE001A20EE000A47
:1032E000601C30EE0CCA00EE100AB8EE40DA2EEE8A
:1032F0000D9AB0EE490A31EE0BBA0AF047F8B0EE7B
:1033000040AAB0EE490A0AF0A9F9688A2EEE8A1A94
:1033100090FAA0F031EE2D1A2FEE802A000D32EE39
:10332000011A02EE100AB8EE422A3FEE422A22EEBD
:103330002C2A22EE2B2A32EE411A2FEE8A2A28EE70
:10334000000A30EE020A20EE0D0A20EE290A21EED4
:10335000001A20EE000AA01C30EE0CCA00EE100A83
:10336000B8EE40DA2EEE0D9AB0EE490A31EE0BBA05
:103370000AF00CF8B0EE40AAB0EE490A0AF06EF975
:10338000A88A2EEE8A1A90FAA0F031EE2D1A2FEEAE
:10339000802A000D32EE011A02EE100AB8EE422A1F
:1033A0003FEE422A22EE2C2A22EE2B2A32EE411A3E
:1033B0002FEE8A2A28EE000A30EE020A20EE0D0ACD
:1033C00020EE290A21EE001A20EE000AE01C30EE61
:1033D0000CCA00EE100AB8EE40DA2EEE0D9AB0EEEE
:1033E000490A31EE0BBA09F0D1FFB0EE40AAB0EEB7
:1033F000490A0AF033F9E88A2EEE8A1A90FAA0F008
:1034000031EE2D1A2FEE802A000D32EE011A02EE57
:10341000100AB8EE422A3FEE422A22EE2C2A22EE71
:103420002B2A32EE411A2FEE8A2A28EE000A30EEBD
:10343000020A20EE0D0A20EE290A21EE001A20EEE3
:10344000000A043431EE0BBAB4F5005F30EE0CCA5A
:103450007FF40EAF9FED040AB4EE40CAF1EE10FA0D
:10346000C0F256850AE000BF08E53C1E00000000DF
:10347000000000450000003A27D4D2358BEE0C0A3C
:103480009DED081A1FED07EA0024B0EE4EBAB0EE2B
:103490004ECAF0EE4EAAF0EE4EBAB0EE4E8AF0EE04
:1034A0004ECAF0EE4EDAF0EE4EFAB0EE4EDA31EEF3
:1034B000001A9DED030AB4EE401AF1EE10FAB8BFFF
:1034C000B0EE401A9DED040AB4EE401AF1EE10FA87
:1034D000C8BFB0EE401A21EE290AF0EE4E9A8DEDEB
:1034E000081A8DED090A00BF00EE104A9DED091A79
:1034F000B8EE400A21EE009AB0EE490AF0EE418A99
:1035000009F044FFB0EE40AAB0EE490A0AF0A6F86E
:1035100009EB4405288A2AEE0A1A71EE2BBA2AEE24
:10352000001A90FAA0F031EE088A20EE001A000D81
:1035300071EE2CCA01EE100A5FED33EAB8EE411AC3
:103540003EEEC11AF1EE04EA1FED36FA21EE2E1A14
:1035500021EE0F1A79EE809A7AEE80AA21EE000A07
:10356000601C30EE0DDA00EE100AB8EE400A28EECC
:10357000809A21EE0A2AB7EE00FAB0EE490A3BEE35
:103580000ABA3CEE0ACA72EE2FFA7DEE81DA3EEEFE
:103590000FEAF0EE68EA09F0F9FEB0EE40AAB0EEEC
:1035A000490A0AF05BF8688A2AEE0A1A71EE2BBA09
:1035B0002AEE001A90FAA0F071EE088A20EE001AA6
:1035C000000D71EE2CCA01EE100A1FED57FAB8EE8D
:1035D000411A3FEE411AB1EE042A1FED5A8A21EE3C
:1035E000021A21EE081A79EE809A7AEE80AA21EE6C
:1035F000000A30EE0DDAB7EE000AA01C3EEE00EA3B
:1036000000EE100AB8EE400A2EEE809A21EE0A2A49
:10361000B0EE490A3BEE0ABA3CEE0ACA72EE2FFA45
:103620007DEE81DA09F0B2FEB0EE40AAB0EE490AB2
:103630000AF014F8A88A2AEE0A1A71EE2BBA2AEEBA
:10364000001A90FAA0F071EE288A20EE001A000D00
:1036500071EE2CCA01EE100AB8EE411A3FEE411A83
:10366000B1EE042A21EE021A21EE081A79EE809AB0
:103670007AEE80AA21EE000A30EE0DDAB7EE000AEB
:10368000E01C3EEE00EA00EE100AB8EE400A2EEE14
:10369000809A21EE0A2AB0EE490A3BEE0ABA3CEEC5
:1036A0000ACA72EE2FFA7DEE81DA09F06FFEB0EEF3
:1036B00040AAB0EE490A09F0D1FFE88A2AEE0A1AB8
:1036C00071EE2BBA2AEE001A90FAA0F031EE288A99
:1036D00020EE001A000D71EE2CCA01EE100AB8EEB1
:1036E000411A3FEE411AB1EE042A21EE021A1FEDF3
:1036F0009F2A79EE809A21EE021A7AEE80AA21EEB4
:10370000000A21EE0A2A30EE0DDA0434B7EE000A80
:103710003BEE0ABA3CEE0ACA72EE2FFA7DEE81DA6F
:10372000B4F5005F3EEE00EA7FF4DEAE9DED099A4F
:1037300015A812A90FAA03238DED15EA8DED16BA6F
:103740008DED18CACDED179ACDED1BAACDED19BAA6
:103750008DED1C8ACDED1DCACDED12DACDED13FA3B
:103760008DED14DA8DED1A8A08F002FB002800F0C6
:10377000C983DDED10FA1FEDC3BADDED0FDA9DED63
:1037800011EA1FEDC5FA5FEDC5BA5FEDC59AB1EE5E
:103790006F8A0024B0EE4BCAF1EE04CAF0EE49AADB
:1037A00000EE104AB8EE40DA2AEE8D9AB0EE490AE1
:1037B00009F0ECFDB0EE40AAB0EE490A09F04EFF68
:1037C00009EB4405288A2FEE8A1A90FAA0F031EE10
:1037D0002D1A2EEE002A000D32EE011A02EE100A0A
:1037E000B8EE422A3FEE422A22EE2C2A22EE2B2A63
:1037F00032EE411A2EEE0A2A28EE000A30EE020AB4
:1038000020EE0D0A20EE290A21EE001A20EE000A11
:10381000601C30EE0CCA00EE100AB8EE40DA2AEE58
:103820008D9AB0EE490A31EE0BBA09F0AFFDB0EE59
:1038300040AAB0EE490A09F011FF688A2FEE8A1AF1
:1038400090FAA0F031EE2D1A2EEE002A000D32EE85
:10385000011A02EE100AB8EE422A3FEE422A22EE88
:103860002C2A22EE2B2A32EE411A2EEE0A2A28EEBC
:10387000000A30EE020A20EE0D0A20EE290A21EE9F
:10388000001A20EE000AA01C30EE0CCA00EE100A4E
:10389000B8EE40DA2AEE8D9AB0EE490A31EE0BBA54
:1038A00009F074FDB0EE40AAB0EE490A09F0D6FE68
:1038B000A88A2FEE8A1A90FAA0F031EE2D1A2EEE79
:1038C000002A000D32EE011A02EE100AB8EE422A6A
:1038D0003FEE422A22EE2C2A22EE2B2A32EE411A09
:1038E0002EEE0A2A28EE000A30EE020A20EE0D0A19
:1038F00020EE290A21EE001A20EE000AE01C30EE2C
:103900000CCA00EE100AB8EE40DA2AEE8D9AB0EE3C
:10391000490A31EE0BBA09F039FDB0EE40AAB0EE1B
:10392000490A09F09BFEE88A2FEE8A1A90FAA0F065
:1039300031EE2D1A2EEE002A000D32EE011A02EEA3
:10394000100AB8EE422A3FEE422A22EE2C2A22EE3C
:103950002B2A32EE411A2EEE0A2A28EE000A30EE09
:10396000020A20EE0D0A20EE290A21EE001A20EEAE
:10397000000A043431EE0BBAB4F5005F30EE0CCA25
:103980007FF40EAF9FED040AB4EE40CAF1EE10FAD8
:10399000C0F2BE820AE000BF08E53C1E0000000045
:1039A000000000450000003A27D4D2358BEE0C0A07
:1039B0009DED081A1FED07EA0024B0EE4EBAB0EEF6
:1039C0004ECAB0EE4EDAF0EE4EAAB0EE4E8AF0EEEF
:1039D0004EBAF0EE4ECAF0EE4EDAF0EE4EFA31EE9E
:1039E000001A9DED030AB4EE401AF1EE10FAB8BFCA
:1039F000B0EE401A9DED040AB4EE401AF1EE10FA52
:103A0000C8BFB0EE401A21EE290A8DED090A9DEDDE
:103A100009FAF0EE4E9A8DED081A00BF00EE104A3A
:103A2000B8EE400A2FEE009AB0EE490A09F0AEFC5B
:103A3000B0EE40AAB0EE490A09F010FE09EB4405C9
:103A4000288A2AEE0A1A71EE2AAA2AEE001A90FA99
:103A5000A0F031EE088A20EE001A000D71EE2BBAAC
:103A600001EE100A1FED322AB8EE411A32EE411A69
:103A7000B1EE042A5FED35EA21EE021A21EE2E1A8C
:103A80003DEE00DA79EE809A21EE000A601C70EEBD
:103A90002FFA00EE100AB8EE400A2FEE009A21EE3F
:103AA0000A2AF7EE00EAB0EE490A3BEE0ABA3CEE0B
:103AB0000ACA72EE2DDA7CEE81CA3EEE2EEA09F0D9
:103AC00065FCB0EE40AAB0EE490A09F0C7FD688A6D
:103AD0002AEE0A1A71EE2AAA2AEE001A90FAA0F02B
:103AE00071EE088A20EE001A000D71EE2BBA01EE7D
:103AF000100A5FED55EAB8EE411A3EEEC11AB1EE7A
:103B0000042A1FED588A21EE021A21EE081A3DEE12
:103B100000DA79EE809A21EE000A70EE2FFAB7EE05
:103B2000000AA01C3EEE00EA00EE100AB8EE400AC1
:103B30002FEE009A21EE0A2AB0EE490A3BEE0ABAAD
:103B40003CEE0ACA72EE2DDA7CEE81CA09F01EFC48
:103B5000B0EE40AAB0EE490A09F080FDA88A2AEE2C
:103B60000A1A71EE2AAA2AEE001A90FAA0F071EE53
:103B7000288A20EE001A000D71EE2BBA01EE100A11
:103B8000B8EE411A3EEEC11AB1EE042A21EE021A35
:103B900021EE081A3DEE00DA79EE809A21EE000A55
:103BA00070EE2FFAB7EE000AE01C3EEE00EA00EEDF
:103BB000100AB8EE400A2FEE009A21EE0A2AB0EE63
:103BC000490A3BEE0ABA3CEE0ACA72EE2DDA7CEEE6
:103BD00081CA09F0DBFBB0EE40AAB0EE490A09F059
:103BE0003DFDE88A2AEE0A1A71EE2AAA2AEE001A88
:103BF00090FAA0F031EE288A20EE001A000D71EE46
:103C00002BBA01EE100AB8EE411A3EEEC11AB1EE1F
:103C1000042A21EE021A1FED9D2A3DEE00DA21EE64
:103C2000021A79EE809A21EE000A21EE0A2A70EE3D
:103C30002FFA0434B7EE000A3BEE0ABA3CEE0ACA89
:103C400072EE2DDA7CEE81CAB4F5005F3EEE00EA3A
:103C50007FF4E4AE9DED099A15A812A90FAA0323DB
:103C60008DED15EA8DED16BA8DED18CA8DED17DACA
:103C7000CDED1B9ACDED19AA8DED1C8ACDED1DBAA7
:103C8000CDED12CACDED13DACDED14FA8DED1A8A11
:103C900008F06EF8002800F03581DDED10FA1FED18
:103CA000C1BADDED0FDA9DED11EA1FEDC3FA5FED4C
:103CB000C3BA5FEDC39AB1EE6F8A0024B0EE4BCA6F
:103CC000F1EE04CAF0EE49AA00EE104AB8EE40DA6E
:103CD0002AEE8D9AB0EE490A09F058FBB0EE40AAE0
:103CE000B0EE490A09F0BAFC09EB4405288A2FEE28
:103CF0008A1A90FAA0F031EE2D1A2EEE002A000D4D
:103D000032EE011A02EE100AB8EE422A3FEE422AC3
:103D100022EE2C2A22EE2B2A32EE411A2EEE0A2A0D
:103D200028EE000A30EE020A20EE0D0A20EE290AE3
:103D300021EE001A20EE000A601C30EE0CCA00EEE4
:103D4000100AB8EE40DA2AEE8D9AB0EE490A31EE4A
:103D50000BBA09F01BFBB0EE40AAB0EE490A09F01D
:103D60007DFC688A2FEE8A1A90FAA0F031EE2D1AA7
:103D70002EEE002A000D32EE011A02EE100AB8EE05
:103D8000422A3FEE422A22EE2C2A22EE2B2A32EE43
:103D9000411A2EEE0A2A28EE000A30EE020A20EE20
:103DA0000D0A20EE290A21EE001A20EE000AA01CBE
:103DB00030EE0CCA00EE100AB8EE40DA2AEE8D9A08
:103DC000B0EE490A31EE0BBA09F0E0FAB0EE40AAC3
:103DD000B0EE490A09F042FCA88A2FEE8A1A90FA3E
:103DE000A0F031EE2D1A2EEE002A000D32EE011A4F
:103DF00002EE100AB8EE422A3FEE422A22EE2C2AA8
:103E000022EE2B2A32EE411A2EEE0A2A28EE000A62
:103E100030EE020A20EE0D0A20EE290A21EE001AE9
:103E200020EE000AE01C30EE0CCA00EE100AB8EEDC
:103E300040DA2AEE8D9AB0EE490A31EE0BBA09F05B
:103E4000A5FAB0EE40AAB0EE490A09F007FCE88AEC
:103E50002FEE8A1A90FAA0F031EE2D1A2EEE002ADB
:103E6000000D32EE011A02EE100AB8EE422A3FEEC1
:103E7000422A22EE2C2A22EE2B2A32EE411A2EEE74
:103E80000A2A28EE000A30EE020A20EE0D0A20EE81
:103E9000290A21EE001A20EE000A043431EE0BBA92
:103EA000B4F5005F30EE0CCA7FF40EAF9FED100A40
:103EB000B4EE40CAF1EE10FA2ADB8BEE0C0A9DED4F
:103EC000085AF7EE00FA35EE005A9DED030AB4EEFB
:103ED000405AF1EE10FAB8BFB0EE405A9DED040A18
:103EE000B4EE405AF1EE10FAC8BFB0EE405A13E0FB
:103EF00008E53C1E000000450000003ADB0FC94009
:103F00000024744A1FED05FA5FED05BAF1EE04CA0C
:103F10009DED085AF7EE00FA1FED084A35EE050A46
:103F2000B0EE081A1FED0A3A40F6600525EE011AB8
:103F300020EE040AC2F2010525EE042AC0EE03EACF
:103F400021EE040A00262846C42182EE038AC0EE30
:103F500003DA8DED0C5ACBE90366CBE90566CBE9B4
:103F60000766CBF82460FCF7D4FD00BF09EB4600E0
:103F7000008A90FAA0F0000D00EE100AB8EE400A98
:103F80003FEE400A60EE2C9A00EE106AB8EE40EA6E
:103F900028EE0E9AB0EE490A09F0F8F9B0EE40DAD0
:103FA000B0EE490A09F05AFB2EEE8E9AB0EE40CAE6
:103FB000B0EE490A09F0EAF9B0EE40BAB0EE490AAB
:103FC00009F04CFB2DEE8EEAB0EE40AAB0EE4E0AA0
:103FD00009F0DCF9B0EE409AB0EE4E0A09F03EFB73
:103FE0009BED032A29EEAB1A31EE022A8BED032A50
:103FF00095ED002A95ED013A32EE2F2A85ED002A43
:104000003DEE032A95ED073A95ED024A85ED012A2A
:104010003DEE032A95ED0E3A95ED035A85ED072AFC
:104020003CEE042A85ED022A3CEE032A95ED153A72
:1040300085ED0E2A3BEE052A85ED032A3BEE032A89
:1040400095ED043A85ED152A3AEE032A95ED1C3AD2
:1040500085ED042A3AEE032A95ED053A85ED1C2AF2
:1040600039EE032A95ED233A85ED052A39EE032A28
:1040700095ED063A85ED232A30EE032A95ED2A3A8E
:1040800085ED062A30EE032A85ED2A2A9BED042AC7
:104090002DEE013A33EE022A8BED042A95ED082A23
:1040A0002DEE0D3A33EE022A85ED082A95ED092A08
:1040B0002DEE0C3A95ED0F4A33EE022A85ED092AD2
:1040C00033EE042A85ED0F2A95ED0A2A2DEE0B3AE0
:1040D00095ED164A33EE022A85ED0A2A33EE042ABC
:1040E00085ED162A95ED0B2A2DEE0A3A95ED1D4A1F
:1040F00033EE022A85ED0B2A33EE042A85ED1D2AC4
:1041000095ED0C2A2DEE093A95ED244A33EE022A5C
:1041100085ED0C2A33EE042A85ED242A95ED0D2A2F
:104120002DEE003A95ED2B4A33EE022A85ED0D2A4D
:1041300033EE042A85ED2B2A9BED052A2CEE013A5D
:1041400033EE022A8BED052A95ED102A2CEE0C3A5F
:1041500033EE022A85ED102A95ED112A2CEE0B3A4A
:1041600095ED174A33EE022A85ED112A33EE042A23
:1041700085ED172A95ED122A2CEE0A3A95ED1E4A86
:1041800033EE022A85ED122A33EE042A85ED1E2A2B
:1041900095ED132A2CEE093A95ED254A33EE022AC5
:1041A00085ED132A33EE042A85ED252A95ED142A90
:1041B0002CEE003A95ED2C4A33EE022A85ED142AB6
:1041C00033EE042A85ED2C2A9BED062A2BEE013ACC
:1041D00033EE022A8BED062A95ED182A2BEE0B3AC8
:1041E00033EE022A85ED182A95ED192A2BEE0A3AAC
:1041F00095ED1F4A33EE022A85ED192A33EE042A83
:1042000085ED1F2A95ED1A2A2BEE093A95ED264ADF
:1042100033EE022A85ED1A2A33EE042A85ED262A8A
:1042200095ED1B2A2BEE003A95ED2D4A33EE022A2E
:1042300085ED1B2A33EE042A85ED2D2A9BED072AF6
:104240002AEE013A33EE022A8BED072A95ED202A59
:104250002AEE0A3A33EE022A85ED202A95ED212A2C
:104260002AEE093A95ED274A33EE022A85ED212AF6
:1042700033EE042A85ED272A95ED222A2AEE003A0C
:1042800095ED2E4A33EE022A85ED222A33EE042ADA
:1042900085ED2E2A9BED082A29EE013A33EE022AFB
:1042A0008BED082A95ED282A29EE093A33EE022AE9
:1042B00085ED282A95ED292A29EE003A95ED2F4A19
:1042C00033EE022A85ED292A33EE042A85ED2F2AC2
:1042D0009BED092A20EE011A31EE021A8BED091A24
:1042E00095ED301A20EE000A013630EE010AB6F5DF
:1042F000005F85ED300A7FF439AE40F660000BF1C7
:104300000C01C2F2010015AA072307F031FD58B3D2
:104310009DED170A9DED161A8DED080A20EE000A94
:104320008DED091A21EE011A31EE001AB1EEC10A23
:1043300040F62818C2F20108B4EE400AF1EE10FA75
:1043400081F16A819FED261A30EE000A9DED15BAC3
:104350009DED188ADDED19BADDED1AAADDED1B9A87
:1043600020EE012A06E000BF9FED1E2A40F6281825
:10437000C2F201089FED1C1A9DED070A9DED063A59
:1043800020EE011AB1EEC10A9DED054A9FED14AA77
:1043900033EE443AB5EE402A23EE0A9AF1EE10FAD3
:1043A000C8BFB0EE429AB4EE400AF1EE10FA81F1C5
:1043B0002D819BF804009DED0C1ADFED0C8A20EE98
:1043C0000A0A58B1411E032900F003011ED29FEDD5
:1043D000052A0022B0EE423A47E000BF00209AE0F2
:1043E00000007A440000000000000039DB0FC940E3
:1043F0000000C842CDCCCC3DCAF249F100007E435A
:10440000DB0F4941E4CB9641CAF249711FED0B2AFB
:104410000BF1540300F0FC070022B0EE423A00BF5B
:1044200013ED0B4A13ED0A5A33EE043A13ED034A27
:1044300053ED020A13ED096A53ED011A32EE042A14
:1044400013ED087AD3ED002A33EE053A32EE202A36
:1044500033EE063A32EE212A043233EE073A32EED8
:10446000222A974203F11003DAD119B30BEB82032E
:1044700093ED0A4A93ED125A33EE043A012932EED3
:10448000052A17D0531C0BEB830393ED0A4A93EDD7
:10449000125A33EE043A022932EE052A0AD0911C50
:1044A0000BEB810191ED0A4A91ED125A33EE043A79
:1044B00032EE052A04EE100AB8EE444A83EE043ABE
:1044C000B4EE6F3AF1EE10FA0CDD39EE435AB5EE68
:1044D000006AB0EEC55A23EE063AB4EE435AF1EE46
:1044E00010FA15DC82EE042A1FED3F3AB4EE432A9F
:1044F000F1EE10FA0FDD1FED414A31EE423AB0EE17
:10450000C33A22EE042AB4EE423AF1EE10FA02DD8A
:104510000020ABF804009BF805104CF2A862C2F230
:1045200001020BEB810302EB8107013183ED0A9A53
:1045300083ED121A01F007014FF0FF3387ED000AF7
:1045400007288BF805109CBF01308BF8040053FA44
:1045500080F3C1B2032B00F0030009D21FED5F0A04
:104560000023B0EE402AB0EE401A002846D17BE08E
:104570001FED640A01F0FC035B4200270026B0EE49
:10458000402AB0EE401A00BF0BEB060595ED0A3A43
:10459000941930EE030A94ED003A95ED0B4A32EE91
:1045A000032A95ED123A94ED017AD5ED132A95ED93
:1045B0000C5AD4ED020AD5ED143A31EE031A95EDFA
:1045C0000D6AD4ED031AD5ED154A30EE040A32EE29
:1045D000072A31EE221A30EE050A32EE202A31EE99
:1045E000231A043F30EE060A32EE212A31EE241A55
:1045F000BB4206F11006C7D17B42A8B30BEB830781
:1046000097ED0A3A02EB830696ED004A30EE030A74
:1046100097ED123A32EE042A012831EE031A23D024
:104620005F1C0BEB870696ED0A3A02EB870730EE2C
:10463000030A97ED003A96ED124A32EE032A022859
:1046400031EE041A10D0981C0BEB800393ED0A3A5C
:1046500002EB800030EE030A90ED003A93ED124A2F
:1046600032EE032A31EE041A03EE101AB8EE433A82
:1046700080EE030A82EE032A81EE031AB6EE003AB8
:1046800040F2CC00C2F20000A0F114065FEDA6EAF1
:104690005FEDA6FA5FEDA6DA5FEDA6CA9DED09DA39
:1046A0009DED08EA002730EE030ABCEEC00A8DED4E
:1046B000120A32EE030ABCEEC00A8DED130A21EE97
:1046C0000A0A30EE030A1FEDB0AABCEEC00A354656
:1046D0008DED140A00EE107AB8EE400A80EE2FFA43
:1046E0002FEE289AB0EE490A08F050FE2DEE000A8F
:1046F00030EE0BCAB0EE490A08F0B0FF2EEE000A09
:104700002FEE2D9A30EE0CCAB0EE490A08F03EFEAC
:1047100028EE000A30EE0CCAB0EE490A08F09EFFFF
:104720002BEE800A2FEE2C9A30EE0CCAB0EE490A1E
:1047300008F02CFE2AEE800A30EE0CCAB0EE490AD0
:1047400008F08CFF781C01EE100AB8EE411A81EED9
:104750002FFA29EE800A30EE0C0AB4EE4A0AF1EE86
:1047600010FAB4EE6E0A85ED050AB8BFB0EE40AAA5
:10477000F1EE10FAC8BFF0EE40EA05F114042FEE96
:10478000289AB0EE490A08F001FE2DEE000A30EE3C
:104790000BCAB0EE490A08F061FF2EEE000A2FEEB8
:1047A0002D9A30EE0CCAB0EE490A08F0EFFD28EE63
:1047B000000A30EE0CCAB0EE490A08F04FFF2BEEAB
:1047C000800A2FEE2C9A30EE0CCAB0EE490A08F09F
:1047D000DDFD2AEE800A30EE0CCAB0EE490A08F080
:1047E0003DFFB81C01EE100AB8EE411A81EE2FFA17
:1047F00029EE800A30EE0C0AB4EE4A0AF1EE10FA05
:10480000B4EE6E0A85ED060AB8BFB0EE40AAF1EE2E
:1048100010FAC8BFF0EE40EA2FEE289AB0EE490A2F
:1048200008F0B4FD2DEE000A30EE0BCAB0EE490AD6
:1048300008F014FF2EEE000A2FEE2D9A30EE0CCA6F
:10484000B0EE490A08F0A2FD28EE000A30EE0CCACC
:10485000B0EE490A08F002FF2BEE800A2FEE2C9AE8
:1048600030EE0CCAB0EE490A08F090FD2AEE800A3C
:1048700030EE0CCAB0EE490A08F0F0FEF81C01EE6A
:10488000100AB8EE411A81EE2FFA29EE800A30EEB6
:104890000C0AB4EE4A0AF1EE10FAB4EE6E0A85ED97
:1048A000070AB8BFB0EE40AAF1EE10FAC8BFF0EEAA
:1048B00040EA2FEE289AB0EE490A08F067FD2DEE87
:1048C000000A30EE0BCAB0EE490A08F0C7FE2EEE21
:1048D000000A2FEE2D9A30EE0CCAB0EE490A08F00D
:1048E00055FD28EE000A30EE0CCAB0EE490A08F079
:1048F000B5FE2BEE800A2FEE2C9A30EE0CCAB0EEED
:10490000490A08F043FD2AEE800A30EE0CCAB0EEE8
:10491000490A08F0A3FE381D01EE100AB8EE411A4C
:1049200081EE2FFA29EE800A30EE0C0AB4EE4A0A24
:10493000F1EE10FAB4EE6E0A85ED080AB8BFB0EEDB
:1049400040AAF1EE10FAC8BFF0EE40EA2FEE289A26
:10495000B0EE490A08F01AFD2DEE000A30EE0BCA3F
:10496000B0EE490A08F07AFE2EEE000A2FEE2D9ADC
:1049700030EE0CCAB0EE490A08F008FD28EE000A35
:1049800030EE0CCAB0EE490A08F068FE2BEE800A41
:104990002FEE2C9A30EE0CCAB0EE490A08F0F6FC65
:1049A0002AEE800A30EE0CCAB0EE490A08F056FE34
:1049B00029EE800A30EE0C0AB4EE4A0AF1EE10FA43
:1049C000B4EE6E0A85ED090AB8BFB0EE40AAF1EE6A
:1049D00010FA07F10507C8BFF0EE40EAFF2F2546A1
:1049E0007FF478AE9FED58FA3AEE0F0AB4EE6E0AF5
:1049F000F1EE10FA80F2BA804CF2C86C9FED531AB7
:104A00009FED532A3EEECA0AC2F2010C0021324643
:104A1000B6EE006A92ED053A92ED064A33EE4A3A56
:104A200023EE013A83EE003A34EE4A4A24EE014A7C
:104A300084EE004AB5EE403AF1EE10FAB8BFB0EE9F
:104A4000423AB4EE413AF1EE10FAC8BFB0EE413A44
:104A500033EE063A92ED075ABDEEC33A13EE103A22
:104A600035EE4A3A23EE013A83EE003AB5EE404A7B
:104A7000F1EE10FAB8BFB0EE424AB4EE414AF1EEA0
:104A800010FAC8BFB0EE414A34EE064A92ED085A19
:104A9000BDEEC44A14EE107A35EE4A4A24EE014ABD
:104AA00084EE004AB5EE403AF1EE10FAB8BFB0EE2F
:104AB000423A92ED095AB4EE413A35EE4A5A25EEA1
:104AC000015A85EE005AF1EE10FAC8BFB0EE413A35
:104AD00033EE063ABDEEC33A13EE105AB5EE404A35
:104AE000F1EE10FAB8BFB0EE424AB4EE414AF1EE30
:104AF00010FAC8BFB0EE414A34EE063ABDEEC33AF2
:104B0000B5EE405AF1EE10FAB8BFB0EE425AB4EE2C
:104B1000415A13EE104AF1EE10FAC8BFB0EE415AF6
:104B200035EE063ABDEEC33A0CF801300CEB01034A
:104B3000053113EE100A1432FF295F709D70DC708E
:104B400018717FF467AF19E0CCBC8C2B00007F4359
:104B500000000000CAF24971CAF249F1DB0F494175
:104B6000DB0FC940E4CB964100007E434CF2C860A5
:104B7000C2F20100FF218022FBF7C3FF1FED0BAA49
:104B80005FED0BEA9DED08EA5FED0CDA0027354694
:104B900000EE107AB8EE400A80EE2F0AF0EE08CA56
:104BA0001FED11DAF0EE6C8A20EE2CCA2CEE0D9A75
:104BB000F0EE4BCAB0EE6BBAF0EE6ABAF0EE69AA4C
:104BC000F0EE489A9DED098AB0EE490A08F0DEFB46
:104BD00028EE000A70EE2CFAB0EE490A08F03EFD0D
:104BE0002EEE000A2CEE2D9A70EE2FFAB0EE490A46
:104BF00008F0CCFB29EE800A70EE2FFAB0EE490ADD
:104C000008F02CFD1FED29DA2BEE000A2CEE0D9A90
:104C100070EE2FFAB0EE490A08F0B8FB2BEE800ACE
:104C200030EE2FCAB0EE490A08F018FD781C01EEEC
:104C3000100A1FED332AB8EE411A81EE021A2AEE4D
:104C4000800A30EE0C0AB0EE68DAB4EE4A0AF1EEF1
:104C500010FAB4EE6E0A85ED050AB8BFB0EE40AAB0
:104C6000F1EE10FAC8BFF0EE40EA05F1140421EEAF
:104C700028CA5FED458A2CEE289AB0EE490A08F062
:104C800085FB28EE000A70EE2CFAB0EE490A08F017
:104C9000E5FC2EEE000A2CEE2D9A70EE2FFAB0EE07
:104CA000490A08F073FB29EE800A70EE2FFAB0EE85
:104CB000490A08F0D3FC2BEE000A70EE2FFA1FED24
:104CC000570A2CEE009AB0EE490A08F05FFB2BEE73
:104CD000800A30EE2FCAB0EE490A08F0BFFCB81CBB
:104CE00001EE100A1FED602AB8EE411A81EE021A99
:104CF0002AEE800A30EE0C0AB4EE4A0AF1EE10FAFF
:104D0000B4EE6E0A85ED060AB8BFB0EE40AAF1EE29
:104D100010FAC8BFF0EE40EA21EE0DCA2CEE289A38
:104D2000B0EE490A08F032FB28EE000A70EE2CFAC9
:104D3000B0EE490A08F092FC2EEE000A2CEE2D9AF5
:104D400070EE2FFAB0EE490A08F020FB29EE800A37
:104D500070EE2FFAB0EE490A08F080FC1FED7FDA02
:104D60002BEE000A2CEE0D9A70EE2FFAB0EE490AE7
:104D700008F00CFB2BEE800A30EE2FCAB0EE490A89
:104D800008F06CFCF81C01EE100A1FED892AB8EE41
:104D9000411A81EE021A2AEE800A30EE0C0AB4EEB5
:104DA0004A0AF1EE10FAB4EE6E0A85ED070AB8BFB2
:104DB000B0EE40AAF1EE10FAC8BFF0EE40EAF0EE15
:104DC000088A1FED990A21EE28CA2CEE009AB0EE4F
:104DD000490A08F0DBFA28EE000A70EE2CFAB0EE71
:104DE000490A08F03BFC2EEE000A2CEE2D9A70EEDC
:104DF0002FFAB0EE490A08F0C9FA29EE800A70EEDF
:104E00002FFAB0EE490A08F029FC2BEE000A2CEE2E
:104E10000D9A70EE2FFAB0EE490A08F0B7FA2BEEB1
:104E2000800A30EE2FCAB0EE490A08F017FC381D90
:104E300001EE100A1FEDB42AB8EE411A81EE021AF3
:104E40002AEE800A30EE0C0AB4EE4A0AF1EE10FAAD
:104E5000B4EE6E0A85ED080AB8BFB0EE40AAF1EED6
:104E600010FAC8BFF0EE40EA1FEDC30AF0EE48FAB0
:104E7000B0EE698AF0EE6A9A21EE28CA2CEE009A0A
:104E8000B0EE490AF0EE6BAAF0EE4BBAB0EE6CBA97
:104E900008F07CFA2FEE800A70EE2CFAB0EE490A88
:104EA00008F0DCFB2EEE000A2CEE2D9A70EE2FFAA5
:104EB000B0EE490A08F06AFA28EE000A70EE2FFAFE
:104EC000B0EE490A08F0CAFB2BEE800A2CEE0D9AD0
:104ED00070EE2FFAB0EE490A08F058FA2AEE800A6E
:104EE00030EE2FCA5FEDE0FAB0EE490A08F0B6FBEB
:104EF00029EE800A30EE0C0AB4EE4A0AF1EE10FAFE
:104F0000B4EE6E0A85ED090AB8BFB0EE40AAF1EE24
:104F100010FA07F10507C8BFF0EE40EAFF2F25465B
:104F20007FF436AE3AEE0F0AB4EE6E0AF1EE10FAE6
:104F300080F2A68048F6E8401FEDFC1A1FEDFC2A1F
:104F40003EEECA0AC2F201000021B6EE00CA00BF5E
:104F500096ED053A96ED064A33EE4A3A23EE013ACB
:104F600083EE003A34EE4A4A24EE014A84EE004AC7
:104F7000B5EE403AF1EE10FAB8BFB0EE423AB4EEF8
:104F8000413AF1EE10FAC8BFB0EE413A33EE0C3AB6
:104F900096ED075ABDEEC33A13EE102A35EE4A3AA3
:104FA00023EE013A83EE003AB5EE404AF1EE10FAF4
:104FB000B8BFB0EE424AB4EE414AF1EE10FAC8BFB3
:104FC000B0EE414A34EE0C4A96ED085ABDEEC44AA2
:104FD00014EE103A35EE4A4A24EE014A84EE004AB5
:104FE000B5EE403AF1EE10FAB8BFB0EE423A96EDA7
:104FF000095AB4EE413A35EE4A5A25EE015A85EE89
:10500000005AF1EE10FAC8BFB0EE413A33EE0C3A56
:10501000BDEEC33A13EE107AB5EE404AF1EE10FA47
:10502000B8BFB0EE424AB4EE414AF1EE10FAC8BF42
:10503000B0EE414A34EE0C3ABDEEC33AB5EE405AFA
:10504000F1EE10FAB8BFB0EE425AB4EE415A13EE88
:10505000105AF1EE10FAC8BFB0EE415A35EE0C3AD4
:10506000BDEEC33A42544218053113EE104A1436CD
:10507000FF2953709770D57014717FF469AF09E000
:1050800048F6E840C2F20100FF218022FBF739FD1B
:10509000B6EE00CA002000BF08EB000191ED010A46
:1050A00091ED021A91ED032AB4EE4F0A91ED043A04
:1050B00091ED054A91ED065A91ED076A91ED087A56
:1050C000F1EE10FAC8BFB0EE40FAB4EE4F1AF1EEAE
:1050D00010FAC8BFB0EE41FAB4EE4F2AF1EE10FA62
:1050E000C8BFB0EE42FAB4EE4F3AF1EE10FAC8BFC4
:1050F000B0EE43FAB4EE4F4AF1EE10FAC8BFB0EE8C
:1051000044FAB4EE4F5AF1EE10FAC8BFB0EE45FAC9
:10511000B4EE4F6AF1EE10FAC8BFB0EE46FAB4EE44
:105120004F7AF1EE10FAC8BFB0EE47FA91ED090AD6
:1051300091ED0A1A91ED0B2AB4EE4F0A91ED0C3A5B
:1051400091ED0D4A91ED0E5A91ED0F6A91ED107AA5
:10515000F1EE10FAC8BFB0EE40FAB4EE4F1AF1EE1D
:1051600010FAC8BFB0EE41FAB4EE4F2AF1EE10FAD1
:10517000C8BFB0EE42FAB4EE4F3AF1EE10FAC8BF33
:10518000B0EE43FAB4EE4F4AF1EE10FAC8BFB0EEFB
:1051900044FAB4EE4F5AF1EE10FAC8BFB0EE45FA39
:1051A000B4EE4F6AF1EE10FAC8BFB0EE46FAB4EEB4
:1051B0004F7AF1EE10FA00F14000C8BFB0EE47FAA6
:1051C000B0F5804F7FF468AF9FEDDB0A9FEDDB1AEF
:1051D0002FEE008A48F2810B9FEDD99A9FEDD9AA54
:1051E0009FEDD9DA9FEDD9EA4CF2A85AB4EE418A84
:1051F0000024C8F2800BB3EE04BAC2F2010A40F6F2
:10520000FE7740F6FD7640F6FC754FF00008F1EEB3
:1052100010FAB8BFB0EE418A31E000BFB4EE480AE0
:10522000F1EE10FAB8BFB0EE480A80EE0F0A30EE89
:105230000A0A08F053F920EE0B0A30EE0D0A20EEB0
:105240000E0A80EE0D0A04F58054B5EE400AF1EE28
:1052500010FAB8BFB0EE490AB4EE4E0AF1EE10FAF9
:10526000C8BFB0EE4E0A30EE0C0ABDEEC00A10EE1A
:10527000100A0AF80800B9F1FF0FC8465AD04FEAE1
:105280000830A0FB0B0108F101094FEA0930A0FB2F
:105290000B02C809B0EBD21FB0EE490ABED8A4FB7E
:1052A0000B13D90940F62813C2F2010303EB810165
:1052B0000831D209B0EE490A11ED011AB4EE401AD4
:1052C000F1EE10FAC8BFB0EE410A9042A6D2B84241
:1052D000A4D891ED001A431CB4EE401AF1EE10FA76
:1052E000C8BFB0EE410A934298D2B04296D891ED31
:1052F000011A831CB4EE401AF1EE10FAC8BFB0EEEA
:10530000410A93428AD2A8423FF688AF91ED021A31
:10531000C31CB4EE401AF1EE10FAC8BFB0EE410A59
:105320009342BFF47BAF1031A84200F10400C3D315
:1053300074E700BF40F62812C2F20102111D0120DD
:10534000002340F6FE7500BF02EB800696ED000AD2
:1053500091ED011A9F1CB4EE401A91ED022AF1EE74
:1053600010FAC8BF384602EB800696ED000A0831F5
:10537000B4EE402AF1EE10FAC8BFD81CAF423B464B
:10538000E2D100EE100A9FEDA72AB8EE400A9FED89
:10539000A63A20EE020A9FEDA54A20EE030A20EE6F
:1053A000040A02EB800130EE0C0A91ED001ABCEE0B
:1053B000C00A8DED150A21EE030A30EE0C0A02F147
:1053C00008054CF2541BBCEEC00A00F1020A4FF073
:1053D0000108002340F6FE772946C2F2010B8DED4D
:1053E000180A0FE002EB880391ED010A93ED001A11
:1053F000B4EE410AF1EE10FAC8BFB0460831BC4223
:10540000234619D09C1C544502D81E1D86420BD23F
:1054100002EB880691ED000A96ED001AB4EE410AFF
:10542000F1EE10FAC8BFA046DE1C5645DAD80533A7
:105430008342E3D2D6E700BF00EE108AB8EE400AFE
:1054400020EE020A20EE030A20EE040A02EB880195
:1054500030EE0C0A91ED001ABCEEC00A8DED160A72
:1054600021EE030A30EE0C0ABCEEC00A08F1020974
:105470004FF0010E002740F6FE7C8DED190A03E087
:10548000083563451F4663D03C1DBB1C84424FF06A
:10549000000128BF012153454FF0000698BF0126A7
:1054A00044454FF0000428BF01244B454FF0000253
:1054B00098BF0122224208BF11EA06010FD140F62F
:1054C0002811C2F2010101EB8E0195ED000A91ED68
:1054D000001AB4EE410AF1EE10FAC8BF9E467A1DDA
:1054E000F91C82424FF0000628BF012651454FF0BB
:1054F000000798BF012742454FF0000228BF012254
:1055000049454FF0000498BF0124144208BF17EA30
:105510000602B5D140F62812C2F2010202EB8E0259
:1055200095ED010A92ED001AB4EE410AF1EE10FA7F
:10553000C8BF8E46A4E700BF0AD7233C0AD7A33BC7
:1055400000000000FFE6DB2E0000204200007F4349
:1055500000EE10EAB8EE400A20EE020A40F62810EB
:1055600020EE030AC2F2010020EE040A00EB8E00D6
:1055700030EE0C0A90ED001ABCEEC00A8DED170A51
:1055800021EE030A30EE0C0A0DF14808BCEEC00A09
:1055900040468DED1A0A05F05BFA4CF2C865C2F27E
:1055A000010501202946FF2205F062FA48F6E8418C
:1055B000C2F201010220FF2205F05AFA15AE304670
:1055C00005F026FA4CF2A857C2F201073846FF212F
:1055D00005F036FA404631462A463B46FDF71EF9AD
:1055E0009BF80300032803D105F0AEF902E000BFE9
:1055F00005F0CEF90EA005F03FFD00208BF800006D
:105600001EB0BDEC108B01B0BDE8F08FB0EE410ACA
:1056100008F0ECF8FEF7CDBEB0EE410A08F0E6F86F
:10562000FEF790BE0024744A00007A44000000395E
:10563000524541445900000070B590B04CF25415E9
:10564000C2F20105A86808B1287808B110B070BD91
:105650000020E9706870A8700122481EC0B22A704C
:1056600002289ABF31A151F820302FA36C4646F290
:10567000884631A220464021C4F20206FAF7E0FE35
:105680002046FBF78FF982B24CF26030C2F2010083
:105690002146642302F07EFD2AA005F0EDFC30686F
:1056A00020F0010030603068C00709D03068C007C2
:1056B0001CBF30685FEAC07002D03068C007F2D10A
:1056C0004FF4746046F87C0C41F21000C4F2020002
:1056D000B06044F6D410C2F20100F06042F208005B
:1056E000706042F61440C0F602403060306800221C
:1056F00040F001003060A86801684A62002101F0B2
:10570000ADFF0C20C4F20100816B41F400418163C4
:10571000A96809680A6842F001020A60016841F458
:105720008071016010B070BD3F00000049E60008C4
:105730004FE6000855E600085245513A2025730D02
:105740000A000000434150545552450070B581B0E5
:105750000022009290F83C20012A03D10221084641
:1057600001B070BDD1F800E00122BEF10A0F80F84F
:105770003C200BD31FFA8EF25200066812FA8EF20A
:10578000A2F11E0306F10C0205E000BF06680EEB55
:105790004E0306F110024FF0070C15680CFA03F4E3
:1057A000A54315608D68146805FA03F3234313605D
:1057B0004968062906D801EB8101053906F1340252
:1057C0000AE000BF0C2901EB810187BF413906F1D6
:1057D0002C02233906F130021F2314688B4024EA7F
:1057E000030342F2043C1360C4F2010C1FFA8EF36F
:1057F000146803FA01F1ACF5417321439E42116034
:105800003ED1BEF1120F07D1DCF8001041F4800147
:10581000CCF8001034E000BF2EF0010110292FD188
:10582000DCF80010BEF1100F41F40001CCF80010BC
:1058300026D14CF20001C2F2010109684DF68362E3
:10584000C4F21B32A1FB0212910C01EB8101490051
:1058500000910099A1B1009901390091009979B1A5
:10586000009901390091009951B1009901390091D5
:10587000009929B100990139009100990029EAD1D4
:10588000002180F83C10084601B070BD002804BF1C
:105890000120704710B50446006C00283ED0206CF3
:1058A000C00645D4206C41F202118843023042F216
:1058B00004312064C4F20101086820F4403008601B
:1058C0000A6894E809101A43D4F810E00A604168A5
:1058D000012321F4807141604168C0F6007341EA00
:1058E0000E214160416821F040714160416841EA08
:1058F0000C014160816821F400618160E168826887
:1059000011438160A16A8268994222F070628260CC
:10591000826813D122F0405119E000BF204600F008
:1059200065F80020606484F83C00206CC006B9D59E
:105930000120002184F83C1010BD00BF114381609C
:10594000816821F040518160E16A82681143816081
:10595000816821F0020181608168227E94F8203004
:1059600041EA42018160416883B141F400614160D4
:1059700041684EF2000221F460414160616ACFF655
:10598000FF72436802EB4131194301E021F40061E9
:105990004160C16A40F2000C21F47001C162E26909
:1059A0006169CFF6F07CC36A0CEB02521A43C26203
:1059B000826822F40072826094F83020836843EA9F
:1059C00042228260826822F480628260826842EAB7
:1059D0008121816000206064216C012262F3010159
:1059E0002164002184F83C1010BD000070B586B021
:1059F000044642F200002168C4F201000026814200
:105A00000596049602D006B070BD00BF43F6300183
:105A10000096C4F202014A6900F5604042F48072C7
:105A20004A614A6902F480720092009A00960A68FC
:105A300042F001020A60096801F001010091009939
:105A4000012101910321CDE9021601A900F01AFB01
:105A500040F2085546F21040C2F20005C4F20200BE
:105A60004FF48061C5E9000605F110004FF40062B3
:105A70004FF400534FF4807C80E80E104FF4403018
:105A8000C5E908062846C5E9026600F0E5F90028E0
:105A900018BFFCF775FEA563AC6306B070BD0000CF
:105AA00010B500284FF0010318BF002902D1184695
:105AB00010BD00BF4379012B4FF00203F7D00371F3
:105AC000036802F0100ED3F800C0D1E9004140F69F
:105AD000FE7202FA0EF221432CEA020201FA0EF1E2
