:020000040800F2
:10000000480700202902000855170008C1160008FB
:1000100051170008750400081929000800000000A5
:100020000000000000000000000000006117000850
:100030007904000800000000591700084D26000848
:10004000430200084302000843020008430200087C
:10005000430200085D17000843020008430200083D
:10006000430200084302000843020008430200085C
:10007000430200084302000843020008430200084C
:10008000430200084302000843020008430200083C
:10009000430200084302000843020008430200082C
:1000A000430200084302000843020008430200081C
:1000B000430200084302000843020008430200080C
:1000C00043020008430200084302000843020008FC
:1000D00043020008430200084302000843020008EC
:1000E00043020008430200084302000843020008DC
:1000F00043020008430200084302000843020008CC
:1001000043020008430200084302000843020008BB
:100110000D270008430200084302000843020008BC
:10012000430200084302000843020008430200089B
:10013000430200084302000843020008430200088B
:10014000430200084302000843020008430200087B
:10015000430200084302000843020008430200086B
:10016000430200084302000843020008430200085B
:100170004302000843020008430200080000000098
:10018000430200084302000800F002F800F03CF8C7
:100190000AA090E8000C82448344AAF10107DA45E2
:1001A00001D100F031F8AFF2090EBAE80F0013F0F8
:1001B000010F18BFFB1A43F001031847A4280000E1
:1001C000C4280000103A24BF78C878C1FAD8520772
:1001D00024BF30C830C144BF04680C6070470000C1
:1001E0000023002400250026103A28BF78C1FBD840
:1001F000520728BF30C148BF0B6070471FB502F0DF
:100200009AFB1FBD10B510BD00F0F9F81146FFF7BD
:10021000F5FF02F083FB00F017F903B4FFF7F2FFDC
:1002200003BC00F01FF90000094880470948004757
:10023000FEE7FEE7FEE7FEE7FEE7FEE7FEE7FEE796
:10024000FEE7FEE704480549054A064B70470000F3
:10025000F92600088901000848010020480700200D
:10026000480300204803002053EA020C00F0698094
:100270002DE9F04B4FF00006002B1FBFB3FA83F5BA
:1002800003FA05F424FA05F65E4012BF1643B2FAEB
:1002900082F502FA05F4C5F120051EBF22FA05FC1D
:1002A00044EA0C04203556EA044C4FEA144418BFC3
:1002B000641C4FF000084FF00009904271EB030CF2
:1002C00039D3002919BFB1FA81F701FA07F6B0FA5C
:1002D00080F700FA07F6C7F120071EBF20FA07FCD7
:1002E00046EA0C062037B6FBF4FCA7EB0507103FE7
:1002F00007F01F0BCBF120062CFA06F60CFA0BFBCD
:1003000044BFB3460026202FA4BF5E464FF0000B2B
:100310005BEA060C08BF4FF0010B19EB0B0948EB29
:100320000608ABFB027C06FB02CC0BFB03CCC01B1C
:1003300071EB0C01C1E70B46024641464846BDE859
:10034000F08B13B5084318BF4FF0FF300146AFF3F1
:100350000080BDE81C40704740EA010310B59B07D0
:100360000FD1042A0DD310C808C9121F9C42F8D01F
:1003700020BA19BA884201D9012010BD4FF0FF30D0
:1003800010BD1AB1D30703D0521C07E0002010BDE6
:1003900010F8013B11F8014B1B1B07D110F8013B72
:1003A00011F8014B1B1B01D1921EF1D1184610BD53
:1003B00040EA0103024630B59B0710D14FF00134EB
:1003C00000E008C208C91D1B9D4315EAC41FF8D0F0
:1003D00013F0FF0102F8011B0DD01B0AF8E711F81A
:1003E000013B002B02F8013B05D011F8013B002B2B
:1003F00002F8013BF3D130BD704770477047754636
:1004000000F02CF8AE4605006946534620F0070080
:10041000854618B020B5FFF715FFBDE820404FF026
:1004200000064FF000074FF000084FF0000BAC46FD
:10043000ACE8C009ACE8C009ACE8C009ACE8C00948
:1004400021F007018D46704710B50446AFF30080D8
:100450002046BDE81040FFF7E0BE000000487047AE
:100460001000002001491820ABBEFEE72600020064
:1004700070470000FEE700007047000072B600BF42
:10048000FEE7000070B5866D044600F049F994F867
:10049000351002292ED105462068216C026822F011
:1004A00016020260426922F08002426109B9A16C21
:1004B00019B1016821F008010160016821F0010112
:1004C00001600068C00708D000F02AF9401B052829
:1004D00018D820680068C007F6D1E06D3F2101FA06
:1004E00000F0B060012084F835000020002184F87D
:1004F000341070BD802060650120002184F8341024
:1005000070BD00BF20206065032084F83500002105
:1005100084F8341070BD000090F83510022909D11C
:10052000052180F835100068016821F001010160A3
:10053000002070478021416501207047B0B5044616
:1005400000F0EEF8054640F20000C2F2000000782C
:10055000611C18BF044400BF00F0E2F8401BA04239
:10056000FAD3B0BD2DE9F04F82B000F13E4241F622
:10057000004502F1FF77C4F2020508224FEAB726D0
:10058000A84208BF0722072E38BF4FEAB7224FF014
:10059000010A002400274FF00008009208E000BF85
:1005A000023708F10108202F04F1040400F0B480A0
:1005B0000E680AFA08F916EA090FF1D0D1F804A07A
:1005C0000AF0030BABF10106012E17D8032286684F
:1005D00002FA07FECA6826EA0E06BA403243826073
:1005E0004268CAF3001522EA090205FA08F54FEA43
:1005F000480C6FEA0E062A4342600BE00322BA4021
:10060000D643BBF1030FBC4604D1BC464FF0030BED
:1006100022E000BFC2688D68324005FA0CF52A431B
:10062000BBF1020FC26017D16FF0030202EA580259
:10063000024404F01C030F25D2F820E005FA03FA67
:100640000D692EEA0A0E05FA03F343EA0E0313625C
:10065000D1F804A00AF0030B02680BFA0CF3324045
:100660001A431AF4403F4FF0010A026098D000226A
:1006700043F644030192C4F202031A6843F6004EA3
:1006800042F480421A601A68C4F2010E02F48042F9
:100690000192019A28F003024FF6084C7244CFF6FB
:1006A000FF7C52F80C3004F00C060F25B540AB432C
:1006B000009D05FA06F6334342F80C30DEF80820B8
:1006C0004B6842EA090643F60C4CDD0258BF22EAA9
:1006D0000906CEF80860C4F2010CDCF800209D0287
:1006E00042EA090658BF22EA0906CCF80060DEF8A3
:1006F00004209D0342EA090658BF22EA0906CEF803
:100700000460DEF80020DB0342EA090658BF22EA53
:100710000906CEF8006043E702B0BDE8F08F0000A4
:1007200040F24010C2F200000068704740F2000042
:1007300040F24011C2F20000C2F2000100780A68E3
:10074000104408607047000080B543F60040C4F2D2
:100750000200016841F400710160016841F48061A8
:100760000160016841F480710160032000F08EF89F
:100770000F2000F005F800F027F8002080BD0000F1
:1007800070B540F20006C2F2000640F2080132786D
:10079000C2F200014FF47A730968B3FBF2F2044627
:1007A000B1FBF2F1084600F04BFB0F2C4FF00105B6
:1007B00008D838B94FF0FF3021460022002500F05C
:1007C00039F87460284670BD80B582B0002043F6C9
:1007D00040010190C4F202014A6842F480424A603A
:1007E0004A6802F480420192019A0090086800224F
:1007F00040F0805008600868002100F080500090B0
:100800000098052000F016F8052002B0BDE88040F1
:10081000AFF30080002848BF704700F01F0101229D
:1008200002FA01F14EF200124009CEF2000242F843
:100830002010704710B54EF60C5CCEF2000CDCF8C0
:100840000030C3F3022E8EF00704042C28BF0424CA
:10085000BEF103034FF0FF3E0EFA04F438BF00234D
:10086000A14399400EFA03F39A43114300F00F029B
:10087000043A624409010C3200F16043B0F1FF3FD9
:10088000C8BF03F56442117010BD00004EF60C5154
:10089000CEF200010A684FF6FF031A4060F30A2205
:1008A00042F0806040F0FD70086070472DE9F04133
:1008B000002800F08B8043F60808C4F202080446C2
:1008C000D8F8F8030D4600F00700884207D288F8F0
:1008D000F853D8F8F80300F00700A84276D1206852
:1008E000810717D5410705D5D8F8001041F4E0512C
:1008F000C8F80010010705D5D8F8001041F4604190
:10090000C8F80010D8F80010A26821F0F0011143D7
:10091000C8F80010C0073FD1D8F8F80300F007006E
:10092000A84207D988F8F853D8F8F80300F0070070
:10093000A8424BD12068410707D5D8F80010E268DB
:1009400021F4E0511143C8F80010000708D5D8F889
:100950000000216920F4604040EAC100C8F80000AE
:1009600000F07CF8D8F8001042F65012C1F30311E1
:10097000C0F60002515C40F2080220FA01F140F298
:100980000400C2F200000068C2F200021160FFF72A
:10099000F7FE0020BDE8F0816068811E022907D2C1
:1009A00058F8081C89015CBF0120BDE8F08111E006
:1009B000012807D158F8081C89035CBF0120BDE855
:1009C000F08107E058F8081C890703D40120BDE82E
:1009D000F08100BFD8F8001021F003010843C8F8E7
:1009E0000000FFF79DFE064641F28837D8F8000068
:1009F000616800F00C00B0EB810F8DD0FFF790FE26
:100A0000801BB842F2D90320BDE8F08140F2080013
:100A100043F60801C2F20000C4F20201006809684E
:100A200042F66012C1F38221C0F60002515CC84058
:100A30007047000040F2080043F60801C2F20000CF
:100A4000C4F202010068096842F66012C1F3423143
:100A5000C0F60002515CC8407047000010B543F674
:100A60000404C4F20204606800F00C0008280BD0F3
:100A7000042819BF42F20040C0F2F40047F64000DB
:100A8000C0F27D1010BD00BF2068216823684902B4
:100A900047F64001C0F27D1100F03F02C3F3881019
:100AA0005CBF42F20041C0F2F401A1FB000100234F
:100AB000FFF7DAFB21680222C1F3014102EB410199
:100AC000B0FBF1F010BD00002DE9F04182B000282C
:100AD0006AD00446007843F60006C007C4F2020656
:100AE0000BD0B06800F00C00042840F0A180306802
:100AF000800302D56068002856D0207880071AD578
:100B0000B06810F00C0F09D0B06800F00C00082895
:100B100040F0A8807068400200F1A480306880072F
:100B200002D5E06801283FD13068216920F0F80043
:100B300040EAC10030602078000739D420784007AF
:100B40004ED4A5695DB3B06800F00C00082840F0F1
:100B5000BD80012D28D07068E16900F480028A42CE
:100B600022D1216A00F03F028A421DD147F6C071AE
:100B7000626A0140B1EB821F16D1A26A0023CFF650
:100B8000FF7303EBC23200F440316FF30F02914266
:100B90000AD1E16A00F07060B0EB016F04D100206F
:100BA00002B0BDE8F08100BF012002B0BDE8F081D5
:100BB0006069002840F20000C4F2472076D001218D
:100BC000C0F8801EFFF7ACFD054600BF706F8007C0
:100BD000B4D4FFF7A5FD401B0228F7D9DDE000BF24
:100BE000306C10F080580AD100200190306C40F039
:100BF00080503064306C00F080500190019847F2D2
:100C00000007C4F200073868C00541D4386840F4D2
:100C100080703860FFF784FD054600BF3868C00566
:100C200036D4FFF77DFD401B0228F7D9B5E000BFA1
:100C3000B06800F00C00082803D1706840023FF54E
:100C400056AF6068B0F5803F07D0B0F5A02F40F0F8
:100C50008D80306840F480203060306840F480300F
:100C600030608DE0E068002852D00020C4F24720B8
:100C700001210160FFF754FD054600BF3068800781
:100C80003FF552AFFFF74CFD401B0228F6D984E038
:100C9000A068012805D005284ED1306F40F004002F
:100CA0003067306F40F0010030674FE00021C0F83E
:100CB000801EFFF735FD0546706F80077FF53EAF5C
:100CC000FFF72EFD401B0228F6D966E00027C4F28C
:100CD000472700203866FFF723FD022D05460BD17C
:100CE000306880015ED5FFF71BFD401B02284FF0E6
:100CF0000300F5D954E700BF306880017FF54FAF9E
:100D0000FFF70EFD401B02284FF00300F4D947E720
:100D10000020C4F2472000210160FFF701FD0546D5
:100D2000306880077FF507AFFFF7FAFC401B022809
:100D30004FF00300F4D933E7316F002821F00101AF
:100D40003167316F21F0040131674DD0FFF7E8FCC6
:100D5000054641F2883700BF306F800756D4FFF751
:100D6000DFFC401BB842F7D917E000BF316800280C
:100D700021F480313160316821F4802131604FD01D
:100D8000FFF7CEFC054600BF306880033FF5B5AEE7
:100D9000FFF7C6FC401B6428F6D9032002B0BDE86B
:100DA000F08100BF04F11C052FCD08430021CFF6D0
:100DB000FF7140EA821001EBC3316FF30F0140EA8B
:100DC00005600843706001203866FFF7A9FC0446FF
:100DD000306880013FF5E3AEFFF7A2FC001B02285C
:100DE0004FF00300F4D9DBE6FFF79AFC054641F229
:100DF000883700BF306F800708D5FFF791FC401B94
:100E0000B8424FF00300F5D9CAE600BFB8F1000FB1
:100E10007FF497AE306C20F08050306491E600BFD4
:100E2000FFF77EFC054600BF306880037FF565AEA6
:100E3000FFF776FC401B64284FF00300F4D9AFE6BF
:100E4000411E0020B0EB116F1CBF012070474EF215
:100E50001002CEF2000251604EF62351CEF2000194
:100E6000F0230B70072190601160704770470000FD
:100E700070470000B0B582B0044600680168C368DE
:100E8000426901F02F05202D03F0200506D12DB178
:100E9000204602B0BDE8B04001F044BC5FEA017CEE
:100EA0001EBF02F0010E03F4907212EB0E0255D138
:100EB000226B012A05D111F0100218BF13F01002A5
:100EC00036D10A0622D513F080021FD094F84110C3
:100ED000212941D1A168B1F5805F03D121690029A1
:100EE00000F08082216A4A1C226209784160E18C0C
:100EF00001390A04E1842FD1C16821F08001C16069
:100F0000C16841F04001C16002B0B0BD490623D5BF
:100F100013F0400120D0C16821F04001C1602021C0
:100F2000204684F8411002B0BDE8B04000F0C6BBD6
:100F30000021019101680191416801910199416984
:100F4000490600F18D80A18DE28DE38D002B1CBF41
:100F5000891A5FEA01420CD102B0B0BDCA0718BFBE
:100F600013F4807240F036814A0700F139813EE186
:100F7000206850E8030F226820F4907042E80303D1
:100F8000DBB1206850E8030F226820F4907042E83B
:100F9000030393B1206850E8030F226820F4907097
:100FA00042E803034BB1206850E8030F226820F4A5
:100FB000907042E80303002BDAD1206850E8050F57
:100FC000226820F0010042E80503DBB1206850E808
:100FD000050F226820F0010042E8050393B1206864
:100FE00050E8050F226820F0010042E805034BB1EC
:100FF000206850E8050F226820F0010042E8050350
:10100000002BDAD1202084F84200002020632068E1
:1010100050E8030F226820F0100042E80303DBB120
:10102000206850E8030F226820F0100042E8030314
:1010300093B1206850E8030F226820F0100042E8C6
:1010400003034BB1206850E8030F226820F0100022
:1010500042E80303002BDAD1022289B2A3E100BFE8
:10106000E26B11684B68A58D99B2002900F092815E
:10107000A94280F08F81E385D169B1F5807F00F0CE
:101080009D8050E8030F216820F4807041E803023E
:10109000E2B1206850E8030F216820F4807041E835
:1010A00003029AB1206850E8030F216820F4807091
:1010B00041E8030252B1206850E8030F216820F490
:1010C000807041E803020AB12068DAE7206850E83E
:1010D000050F216820F0010041E80502BAB320683D
:1010E00050E8050F216820F0010041E8050272B3C5
:1010F000206850E8050F216820F0010041E8050252
:101100002AB3206850E8050F216820F0010041E86B
:101110000502002ADAD11AE0206850E8050F21689C
:1011200020F0400041E80502DAB1206850E8050FE0
:10113000216820F0400041E8050292B1206850E8A3
:10114000050F216820F0400041E805024AB12068FF
:1011500050E8050F216820F0400041E80502002A10
:10116000DAD1202084F8420000202063206850E873
:10117000030F216820F0100041E80302DAB1206873
:1011800050E8030F216820F0100041E8030292B1FB
:10119000206850E8030F216820F0100041E80302A6
:1011A0004AB1206850E8030F216820F0100041E8A0
:1011B0000302002ADAD1E06BFFF764F902206063D2
:1011C000A08DE18D401A81B2204602B0BDE8B0404A
:1011D000FFF74CBE626C42F0010262644A0706D51A
:1011E000BEF1000F03D0626C42F0020262648A0713
:1011F00006D5BEF1000F03D0626C42F004026264B7
:10120000BCF1000F06D555EA0E0203D0626C42F025
:1012100008026264626C002A3FF49EAE11F0200165
:1012200018BF002D03D0204601F07CFA20684169E8
:10123000626C01F0400102F00802891800F0A280FF
:1012400050E8030F216820F4907041E80302C2B314
:10125000206850E8030F216820F4907041E80302F1
:101260007AB3206850E8030F216820F4907041E8B9
:10127000030232B3206850E8030F216820F4907015
:1012800041E80302EAB12068DAE700BF206850E8CD
:10129000050F216820F0010041E80502DAB120685D
:1012A00050E8050F216820F0010041E8050292B1E5
:1012B000206850E8050F216820F0010041E8050290
:1012C0004AB1206850E8050F216820F0010041E88C
:1012D0000502002ADAD1206B012824D1206850E8C9
:1012E000030F216820F0100041E80302DAB1206802
:1012F00050E8030F216820F0100041E8030292B18A
:10130000206850E8030F216820F0100041E8030234
:101310004AB1206850E8030F216820F0100041E82E
:101320000302002ADAD1202084F842000020206342
:101330002068416949064FD550E8050F216820F023
:10134000400041E80502AAB3206850E8050F216873
:1013500020F0400041E8050262B3206850E8050F24
:10136000216820F0400041E805021AB3206850E8E7
:10137000050F216820F0400041E80502D2B1206845
:10138000DAE700BF2046FFF773FD0020606402B07B
:10139000B0BD00BF8D427FF4DFADD069B0F5807F76
:1013A0007FF4DAAD02222046626302B0BDE8B040AD
:1013B000FFF75CBDE06B78B142F21971C0F6000135
:1013C0000165FFF7A9F800283FF4C6ADE06B016D99
:1013D00002B0BDE8B0400847204602B0BDE8B040CA
:1013E000FFF746BD216A31F8022B6FF35F2242609E
:1013F00021627CE5002804BF0120704710B5044637
:1014000090F8410028B9002084F84000204600F000
:1014100021F8242084F841002068C16821F400519B
:10142000C160204601F0FEF92068016921F4904175
:101430000161416921F02A014161C16841F4005113
:10144000C16000202021606484F8411084F84210BB
:10145000606310BD80B586B0016844F60040C4F2F8
:101460000000814202D006B080BD00BF002143F6DB
:1014700030020191C4F20202136900F5DA3043F43C
:1014800000231361136903F400230193019B01916D
:10149000136843F0010313601268022302F0010293
:1014A0000192019ACDE9023108210322059101A997
:1014B00001920492FFF756F8342000210022FFF732
:1014C000B9F93420FFF7A6F906B080BD90F8423094
:1014D000202B1CBF0220704700294FF0010318BFCA
:1014E000002A01D11846704700230363816222213C
:1014F0008285C285436480F842100169006819B191
:10150000C16841F48071C1604169002341F001016B
:101510004161C16841F02001C16018467047000078
:10152000B0B5006844F60041C4F20001884218BF1B
:10153000B0BD40F27004C2F20004254615F8040B59
:1015400000F008FF284621460122BDE8B040FFF721
:10155000BDBF00002DE9F041044690F8410020286D
:101560001CBF0220BDE8F0810F4600294FF00100AA
:1015700000F082801646002A08BFBDE8F0814FF0D7
:10158000000821201D46C4F8448084F84100FFF77C
:10159000C7F8A684E684A1680646B1F5805F05D148
:1015A0002069002814BF3846B8460746E08CC8B109
:1015B000681C19D0002D61D1216807E017F8010BD4
:1015C0004860E08C0138E084E08C68B3086800066D
:1015D0004CD5002FF2D138F8020B00276FF35F20B3
:1015E000EEE700BF21681FE0216802E008680006FE
:1015F00009D40868000606D4086800065CBF0868BD
:101600005FEA0060F2D51FB117F8010B05E000BFDB
:1016100038F8020B00276FF35F204860E08C013838
:10162000E084E08C0028E4D1086840061CD4EDB1C9
:10163000681C0FD10868400616D40868400613D409
:101640000868400610D4086840064FF00000F1D545
:101650000FE000BFFFF764F8801BA84208D820689D
:10166000C16800684006F5D5002002E0FFF758F891
:101670000320202184F84110BDE8F081216800BFDB
:101680000868000608D4FFF74BF8801BA842EFD883
:101690002168C868F4E700BF17B117F8010B04E030
:1016A00038F8020B00276FF35F204860E08C0138A8
:1016B000E084E08C0028E3D1B6E70000704700002A
:1016C000FEE7000083B0002043F630010290C4F230
:1016D00002010A6842F004020A600A6802F0040289
:1016E0000292029A01900A6842F080020A600A6837
:1016F00002F080020192019A0090086840F0010017
:101700000860086800F001000090009803B070477E
:1017100080B540F2700044F60041C2F20000C4F20D
:10172000000140F8041F4FF4E13100220C23C0E90E
:101730000112C0E90322C0E90532C261FFF75AFE77
:10174000002808BF80BDBDE88040FEF797BE0000BE
:10175000FEE70000FEE70000704700007047000051
:101760007047000080B54FF4FA60FEF7E7FE42F6DE
:101770003B2042F63521C0F60000C0F6000100F023
:1017800017FEBDE8804001F0BFB8000010B590B072
:1017900040F2BC00C2F200000178002900F0D784BA
:1017A000002140F200130170C2F2000318788DF896
:1017B00000103A288DF810108DF820108DF8301098
:1017C00000F0A48000284FF0000200F098829E46AE
:1017D0001EF8014F0122002C8DF8300000F08F829E
:1017E0003A2C00F091809E461EF8020F022200283B
:1017F0008DF8314000F083823A2800F085809E46C3
:101800001EF8034F0322002C8DF8320000F077827F
:101810003A2C79D09E461EF8040F042200288DF839
:10182000334000F06C823A286ED09E461EF8054F79
:101830000522002C8DF8340000F061823A2C63D030
:101840009E461EF8060F062200288DF8354000F04F
:1018500056823A2858D09E461EF8074F0722002C81
:101860008DF8360000F04B823A2C4DD09E461EF883
:10187000080F082200288DF8374000F040823A28EF
:1018800042D09E461EF8094F0922002C8DF83800E0
:1018900000F035823A2C37D09E461EF80A0F0A22F5
:1018A00000288DF8394000F02A823A282CD09E4634
:1018B0001EF80B4F0B22002C8DF83A0000F01F820F
:1018C0003A2C21D09E461EF80C0F0C2200288DF8D1
:1018D0003B4000F014823A2816D09E461EF80D4F69
:1018E0000D22002C8DF83C0000F009823A2C0BD020
:1018F0009E461EF80E0F0E2200288DF83D4000F087
:10190000FE813A2840F0F2813A2002E03A2000229B
:101910009E460CAB3A28995440F00082734613F867
:10192000010F28B13A2805D100208DF8200023E0CE
:101930000022EFE1714611F8024F0122002C8DF8D0
:10194000200000F0E7813A2C02D13A2019460CE041
:10195000734613F8030F022200288DF8214000F08F
:10196000D9813A2840F01A813A2008AB00243A285D
:101970008E469C5440F0D281714611F8020F4FF010
:10198000000C3A2800F0A48000284FF0000300F07B
:101990007E84714611F8032F0123002A8DF8100070
:1019A00000F075843A2A00F09180714611F8040F16
:1019B000022300288DF8112000F069843A2800F0F5
:1019C0008580714611F8052F0323002A8DF8120037
:1019D00000F05D843A2A79D0714611F8060F04238D
:1019E00000288DF8132000F052843A286ED07146FA
:1019F00011F8072F0523002A8DF8140000F0478402
:101A00003A2A63D0714611F8080F062300288DF892
:101A1000152000F03C843A2858D0714611F8092F5F
:101A20000723002A8DF8160000F031843A2A4DD0A1
:101A3000714611F80A0F082300288DF8172000F0CE
:101A400026843A2842D0714611F80B2F0923002A28
:101A50008DF8180000F01B843A2A37D0714611F82F
:101A60000C0F0A2300288DF8192000F010843A2862
:101A70002CD0714611F80D2F0B23002A8DF81A0077
:101A800000F005843A2A21D0714611F80E0F0C237C
:101A900000288DF81B2000F0FA833A2816D07146F2
:101AA00011F80F2F0D23002A8DF81C0000F0EF8392
:101AB0003A2A0BD0714611F8100F0E2300288DF82A
:101AC0001D2000F0E4833A2840F0D8833A2201E058
:101AD0003A22002304A83A2A00F803C040F01E81ED
:101AE0004878002858D08A788DF80000002A00F045
:101AF000E180C8788DF80120002800F0DD800A79A7
:101B00008DF80200002A00F0D98048798DF8032072
:101B1000002800F0D5808A798DF80400002A00F0B2
:101B2000D180C8798DF80520002800F0CD800A7A90
:101B30008DF80600002A00F0C980487A8DF8072049
:101B4000002800F0C5808A7A8DF80800002A00F08D
:101B5000C180C87A8DF80920002800F0BD800A7B7A
:101B60008DF80A00002A00F0B980487B8DF80B2020
:101B7000002800F0B5808A7B8DF80C00002A00F068
:101B8000B180C87B8DF80D2000281ABF8DF80E009B
:101B90000F200E20A7E000BF0020A4E0714611F83E
:101BA000044F0322002C8DF8220000F0B3803A2C61
:101BB0003FF4CBAE734613F8050F042200288DF8CE
:101BC000234000F0A7803A283FF4CEAE714611F8CA
:101BD000064F0522002C8DF8240000F09B803A2C43
:101BE0003FF4B3AE734613F8070F062200288DF8B2
:101BF000254000F08F803A283FF4B6AE714611F8C8
:101C0000084F0722002C8DF8260000F083803A2C24
:101C10003FF49BAE734613F8090F082200288DF895
:101C2000274000F077803A283FF49EAE714611F8C5
:101C30000A4F0922002C8DF828006BD03A2C3FF473
:101C400084AE734613F80B0F0A2200288DF8294042
:101C500060D03A283FF488AE714611F80C4F0B2241
:101C6000002C8DF82A0055D03A2C3FF46EAE734606
:101C700013F80D0F0C2200288DF82B404AD03A287B
:101C80003FF472AEF4461CF80E4F0D22002C8DF876
:101C90002C003FD03A2C3FF458AE714611F80F3F5C
:101CA0000E22002B8DF82D4034D03A2B2AD13A2029
:101CB00061465AE6012016E0022014E0032012E0FB
:101CC000042010E005200EE006200CE007200AE0CA
:101CD000082008E0092006E00A2004E00B2002E0CA
:101CE0000C2000E00D206946084415E08DF83E0008
:101CF00013F80F0F0F2200289E467FF40AAE0CA89F
:101D000009E000BF9EF810000F2200288DF82E3049
:101D10007FF42BAE08A81044002101700FF274511B
:101D20000CA80522FEF718FB40B90FF2705108A865
:101D30000522FEF711FB002800F00C820C9844F2FB
:101D40004311C0F24C01441A18BF012488420AD141
:101D500042F6B411C0F6000108A80522FEF7FCFA0D
:101D6000002800F007820FF23C510CA80522FEF774
:101D7000F3FA002800F0D68044B90FF2305108A8D9
:101D80000622FEF7E9FA002800F00C8242F6AA11BA
:101D9000C0F600010CA80522FEF7DEFA002800F0CC
:101DA000EF8042F69211C0F600010CA80722FEF760
:101DB000D3FA002840F0CB8142F65320C0F6000051
:101DC00000F0CEFB4FF4FA70FEF7B8FB42F63B2072
:101DD00042F6A211C0F60000C0F6000100F0E8FAD9
:101DE00042F6AF11C0F6000108A80522FEF7B4FACA
:101DF00030BB6420FEF7A2FB42F65720C0F600007D
:101E000000F0AEFB4FF4FA70FEF798FB42F640206C
:101E1000C0F600000FF29C4100F0CAFA42F66810CA
:101E200042F64721C0F60000C0F6000100F0C0FAFB
:101E300042F66B10C0F600000FF2844100F0B8FAD1
:101E4000089844F24C51C0F24E0188421ED16420E1
:101E5000FEF774FB42F65720C0F6000000F080FB4E
:101E60004FF4FA70FEF76AFB42F64020C0F600001D
:101E70000FF25C4100F09CFA42F6681042F64721EE
:101E8000C0F60000C0F6000100F092FA0FF24841DF
:101E900008A80622FEF760FAA0B96420FEF74EFB00
:101EA00042F65720C0F6000000F05AFB4FF4FA70DB
:101EB000FEF744FB42F64020C0F600000FF220413E
:101EC00000F076FA089844F64C71C0F2430188425B
:101ED00040F03D816420FEF731FB42F65720C0F60A
:101EE000000000F03DFB4FF4FA70FEF727FB42F6CE
:101EF0004020C0F600000FF2F43100F059FA42F62B
:101F00006810C0F600000FF2F03100F051FA42F60E
:101F10006B10C0F600000FF2EC3100F049FA10B07F
:101F200010BD00BF42F6B411C0F6000108A805229A
:101F3000FEF712FA002800F0298142F6AA11C0F635
:101F4000000108A80522FEF707FA002800F06681C4
:101F500042F69211C0F6000108A80722FEF7FCF92C
:101F600000287FF409AF42F63B2042F60E21C0F66E
:101F70000000C0F6000100F01BFA10B010BD00BF59
:101F800042F65320C0F6000000F0EAFA4FF4FA706F
:101F9000FEF7D4FA42F63B2042F6A211C0F600004A
:101FA000C0F6000100F004FA42F6AF11C0F60001DD
:101FB00008A80522FEF7D0F9C8BBC820FEF7BEFA74
:101FC00042F65720C0F6000000F0CAFA4FF4FA704B
:101FD000FEF7B4FA42F64020C0F60000CCA100F0B3
:101FE000E7F942F66810C0F60000CCA100F0E0F975
:101FF00042F66B1042F6CD11C0F60000C0F60001AB
:1020000000F0D6F942F66E10C0F60000C6A100F04E
:10201000CFF942F67110C0F60000C8A100F0C8F96F
:1020200042F67411CAA0C0F6000100F0C1F942F6F0
:10203000C511C0F6000108A80822FEF78DF9B0B955
:102040006420FEF77BFA42F65720C0F6000000F04D
:1020500087FA4FF4FA70FEF771FA42F6402042F622
:10206000C511C0F60000C0F6000100F0A1F942F66B
:102070008011C0F6000108A80722FEF76DF9B0B97B
:102080006420FEF75BFA42F65720C0F6000000F02D
:1020900067FA4FF4FA70FEF751FA42F6402042F622
:1020A000CD11C0F60000C0F6000100F081F90898DB
:1020B00044F25251C0F2530188423ED16420FEF7EF
:1020C0003DFA42F65720C0F6000000F049FA4FF4FE
:1020D000FA70FEF733FA42F6402042F68711C0F656
:1020E0000000C0F6000100F063F942F6681042F605
:1020F000D911C0F60000C0F6000100F059F942F60F
:102100006B1042F6F111C0F60000C0F6000100F0BD
:102110004FF942F66E1042F6E511C0F60000C0F627
:10212000000100F045F942F6711042F6FD11C0F6CB
:102130000000C0F6000100F03BF942F60921C0F6AC
:10214000000108A80522FEF707F9002872D010B098
:1021500010BD00BF4FF4FA70FEF7F0F942F63B20D5
:1021600042F63521C0F60000C0F6000100F020F96B
:1021700010B010BD42F63B2042F61B21C0F6000015
:10218000C0F6000100F014F910B010BD42F63B207B
:1021900042F63021C0F60000C0F6000100F008F958
:1021A00010B010BD42F65320C0F6000000F0D8F980
:1021B0004FF4FA70FEF7C2F942F63B2042F6A21144
:1021C000C0F60000C0F6000100F0F2F86420FEF74F
:1021D000B5F942F65720C0F6000000F0C1F94FF4FF
:1021E000FA70FEF7ABF942F6402042F69911C0F6BC
:1021F0000000C0F6000100F0DBF842F66810C0F6FF
:10220000000004A900F0D4F842F66B10C0F60000FC
:10221000694600F0CDF810B010BD00BF42F63B207B
:1022200042F62521C0F60000C0F6000100F0C0F81B
:1022300010B010BD6420FEF781F942F65720C0F6B9
:10224000000000F08DF94FF4FA70FEF777F942F6CE
:10225000402042F6B911C0F60000C0F6000100F0BF
:10226000A7F842F6681042F67411C0F60000C0F6F6
:10227000000100F09DF810B010BD00BF1EF8112F36
:102280000F23002A71468DF81E007FF423AC04A8AA
:10229000184441E5484F4D45000000004241434B82
:1022A00000000000544553540000000053544152B4
:1022B0005400000053494E474C455F46554C4C0076
:1022C00053484F52543A4E4F5F53484F52540000B8
:1022D0004C454E475448000053484F5254000000AC
:1022E0004E4F5F53484F52540000000053484F5226
:1022F000545F4C4F4300000053484F5254405041EC
:1023000049523200444953543D33322E356D00005A
:102310004455414C5F46554C4C00000057495245CE
:102320004D41503A4F4B000052313D31322E335225
:102330002052323D31322E355200000052333D31B1
:10234000322E34522052343D31322E3652000000AB
:102350007434000010B5FF280ED040F2BC01C2F268
:1023600000014A8800233E2A4B7088BF10BD531CD1
:102370004B801144087110BD40F2BC04C2F200044D
:1023800060780130C1B203296070F4D3608850B125
:10239000211D00220A5440F20010C2F20000FEF794
:1023A00007F80120207000206080607010BD0000E0
:1023B0002DE9F0419AB08C46002301A9C25C002AA5
:1023C00061D0C4186778CA54D7B3A678CA185770B2
:1023D000C6B3E7789670BFB32679D770B6B367797E
:1023E0001671AFB3A6795771A6B3E77996719FB30B
:1023F000267AD77196B3677A16728FB3A67A577218
:1024000086B3E77A96727FB3267BD77276B3677B03
:1024100016736FB3A67B577366B3E77B96735FB390
:10242000267CD77356B3657C16744DB3A77C557460
:1024300047B313334C2B9774C0D14C2323E000BF18
:10244000013320E002331EE003331CE004331AE0C2
:10245000053318E0063316E0073314E0083312E0C2
:10246000093310E00A330EE00B330CE00C330AE0C2
:102470000D3308E00E3306E00F3304E0103302E0C2
:10248000113300E012332E2298B2CA5411FA83F2AB
:1024900047F674070633C3F674574FF0220E5428DC
:1024A0001FFA83F8C2F8017082F805E03CD8A8F161
:1024B0000604081900231CF80370DFB1E618C518DC
:1024C000542EAF7118D00CEB03077A78C2B1532E9B
:1024D000EA7119D0BA78DAB1522E2A721CD0FE787D
:1024E000F6B10433E218552A6E72E4D15B234FF043
:1024F0005B0819E0434416E05B234FF05B0813E0F0
:1025000008EB0300431C0EE05B234FF05B080BE07D
:1025100008EB0300831C06E05B234FF05B0803E03D
:1025200008EB0300C31C984640F27404581C4FF09B
:10253000FF32C2F200048DF86620ADF8642082B24A
:102540002046C82301F808E0FFF704F819A920463F
:102550000322C823FEF7FEFF1AB0BDE8F081000099
:1025600010B588B046F27011C6F26751019101783A
:1025700020228DF80820C9B342788DF80910BAB32B
:1025800081788DF80A20A9B3C2788DF80B109AB320
:1025900001798DF80C2089B342798DF80D107AB34A
:1025A00081798DF80E2069B3C2798DF80F105AB376
:1025B000017A8DF8102049B3427A8DF811103AB3A0
:1025C000817A8DF8122029B3C27A8DF813101AB3CC
:1025D000017B8DF8142009B3407B8DF8151000287D
:1025E0001ABF8DF816001322122218E0052216E0F9
:1025F000062214E0072212E0082210E009220EE071
:102600000A220CE00B220AE00C2208E00D2206E070
:102610000E2204E00F2202E0102200E0112240F21C
:1026200074044FF0FF30C2F200048DF81E00ADF8C4
:102630001C0001A92046C823FEF78CFF07A92046ED
:102640000322C823FEF786FF08B010BDFEF76EB860
:10265000B0B592B0002443F640000B94CDE9094494
:10266000CDE907440594CDE90344CDE90144009444
:10267000C4F202000168022541F080510160006847
:1026800000F080500090009847F200000094C4F2DF
:102690000000016841F480410160006800F480405E
:1026A000009000980120099010200A9008200E90B8
:1026B000A820CDE90F050420119006A80695CDE9C4
:1026C0000C54FEF701FA18B172B600BFFEE700BF66
:1026D0000F20CDE901054FF4A05004904FF4805035
:1026E000059001A805210394FEF7E0F810B172B639
:1026F000FEE700BF12B0B0BD4EF68850CEF200002B
:10270000016841F4700101607047000040F27400FC
:10271000C2F20000FEF7AEBB806B0021C185FEF760
:10272000A7BB000081B090F84210222920D1836815
:10273000B3F5805F08D10169002965D000F1280157
:102740000A6803685B680AE0014651F8282F13B94C
:102750000369002BF5D003685B6803F07F031370F7
:102760000A6801320A60C18D01390A04C18501D0AD
:1027700001B070470168CA6822F02002CA60CA68C6
:1027800022F48072CA604A6922F001024A61202262
:1027900080F8422000224263036B012B3ED102638A
:1027A00051E8031F026821F0100142E80313016899
:1027B000DBB151E8031F026821F0100142E8031366
:1027C000016893B151E8031F026821F0100142E84B
:1027D000031301684BB151E8031F026821F0100197
:1027E00042E803130168002BDAD10A68D20606D545
:1027F000002200920A680092496800910099818D38
:1028000001B0FEF733BB00BF0168826A49686FF30D
:102810005F2122F8021B8262A5E700BF01B0FEF72C
:102820007FBE000010B504460068D4E902C22369E7
:10283000016921F4405111430161626943EA0C01CD
:10284000E3691143C268194349F20C639A43114387
:10285000C1604169A26921F4407141F20043114312
:1028600040F48062C4F201039A42416102D1FEF752
:10287000E1F801E0FEF7CAF8E16963681922B1F5F1
:10288000004FA0FB02011FD15A00DB0FFDF7ECFC4B
:1028900048F21F51C5F2EB11A0FB01235A096FF05A
:1028A000630302FB0300322303EBC000A0FB010122
:1028B0004FF4F87000EA111000EB0210C1F342115E
:1028C00008442168886010BD9A009B0FFDF7CCFC7E
:1028D00048F21F51C5F2EB11A0FB01235A096FF01A
:1028E000630302FB0300322303EB0010A0FB010192
:1028F000F02000EA511000EB0210C1F3431108442C
:102900002168886010BD000040F27001C2F2000131
:10291000081D0122FEF7DABDFEE70000FDF714FFF7
:10292000FFF796FEFEF7CEFEFEF7F2FEFEF71AFF69
:10293000FEF72CFFFCE7F1EE100A4FF6FF71C0F234
:10294000C03120EA010040F04070E1EE100A70470B
:10295000000000000000000001020304060708094F
:10296000000000000102030474300074310074326E
:10297000007433004C4F53533D2D332E32644200CC
:10298000534849454C4400524553495354414E43E2
:10299000450053494E474C450043414C5F444F4E20
:1029A000450052554E4E494E47004455414C004655
:1029B000554C4C004F50454E00415454454E5541E6
:1029C00054494F4E00574952454D415000534849D4
:1029D000454C443A534654500050414952313D31E0
:1029E000322E33520050414952333D31322E34524F
:1029F0000050414952323D31322E3552005041494A
:102A000052343D31322E3652004C4F53530053490D
:102A10004E474C455F52454144590043414C5F523B
:102A200045414459004455414C5F52454144590089
:102A3000544553545F5245414459007473746100C6
:102A4000747469746C65004C454E4754483D313090
:102A5000356D0072756E00726573756C74000000E0
:102A6000802A00080000002010000000C4010008B7
:102A7000902A00081000002038070000E00100083C
:102A800001000000100000000024F400000000001D
:040000050800018965
:00000001FF
