:020000040800F2
:10000000F0910120D502000831770008516F0008F7
:100010002D770008C5180008599F0008000000004F
:100020000000000000000000000000003D77000814
:10003000D52700080000000035770008E98B00088C
:10004000EF020008EF020008EF020008EF020008CC
:10005000EF02000839770008EF020008EF020008FD
:10006000EF020008EF020008EF020008EF020008AC
:10007000EF020008EF020008EF020008A1270008C5
:10008000AD270008EF020008EF020008EF020008A9
:10009000EF020008EF020008EF020008EF0200087C
:1000A000EF020008A98C0008EF020008EF02000828
:1000B000EF020008EF020008EF020008EF0200085C
:1000C000EF020008EF020008EF020008EF0200084C
:1000D000EF0200084D9F0008EF020008EF02000841
:1000E000EF020008EF020008EF020008EF0200082C
:1000F000EF020008EF020008EF020008EF0200081C
:10010000EF020008EF020008B58C0008EF020008BB
:10011000058E0008118E0008EF020008EF020008AB
:10012000B9270008EF020008EF020008EF020008FC
:10013000EF020008EF020008EF020008EF020008DB
:10014000EF020008EF020008EF020008EF020008CB
:10015000C5270008EF020008EF020008EF020008C0
:10016000EF020008EF020008EF020008EF020008AB
:10017000EF020008EF020008EF0200080000000094
:10018000EF020008EF02000800F002F800F092F819
:100190000AA090E8000C82448344AAF10107DA45E2
:1001A00001D100F087F8AFF2090EBAE80F0013F0A2
:1001B000010F18BFFB1A43F0010318471CD20000BF
:1001C0005CD20000103A24BF78C878C1FAD8520730
:1001D00024BF30C830C144BF04680C6070470000C1
:1001E0000023002400250026103A28BF78C1FBD840
:1001F000520728BF30C148BF0B6070476E2900F01E
:100200008D85702900F0AF8266290CF0BE866529C5
:100210000CF0BB8667290CF0B88661290CF0B78614
:1002200003681B0A28BF41F08001692900F08A8118
:10023000642900F08781752900F084816F2900F01E
:100240003D82782900F07B82E92900F0C785E42906
:1002500000F0C485F52900F0C185EF2900F03A824D
:10026000F82900F07A820368DB0928BF41F0800199
:10027000632900F09185732900F09685E32900F049
:10028000A185F32900F0A685002070471FB50CF06A
:100290006AFE00F03BFE0400002000210CF03CFA56
:1002A000401C6060002000210CF04CFAE0601FBD93
:1002B00010B510BD01F000FA1146FFF7E7FF0AF094
:1002C00047FE01F0D1FA03B4FFF7F2FF03BC01F0DF
:1002D000D5FA00000948804709480047FEE7FEE7D5
:1002E000FEE7FEE7FEE7FEE7FEE7FEE7FEE7FEE7E6
:1002F00004480549054A064B70470000958C0008E4
:1003000089010008E8CF0120F0910120E8D1012007
:10031000F08D012053EA020C00F069802DE9F04BCA
:100320004FF00006002B1FBFB3FA83F503FA05F464
:1003300024FA05F65E4012BF1643B2FA82F502FABD
:1003400005F4C5F120051EBF22FA05FC44EA0C04A1
:10035000203556EA044C4FEA144418BF641C4FF091
:1003600000084FF00009904271EB030C39D30029CB
:1003700019BFB1FA81F701FA07F6B0FA80F700FA6F
:1003800007F6C7F120071EBF20FA07FC46EA0C0655
:100390002037B6FBF4FCA7EB0507103F07F01F0B57
:1003A000CBF120062CFA06F60CFA0BFB44BFB34641
:1003B0000026202FA4BF5E464FF0000B5BEA060C20
:1003C00008BF4FF0010B19EB0B0948EB0608ABFB1C
:1003D000027C06FB02CC0BFB03CCC01B71EB0C01B7
:1003E000C1E70B46024641464846BDE8F08B13B5CF
:1003F000084318BF4FF0FF300146AFF30080BDE85F
:100400001C4070477CB51D4616460C00009007D076
:100410004142A14202D32044401E01E04FF0FF3090
:10042000064B7B442A4669460190304600F08FFC1B
:10043000002C02D0009A002111707CBD4F090000F1
:100440000FB41CB50C0007AA009007D04142A1428E
:1004500002D32044401E01E04FF0FF30074B7B44A5
:1004600069460190069800F072FC0021002C01D032
:10047000009A11701CBC5DF814FB00001309000009
:1004800070B5044685690068C10601D5302600E0D4
:100490002026C00707D070BDD4E90121304690471F
:1004A000206A401C20626D1EF6D570BD70B50446F2
:1004B00085690078C00707D170BDD4E901212020EB
:1004C0009047206A401C20626D1EF6D570BD0968F9
:1004D0004A0501D540B27047C905FCD500B2704746
:1004E00009684A0501D5C0B27047C905FCD580B27C
:1004F000704770B50C460546012A05D0287880065D
:1005000000D5EA69002302E0012305E05B1C934269
:1005100002D2E05C0028F9D1A869E618C01AA861E7
:10052000286A184428622846FFF7AAFF04E0D5E9A4
:10053000012114F8010B9047B442F8D32846FFF785
:10054000B5FF70BD2DE9F0410646002410687529FD
:10055000314616A510D0FFF7BAFF002802DA404254
:1005600013A507E031688A0701D512A502E0490703
:1005700004D511A5012401E0FFF7B2FF00210A22F2
:1005800006F1240709E0B0FBF2FCB0FBF2F302FB3A
:100590001C00303078541846491C0028F3D12346FB
:1005A0002A463046BDE8F04100F05FBB0000000085
:1005B0002D0000002B000000200000002DE9FF5F4F
:1005C00015468A460446DFF8AC80F8440027D8E98F
:1005D00000103E46CDE9001010E03AF816106A46C9
:1005E00002A800F039FC411C07D02178890603D508
:1005F000E269391891420DD80744761C20788006AC
:1006000002D5E069B84205DDAE42E6DB3AF81600F5
:100610000028E2D1A069C01BA0612046FFF730FF8F
:10062000D8E90010CDE90010002017E03AF81810C2
:100630006A4602A800F010FCB0F1FF3F81460BD0E3
:1006400000250DF1080B05E0D4E901211BF8050098
:1006500090476D1C4D45F7D308F10100B04280462C
:10066000E4DB206A384420622046FFF71FFFBDE824
:10067000FF9F0000C6C9000030B4002100F124042F
:1006800008E002F00705D208303542EA4372DB0881
:100690006554491C52EA0305F3D10468002310A2F3
:1006A000250708D504F020040C4304D0C4690123B5
:1006B0000CA2641EC46130BC00F0D7BA10B5044669
:1006C00021461068FFF70CFF02462046BDE81040A7
:1006D0000023D1E7D21D22F00701D1E90023CBE7A7
:1006E0000000000030000000F0B40D46018809054C
:1006F00002D5214C7C4402E01F4C7C440E34002186
:1007000000F1240608E002F00F071209E75D42EA53
:1007100003721B097754491C52EA0307F3D102788C
:100720000023120704D5702D06D009B1022311341D
:100730002246F0BC00F099BA01231034F8E770B5F6
:1007400004460D4621461068FFF7CAFE02462946B8
:100750002046BDE870400023C6E7D21D22F0070303
:10076000D3E90023C0E70368126843F02003036065
:100770000823C3610023B7E7A4C800002DE9F05F98
:10078000894604464FF0000ADFF874B1FB44C0F814
:1007900020A02046E1688847002874D0252806D08C
:1007A000D4E901219047206A401C2062F1E700262D
:1007B0005F462046E16888472028054607DB312D43
:1007C00005D2781910F8200C08B10643F1E7B007FC
:1007D00001D526F00406C4F81CA00027C4F818A010
:1007E0002A2D09D028460BF08FFF38B304EB870879
:1007F000303DC8F8185019E059F8041B204604EBA6
:1008000087029161E1688847012F054618D1E069A8
:10081000002820DA26F020061DE0D8F8180000EBAA
:10082000800005EB40003038C8F818002046E16829
:10083000884705460BF068FF0028EED1012F0AD04B
:100840002E2D08D12046E16888477F1C0546022FDF
:1008500046F02006C4DBA069002803DA404246F0D7
:100860000106A061F00701D026F010066C2D0BD018
:10087000682D09D04C2D39D06A2D35D0742D35D046
:100880007A2D33D016E038E0E1682F4620468847BD
:10089000B842054609D16C2F26D04FF48060E1683C
:1008A000064320468847054604E06C2F1AD04FF4D3
:1008B000807006430DB3A5F14100192802D82035F8
:1008C00046F400664A462946204626604E46FFF713
:1008D00095FC80B101280BD0F61D26F0070000F131
:1008E000080956E74020E4E78020D8E70020D6E753
:1008F00006F104094DE7284652E7206ABDE8F09F5B
:1009000034C8000040EA010310B59B070FD1042A48
:100910000DD310C808C9121F9C42F8D020BA19BACA
:10092000884201D9012010BD4FF0FF3010BD1AB12F
:10093000D30703D0521C07E0002010BD10F8013B84
:1009400011F8014B1B1B07D110F8013B11F8014BAB
:100950001B1B01D1921EF1D1184610BD40EA0103C4
:10096000024630B59B0710D14FF0013400E008C2B9
:1009700008C91D1B9D4315EAC41FF8D013F0FF01E1
:1009800002F8011B0DD01B0AF8E711F8013B002B00
:1009900002F8013B05D011F8013B002B02F8013BA6
:1009A000F3D130BD10B5431C02E010F8011B71B14A
:1009B0008107FAD14FF0013202C88C1A8C4314EA35
:1009C000C211F9D0C01A0A0603D0C01E10BDC01A49
:1009D00010BD0A0401D0801E10BD0902FCD0401ECB
:1009E00010BD40EA010370B59B072ED14FF00136D0
:1009F000042A2AD308C810C99D1B9D43121F15EA5B
:100A0000C61517D0D8B2E1B2401A50EA056110D12C
:100A100098B2A1B2401A50EA05410AD123F07F40B2
:100A200024F07F41401A50EA052102D1180EA0EBB4
:100A3000146070BDA342DBD018BA21BA884201D934
:100A4000012070BD4FF0FF3070BD0AB9002070BDAD
:100A500010F8013B11F8014B63B1A3420AD1521EB9
:100A600008D010F8013B11F8014B1BB1A34201D192
:100A7000521EEDD1181B70BD032A40F2308010F0D9
:100A8000030C00F0158011F8013BBCF1020F624429
:100A900098BF11F801CB00F8013B38BF11F8013BBA
:100AA000A2F1040298BF00F801CB38BF00F8013B67
:100AB00011F0030300F0F481083AC0F0088051F807
:100AC000043B083A51F804CBA0E80810F5E7121DE2
:100AD0005CBF51F8043B40F8043BAFF30080D20701
:100AE00024BF11F8013B11F801CB48BF11F8012BCD
:100AF00024BF00F8013B00F801CB48BF00F8012BF0
:100B0000704702F0FF0343EA032242EA024200F088
:100B10000AB802F0FF0343EA032242EA024200F06D
:100B200024B84FF000020429C0F0128010F0030C2A
:100B300000F01B80CCF1040CBCF1020F18BF00F8D0
:100B4000012BA8BF20F8022BA1EB0C0100F00DB87F
:100B50005FEAC17C24BF00F8012B00F8012B48BFDD
:100B600000F8012B70474FF0000200B51346944681
:100B70009646203922BFA0E80C50A0E80C50B1F1F5
:100B80002001BFF4F7AF090728BFA0E80C5048BF09
:100B90000CC05DF804EB890028BF40F8042B08BFA7
:100BA000704748BF20F8022B11F0804F18BF00F8A3
:100BB000012B70470000000030B44FF0013C50F8AA
:100BC000042B51F8043BCCFA52F4D51A20D1FCB9CD
:100BD00050F8042B51F8043BCCFA52F4D51A17D133
:100BE000B4B950F8042B51F8043BCCFA52F4D51A9E
:100BF0000ED16CB950F8042B51F8043BCCFA52F4E6
:100C0000D51A05D1002CDAD030BC4FF00000704767
:100C100029BAB1FA81F111F01801D1F12000844014
:100C2000F2D1CA40CB4012F0FF0213F0FF0330BCF8
:100C3000D01A7047704770477047000010B500F039
:100C400065F9001D10BD00BFD1BA00000048704713
:100C500008C0012010B5FFF7F9FF006810BD10B5FE
:100C60000446FFF7F3FF046010BD2DE9F0470D4681
:100C700099469246044600F124080168880604D586
:100C8000E06921F01001216000E00120A84201DDAF
:100C9000471B00E00027A1697A1902EB0900081A36
:100CA000A0612078C00602D42046FFF7E9FB0026A9
:100CB00008E0D4E901211AF806009047206A401C98
:100CC000761C20624E45F4DB2078C0060AD520460B
:100CD000FFF7D6FB06E0D4E9012130209047206AD7
:100CE000401C2062381EA7F10107F4DC07E0D4E9BC
:100CF000012118F805009047206A401C2062281E38
:100D0000A5F10105F3DC2046FFF7D0FB20780006B3
:100D100002D50220BDE8F0870120FBE711680268D8
:100D2000006A530501D508700AE0D30501D5088093
:100D300006E0130603D5C217C1E9000200E008600F
:100D40000120704701694A1C02610878704700B5AC
:100D50008FB0CDE901310021059105497944CDE9F4
:100D6000031011466846FFF709FD0FB000BD0000F3
:100D7000E5FFFFFFD1E900239A4202D2531C0B602A
:100D80001070704710B5436913B1AFF3008001E0F4
:100D9000FFF7AFFB012010BD127800F124010A70AB
:100DA00000224A700122EDE711684FF0FF32E9E7B7
:100DB00010B5436913B1AFF3008001E0FFF7FEFB0C
:100DC000012010BD128800F1240182840022C28417
:100DD0000122EDE711684FF0FF32E9E72DE9F0411C
:100DE0008046D21D22F007020025D2E90002F52933
:100DF00015A614D0011E72F1000106DA0023D0EB13
:100E0000030063EB020211A608E0D8F800108B077C
:100E100001D50FA602E0490701D50EA6012511460E
:100E2000002408F1240704E000F074F830323A5549
:100E3000641C50EA0102F7D12B4632462146404657
:100E4000BDE8F041FFF711BF000000002D000000D9
:100E50002B000000200000002DE9F04116460C4652
:100E60000546FFF7EBFE036893F80101012807D060
:100E7000FF2C12D8185D80B101202C70BDE8F081E4
:100E8000D3F807013246214603F20713C718284654
:100E9000BC46BDE8F041002360474FF0FF30EDE76E
:100EA00010B5203AC0F00B80B1E81850A0E81850F7
:100EB000B1E81850A0E81850203ABFF4F5AF5FEA47
:100EC000027C24BFB1E81850A0E8185044BF18C9EC
:100ED00018C0BDE810405FEA827C24BF51F8043B93
:100EE00040F8043B08BF7047D20728BF31F8023BE7
:100EF00048BF11F8012B28BF20F8023B48BF00F87B
:100F0000012B70470048704708C001200048704717
:100F100028C0012030B5B0F10A0271F100034FEA98
:100F2000900E4EEA817EB0EB0E0061EB91014FEA2C
:100F3000101E4EEA017E10EB0E0041EB11114FEA3C
:100F4000102E4EEA016E10EB0E0041EB11214FEA1C
:100F5000104E4EEA014E10EB0E0041EB11414018CD
:100F600041F100014FEAD00040EA41704FEAD1015F
:100F70004FEA810444EA907410EB800544EB0104CD
:100F80006D1944EB0404521BA3414FF0000348BF0A
:100F90000A3200D530BD401C41F1000130BD2DE9C1
:100FA000FF4F0C461E464FF0FF378BB0D2E90001D1
:100FB000DDF860800A908A46C1F30A5505B93D46BE
:100FC000002108464FF00000BAF1000F00F4400085
:100FD00005DA00EB80004FF4400101EA50004FEACF
:100FE0009059B9F1010F00DDB9460A9850EA4A005C
:100FF0000ED044F61050A5F2FF3545432F14B8F13A
:10100000000F1ED07542291E1EDDC9F100021CE032
:10101000B8F1010F4FF0000001D0302103E0F2439E
:1010200005E02154401CB042FBDB30460022002189
:1010300021540B99C1F80880C1E900200FB0BDE828
:10104000F08FBD1B6D1CDEE74A4600DA694206A838
:1010500000F098FB06AB93E8070003AB83E80700BA
:1010600050460A990AF00EFC8DE80700A0F50050E2
:101070001F3800900398002D0ADD42F21F014A46F6
:101080000844002303A9039068460AF077FE09E0AC
:10109000A0F500504A461F38002303A90390684674
:1010A0000AF081FE8DE807000004000C03D04FF029
:1010B000FF30410800E01046B8F1000F03D00022D5
:1010C000009215461EE0751E05D4FFF723FF30324F
:1010D00062556D1EF9D5B3460122084302D00022A5
:1010E0007F1C04E02078302801D100227F1E002AD6
:1010F000099784D01DE0112D07DAFFF70BFF30327E
:1011000062556D1C50EA0102F5D1084302D00098E7
:10111000C8B10EE00021681E05E0235C625C6354E8
:101120002254401E491C8142F7DBAB46A81B401EDF
:101130000990002004F80B000B98099AC0F8088069
:10114000C0E9002B7AE711264FF0000857E72DE998
:10115000F04F88460446D21D22F0070191B0D1E934
:101160000001CDE90A010AF055FF02460B98C00FB5
:1011700001D02D2007E02068810701D52B2002E057
:10118000202101EAC000032A099001D0072A05DBCB
:1011900003464146204600F0B5FA0BE12078800670
:1011A00001D5E06900E00620B8F1650F814606D060
:1011B000B8F1660F18D0B8F1670F70D131E0002098
:1011C000B9F1110F009001DB112301E009F10103D6
:1011D0000AAA01A90CA8FFF7E2FEDDE90C700026BF
:1011E00009F10105834647E001204B4600904FF08E
:1011F00000470AAA01A90CA8FFF7D1FEDDE90DB04E
:101200000C995D46002610B909F101000D18B9EBE3
:10121000050003D4C0F1FF3609F10105A5EB090073
:101220002BE0B9F1010F01DA4FF001090020B9F10B
:10123000110F0090484601DD112300E003460AAA81
:1012400001A90CA8FFF7ABFEDDE90C704D460026A6
:101250008346207800070AD4AB4500DA5D4601A832
:10126000012D04DD411911F8011C302907D04F452B
:1012700002DA17F1040F04DA012082460FE06D1E36
:10128000EEE7002F02DCED1B3E4403E0781CA84291
:1012900000DD7D1CB81B00F1010A4FF000472078EB
:1012A000000703D4AA4501DB4FF0FF3A0021B7F154
:1012B000004F0DF143088DF8431024D002202B235A
:1012C000002F01DA7F422D230A21021EA0F1010026
:1012D00000DC5FB197FBF1FC97FBF1F201FB1C7C9A
:1012E00017460CF1300C08F801CDEEE7A8F101002B
:1012F00003702188090501D5452100E06521A0F191
:10130000010800F8011C09980FA9A1EB0807FF1DAF
:1013100000B10120411901EBEA70A1693844081AB3
:10132000401EA0612078C00602D42046FFF7A8F82E
:10133000099828B1D4E901219047206A401C206215
:101340002078C00622D52046FFF79AF81EE0002E2E
:1013500004DBB34502DD01A8805D00E03020D4E964
:1013600001219047206A401C2062761CAAF10100EE
:101370005FEA000A0AD1FFF7C9FDC0680168405C56
:10138000D4E901219047206A401C2062281EA5F163
:101390000105DCDC07E0D4E9012118F8010B9047D6
:1013A000206A401C2062381EA7F10107F3DC2046AA
:1013B000FFF77CF8032011B041E600002DE9F04F63
:1013C00004460D46D21D22F0070089B0D0E90097EF
:1013D000484639460AF01EFE0246F80F01D02D237A
:1013E00007E02068810701D52B2302E0202101EAD4
:1013F000C0038DF820300BB1012000E00020032A4B
:10140000824601D0072A04DB2946204600F07AF9FB
:101410003FE12078800601D40D2500E0E569C7F39F
:101420000A560D2D49DA00214FEA175B08464FF0A6
:101430000000002F00F4400007DA00EB80004FF4BA
:10144000400100EBD07001EA60008115012901DD47
:101450004FF0FF3100224FEA850CBCF1180F06D384
:101460001346ACF118004FF08052C24003E04FF435
:10147000801323FA0CF30CF10C0CBCF1200F04D3F5
:10148000ACF1200C09FA0CF001E007FA0CF000298D
:101490004FF0004801DD18B90FE00ED140450CD3E4
:1014A00019EB02095F4121B9404502D19F4329EA66
:1014B0000209BBEB175F00D0761C2088000502D51F
:1014C0007B48784402E07A487844193808AA3023E7
:1014D00002F80A30037C0AF10101002E0AF1020A27
:1014E00053546A4602DC4FF0300101E04FF0310105
:1014F0004FF001088DF8001002D0A6F2FF3603E08D
:1015000059EA470100D06B4E002D02DC2178090713
:1015100004D54FF002082E218DF80110C446002199
:101520000BE0C7F303433F01C35C491C6D1E02F887
:101530000830052908F1010801DA002DF1DC00214D
:101540000CE000EB1973491C1B786D1E082902F88A
:1015500008304FEA091908F1010801DA002DF0DC22
:1015600021688B0602D516E0A8F10108E04505DDEB
:1015700002EB080313F8013C302BF5D0B8F1000F53
:1015800009DD02EB080313F8013C2E2B03D10907F8
:1015900001D4A8F10108002D05DD3E2102F8081054
:1015A0006D1E08F10108407C002E02F8080008F1C9
:1015B000010804DA2D20764202F8080002E02B2010
:1015C00002F808000A214FF47A70864208F10108F7
:1015D0000BDB96FBF0F3303302F8083096FBF0F3A8
:1015E00008F1010800FB136601E0642E0CDB6420A7
:1015F00096FBF0F3303302F8083096FBF0F308F175
:10160000010800FB136601E00A2E06DB96FBF1F0F1
:10161000303002F8080008F1010896FBF1F001FBF8
:101620001060303002F80800A16908F1010808EBE9
:10163000050202EB0A00081AA0612078C00602D455
:101640002046FEF71DFF216A08AE01EB0A0020626A
:1016500004E0D4E9012116F8010B9047BAF1010A20
:10166000F7D22078C00602D52046FEF709FF6E4665
:1016700009E016F8010B3E280FD0D4E9012190476C
:10168000206A401C2062B8F10108F2D22046FEF721
:101690000DFF09B00320BDE8F08F206A28442062C6
:1016A00003E0D4E90121302090476D1EEBD3F8E729
:1016B00085BB000002FCFFFF7546FFF723FCAE462A
:1016C00005006946534620F00700854618B020B54E
:1016D000FEF70EFEBDE820404FF000064FF0000779
:1016E0004FF000084FF0000BAC46ACE8C009ACE886
:1016F000C009ACE8C009ACE8C00921F007018D467B
:10170000704700002DE9F0411F460446032601689A
:10171000072A01F4006004DB08B116A505E016A550
:1017200003E008B115A500E015A521F01000206028
:10173000A069C01EA0610FB1401EA0612046FEF747
:101740009FFE4FB1D4E9012138469047206A401CE2
:101750002062C01C206206E0206AFAE7D4E9012179
:1017600015F8010B9047761EF8D22046FEF79EFE34
:10177000BDE8F0814E414E006E616E00494E46005C
:10178000696E66002DE9F047814616468AB03548F5
:1017900078440DC88DE80D0032487844801C03ACB5
:1017A0000DC884E80D0041F69B300844372190FBBA
:1017B000F1F290FBF1F5A5F1800501FB12041B3C51
:1017C00002D56442012000E00020DFF898A08046A6
:1017D0000027FA44AAF1BE0A0EE0E0070AD032461A
:1017E000684607EB470101230AEB81010AF0DBFAA7
:1017F0008DE8070064107F1C002CEED1194F7F4448
:10180000AE3F19E0E80715D007EB04100DF1180AF8
:1018100090E80E008AE80E00C068F04201D19819E5
:1018200008903246012306A903A80AF0BCFA03ABCC
:1018300083E807006D10641C002DE3D14FF0010315
:1018400032466946B8F1000F03A802D00AF096FAB2
:1018500001E00AF0A8FAC9E90001C9F808200AB0B5
:10186000BDE8F08748B9000010B50446AFF300802A
:101870002046BDE81040FEF726BD000001491820B3
:10188000ABBEFEE726000200704700004CF2BC1021
:10189000C2F201000178002908BF704746F20C41EE
:1018A000C4F2020151F8082C120506D54FF400626B
:1018B0000A6000220270012242704FF4E860086062
:1018C00070470000FEE7000010B503F03DFA4CF24F
:1018D0001C14C2F20104E060A0780D2801D00A288F
:1018E0000AD12078E8B16078D8B920780021204466
:1018F00001740120607014E0617891B92178262983
:1019000006D821784A1C21442270087409E000BFDF
:1019100000202070A06820B105A11622642305F0E4
:10192000B7F9A068A11C0122BDE8104005F058B924
:1019300045525220636F6D6D616E6420746F6F202D
:101940006C6F6E670D0A00004CF21C11C2F20101AF
:101950008868002808BF70470231012205F040B9AD
:101960004CF2B400C2F2010000218180C1800181EB
:101970000180017480F82810704700002DE9F041C3
:1019800092B04FF0010678B14CF2B408C2F20108EF
:10199000D8F80C4044B10746FFF704F80546423832
:1019A00010F1410F04D20126304612B0BDE8F0819B
:1019B00001AE304639462A46FFF75EF8022D08D3BD
:1019C000A81910F8021C0D2903D110F8010C0A28DF
:1019D00003D040F60D207053023598F800000B2814
:1019E00004D90126304612B0BDE8F0813A7840F2C1
:1019F000407C0026002AC2F2000C61D000EB4003BC
:101A00000CF83320797800295CD00CEBC3025170BC
:101A1000B978002958D09170F978002956D0D17042
:101A20003979002954D011717979002952D0517136
:101A3000B979002950D09171F97900294ED0D1712E
:101A4000397A00294CD01172797A00294AD0517222
:101A5000B97A002948D09172F97A002946D0D1721A
:101A6000397B002944D01173797B002942D051730E
:101A7000B97B002940D09173F97B00293ED0D17306
:101A8000397C00293CD01174797C00293AD05174FA
:101A9000B97C002938D09174F97C002936D0D174F2
:101AA000397D002934D01175797D002932D05175E6
:101AB000B97D00291ABF9175172216222BE000BFAD
:101AC000002228E0012226E0022224E0032222E074
:101AD000042220E005221EE006221CE007221AE074
:101AE000082218E0092216E00A2214E00B2212E074
:101AF0000C2210E00D220EE00E220CE00F220AE074
:101B0000102208E0112206E0122204E0132202E073
:101B1000142200E0152200EB40010CEBC101013062
:101B20008E5488F80000B8F80600AAB20130A8F870
:101B3000060001A92046C82305F0AAF800283FF4B2
:101B400033AFB8F8060001260138A8F8060098F867
:101B50000000013888F80000304612B0BDE8F0817E
:101B600083B010B581B00DF10C0C40F25C048CE830
:101B70000E00C2F20004617909290DD802464CF228
:101B8000A830C2F2010003AB00EB4110202100930A
:101B9000FEF738FC1F2805D9002001B0BDE8104031
:101BA00003B07047607901306071012001B0BDE879
:101BB000104003B0704700002DE9F04385B030B10C
:101BC0000FF2545104220446FEF70BFF20B100240B
:101BD000204605B0BDE8F0830FF244512046FEF7E1
:101BE000EBFF40F25C07C2F20007797850B1A9B16F
:101BF0004DF2EC204DF2E321C0F60000C0F60001EA
:101C000082E200BF002943D04DF2EC204DF2842146
:101C1000C0F60000C0F6000176E200BF0FF20C51E2
:101C20002046FEF7C9FF002860D00FF20C51204675
:101C30000722FEF7D6FE00286ED00FF20451204690
:101C4000FEF7BAFF002800F0C5800FF200512046D1
:101C50000A22FEF7C6FE002800F018810FF2F841B4
:101C600020460922FEF7BDFE002800F069810FF230
:101C7000F44120460A22FEF7B4FE002800F0C48199
:101C80004DF2EC20C0F600000FF2E4413CE200BF50
:101C9000387800285AD0411E032900F003025FD291
:101CA00000210020002A00F0DE8029B10A2803D894
:101CB0006B462C261E5401300A2805D87B181B7D44
:101CC0006E46303333540130012A00F0CC800A28AC
:101CD00000F2AE806B462C261E5401300A2840F2DA
:101CE000AA80022A40F0B080BDE000BF0020B8808A
:101CF000F8704DF2C620C0F60000FFF731FF002853
:101D000000F0F281032001210022012400F0F0FA0A
:101D1000204605B0BDE8F083E01D6946012200F0D1
:101D200055FA002800F0A8800098002800F0A48050
:101D3000042800F2A18040F20801C2F200010870FC
:101D40000124204605B0BDE8F08300BF4DF2EC2031
:101D50004DF2DD21C0F60000C0F60001D4E100BF65
:101D600000F0FC0300216E462C25002003E000BF9C
:101D700004318B4296D019B10A289CBF35540130EA
:101D80000A2804D87C18247D3034345401300A28C1
:101D90009CBF355401300A2804D87C18647D303447
:101DA000345401300A289CBF355401300A2804D825
:101DB0007C18A47D3034345401300A289CBF35543B
:101DC00001300A28D4D87C18E47D303434540130F2
:101DD000CEE700BF40F208040020C2F20004B88041
:101DE0002178F8704DF2FC20C0F60000FFF7B8FE35
:101DF000002800F0798120783844C079012819BF83
:101E00004DF26120C0F600004DF27720C0F60000D0
:101E1000FFF7A6FE002800F067812178C819C27973
:101E2000022000F065FA0124204605B0BDE8F083E9
:101E30000A283FF656AF4B1C3B441B7D6E463033A1
:101E400033540130022A0ED00A2803D86A462C23C4
:101E5000135401300A2806D802313944097D6A46F4
:101E6000303111540130694600220A544DF2EC2001
:101E7000C0F6000048E100BF4DF2EC204DF2982181
:101E8000C0F60000C0F600013EE100BF04F10A0008
:101E90006946022200F09AF9002847D0009C43F6D8
:101EA000FF50CFF214402118013081423ED3019DF2
:101EB000B5F5806F3AD20020B880F8704DF2CF208F
:101EC000C0F60000FFF74CFE002800F00D8140F244
:101ED0000806C2F2000631784DF2FC20C0F6000080
:101EE000FFF73EFE002800F0FF804DF20A30C0F6FA
:101EF00000002946FFF734FE002800F0F5804DF27F
:101F00005820C0F60000FFF72BFE002800F0EC8000
:101F10004DF22C30C0F600002146FFF721FE0028CC
:101F200000F0E28031780120EEE600BF4DF2EC20B7
:101F30004DF2B121C0F60000C0F60001E4E000BFA0
:101F400004F109006946032200F040F9002851D04D
:101F5000009D43F6FF50CFF2144029180130814212
:101F600048D3019C002C45D04CF20020C0F6EB3049
:101F700084423FD8029EB6F5806F3BD20020B880E5
:101F8000F8704DF26A20C0F60000FFF7E9FD002866
:101F900000F0AA8040F20807C2F2000739784DF23B
:101FA000FC20C0F60000FFF7DBFD002800F09C805D
:101FB0004DF20A30C0F600003146FFF7D1FD00288F
:101FC00000F092804DF21430C0F600002946FFF771
:101FD000C7FD002800F088804DF22030C0F60000D8
:101FE0002146FFF7BDFD00287ED03978012002226E
:101FF0008BE600BF4DF2EC204DF29F21C0F60000B1
:10200000C0F6000180E000BF04F10A006946052225
:1020100000F0DCF800286FD0009C43F6FF50CFF2B0
:10202000144021180130814266D3019E002E63D0F6
:102030004CF20020C0F6EB3086425DD8DDF8089007
:10204000B9F1000F58D0814556D8039D002D53D0CB
:1020500042F20F7085424FD8DDF81080B8F5806FDE
:102060004AD20020B880F87044A0FFF779FDD8B3B9
:1020700040F20807C2F2000739784DF2FC20C0F6A2
:102080000000FFF76DFD78B340A02146FFF768FD23
:1020900050B342A03146FFF763FD28B343A0414649
:1020A000FFF75EFD00B345A04146FFF759FDD8B1EB
:1020B0004DF2F120C0F600002946FFF751FD98B11E
:1020C0004DF23730C0F600004946FFF749FD58B1E0
:1020D0004DF28C20C0F60000FFF742FD20B13978A8
:1020E0000120012211E600BF00F0EAF80124204699
:1020F00005B0BDE8F08300BF4DF2EC204DF2A72102
:10210000C0F60000C0F6000106F09CFB012420464A
:1021100005B0BDE8F08300BF4444533A000000001E
:102120004444533A53544154555300004444533AA1
:1021300052455345540000004444533A43483A0042
:102140004444533A53544F50000000004444533A1F
:10215000504F494E543A00004444533A46534B3290
:102160003A0000004444533A53574545503A000062
:102170004444535F434D445F4552520041542B4DFC
:102180004F44452B535745455000000041542B53B5
:10219000544152544652452B256C750041542B45F1
:1021A0004E444652452B256C7500000041542B537C
:1021B00054415254414D502B2575000041542B453C
:1021C0004E44414D502B25750000000070B582B380
:1021D00049F6991E4FF0000CC1F6991E0478A4F13F
:1021E0003003092B2AD8013000230025754525D856
:1021F00005EB850504EB450510F8014B303DA4F1D6
:1022000030060A2E03F10103F0D31B0616D041F865
:102210002C500CF1010C9445A0F1010306D21B785F
:102220002C2B0BD19445D9D103E000BF184694451F
:10223000D4D10078B0FA80F0400970BD002070BDA4
:10224000B0B5FFF78DFB40F25C04C2F2000400253C
:10225000E57002F079FD217962792061914208D21E
:102260004CF2A830C2F2010000EB4110FFF786FBF0
:1022700090B1FFF775FB4DF2EC204DF2BB21A5802C
:10228000E570C0F60000C0F60001A4F80150BDE8FA
:10229000B04006F0D7BA00BFA07803280FD120794C
:1022A000002818BFB0BDFFF75BFB2079013020711B
:1022B0000120E07002F048FD00F5FA70E060B0BD6A
:1022C00080B5FFF74DFB40F25C02C2F20002002332
:1022D0004DF2EC204DF2BB219380D370C0F600008C
:1022E000C0F60001A2F80130BDE8804006F0AABAAD
:1022F00010B540F25C04C2F200046379B3B1A0707F
:10230000E171A27102F020FD2061012060704DF2A8
:10231000EC204DF28421C0F60000C0F6000106F06A
:1023200091FABDE81040FFF78BBF00BFFFF718FB25
:1023300000224DF2EC204DF2BB21A280E270C0F6EB
:102340000000C0F60001A4F80120BDE8104006F02E
:1023500079BA0000B0B54CF2B405C2F20105A97813
:10236000E8780A2910D1C8B1411991F847200D2AFF
:1023700018D1013855FA80F1002210F0FF0F81F8D2
:10238000482012D1FEE100BF1E2800F2FB81421C52
:102390002844EA7080F84810F6E100BF002085F874
:1023A0004800EFE1002081F8480005F148040FF2F1
:1023B000EC3120460322FEF7A5FA002800F08480C5
:1023C0004DF25221C0F6000120460522FEF79AFA8E
:1023D000002840F0C8812889013028812978687850
:1023E000884280F0AA8040F2407300EB4001C2F2C4
:1023F000000313F831200020002A71D003EBC10143
:102400004B782A74002B6DD08A786B74002A6BD0BD
:10241000CB78AA74002B69D00A79EB74002A67D0B4
:102420004B792A75002B65D08A796B75002A63D0A9
:10243000CB79AA75002B61D00A7AEB75002A5FD0A0
:102440004B7A2A76002B5DD08A7A6B76002A5BD095
:10245000CB7AAA76002B59D00A7BEB76002A57D08C
:102460004B7B2A77002B55D08A7B6B77002A53D081
:10247000CB7BAA77002B51D00A7CEB77002A4FD078
:102480004B7C85F82020002B4CD08A7C85F82130AD
:10249000002A49D0CB7C85F82220002B46D00A7D2B
:1024A00085F82330002A43D04B7D85F82420002B6B
:1024B00040D0897D85F8253000291ABF85F826107F
:1024C0001721162137E000BFA8880130A880E888CE
:1024D000002800F05181E8880138E8804CE100BF15
:1024E000002128E0012126E0022124E0032122E04E
:1024F000042120E005211EE006211CE007211AE04E
:10250000082118E0092116E00A2114E00B2112E04D
:102510000C2110E00D210EE00E210CE00F210AE04D
:10252000102108E0112106E0122104E0132102E04D
:10253000142100E015212944087495F84810002062
:10254000002900F0CD8095F8492085F82810002A50
:1025500000F0C88095F84A1085F82920002900F07D
:10256000C38095F84B2085F82A10002A00F0BE8021
:1025700095F84C1085F82B20002900F0B98095F8CB
:102580004D2085F82C10002A00F0B48095F84E10EC
:1025900085F82D20002900F0AF8095F84F2085F8B0
:1025A0002E10002A00F0AA8095F8501085F82F20F0
:1025B000002900F0A58095F8512085F83010002AF8
:1025C00000F0A08095F8521085F83120002900F025
:1025D0009B8095F8532085F83210002A00F09680F1
:1025E00095F8541085F83320002900F0918095F873
:1025F000552085F83410002A00F08C8095F856108C
:1026000085F83520002900F0878095F8572085F857
:102610003610002A00F0828095F8581085F837208F
:10262000002900F07D8095F8592085F83810002A9F
:1026300000F0788095F85A1085F83920002900F0CC
:10264000738095F85B2085F83A10002A00F06E80C0
:1026500095F85C1085F83B20002969D095F85D203D
:1026600085F83C10002A65D095F85E1085F83D206D
:10267000002961D095F85F2085F83E10002A5DD0D2
:1026800095F8601085F83F20002959D095F8612011
:1026900085F84010002A55D095F8621085F8412041
:1026A000002951D095F8632085F84210002A4DD0BA
:1026B00095F8641085F84320002949D095F86520E5
:1026C00085F84410002A45D095F8661085F8452015
:1026D00000291ABF85F846101F211E213BE000BFCC
:1026E000002138E0012136E0022134E0032132E00C
:1026F000042130E005212EE006212CE007212AE00C
:10270000082128E0092126E00A2124E00B2122E00B
:102710000C2120E00D211EE00E211CE00F211AE00B
:10272000102118E0112116E0122114E0132112E00B
:10273000142110E015210EE016210CE017210AE00B
:10274000182108E0192106E01A2104E01B2102E00B
:102750001C2100E01D21294481F82800E88810B1DF
:10276000E8880138E8804DF25221C0F60001204689
:102770000522FEF7C7F828B92978687888423CBF57
:10278000013068700020E870E868002808BFB0BD1C
:10279000A91C0122BDE8B04004F022BA4F4B000052
:1027A00040F26850C2F2000001F0F4BF4CF2282061
:1027B000C2F2010001F0EEBF40F20850C2F2000088
:1027C00001F0E8BF80B5FFF761F8BDE8804000F098
:1027D00007B800007047000072B600BFFEE70000B7
:1027E00046F20440C4F2020002684CF2541112F4A2
:1027F000507FC2F2010103D002314FF4746205E050
:10280000120558BF704701314FF40062826000200A
:10281000C4F20100C26822F48072C260026822F031
:1028200001020260012008707047000010B528B155
:1028300001680022C4F20102914201D0012010BDC2
:102840004CF25411C2F20101002488600C704C70EB
:102850008C7044200121002202F000FB442002F091
:10286000EDFA204610BD000048F6E411C2F2010165
:10287000086070472DE9F04FA7B0002900F00E81E5
:102880000446002800F00A8148F6E41BC2F2010B5E
:10289000DBF80000002800F0018115460E46069383
:1028A00080A118224FF4FA7304F0F2F9A06844F6FC
:1028B000D357C1F26207A0FB0712D4E90031920995
:1028C0004FF47A78059502FB18050DF11C0ACDE945
:1028D00000127BA2504680210295FDF7B1FDDBF886
:1028E00000405046FEF75EF882B2204651464FF453
:1028F000FA7304F0CDF930684DF68369C4F21B39E0
:10290000A0FB0912A0FB07018809A0FB0703900C9C
:102910009A0902FB08F24DF2AE34F568C2EB911150
:102920000122C0F600048DE80700504680212246AF
:1029300001230395FDF784FDDBF800505046FEF7B8
:1029400031F882B2284651464FF4FA7304F0A0F9E8
:1029500070683569A0FB0912A0FB07018809A0FB7C
:102960000703900C9A0902FB08F2C2EB91110222B4
:102970008DE8070050468021224602230395FDF78B
:102980005FFDDBF800505046FEF70CF882B2284697
:10299000059D51464FF4FA7304F07AF9B068A0FB34
:1029A0000912A0FB07018809A0FB0703900C9A09F4
:1029B00002FB08F27769C2EB911103228DE8070050
:1029C00050468021224603230397FDF739FDDBF8AB
:1029D00000405046FDF7E6FF82B2204651464FF4D4
:1029E000FA7304F055F94DF2CD384DF2D239C0F6F4
:1029F0000008C0F600091DB3DBF800003BA105226A
:102A00004FF4FA7304F044F96E1EFF2707AC00BFC1
:102A100016F8013F4A4620468021012F08BF424652
:102A2000FDF70EFDDBF800502046FDF7BBFF82B23C
:102A3000284621464FF4FA7304F02AF9013FE7D102
:102A4000069C1CB3DBF800002AA109224FF4FA739C
:102A500004F01EF9661EFF2707AC00BF16F8013F01
:102A60004A4620468021012F08BF4246FDF7E8FC78
:102A7000DBF800502046FDF795FF82B2284621463C
:102A80004FF4FA7304F004F9013FE7D1DBF80000DA
:102A90001BA10F224FF4FA7304F0FAF827B0BDE837
:102AA000F08F00BF3D3D3D20472D5369676E616C3F
:102AB000204672616D65203D3D3D0D0A000000001D
:102AC0005570703D256C75206D56202055726D73C4
:102AD0003D256C75206D56202066313D256C752E88
:102AE0002530336C7520487A0D0A00005741564551
:102AF0003A000000535045435452554D3A000000EF
:102B00003D3D3D20456E64203D3D3D0D0A0D0A00D2
:102B10002DE9F04F81B02DED108B9AB04CF2541B83
:102B2000C2F2010B9BF8020040B100208BF80200BA
:102B30008BF800000FF6905007F01CF89BF801008E
:102B4000002801F0DF8244F6D4180020C2F2010808
:102B5000DFEDF79A9FEDF7FADFEDF78ADFEDF7BAD1
:102B6000DFEDF7CA8BF80100A8F110004FF4005117
:102B7000F1EE04DA028C92FAA2F2120D00EE102AA3
:102B8000B8EE400A3BEEC00A20EE2D0A20EE2C0AD9
:102B9000B4EE680AF1EE10FAB4EE4F0AB8BFF0EEE8
:102BA000408AF1EE10FAC8BFB0EE40FA428C20EE37
:102BB000000A92FAA2F2120D01EE102AB8EE411AA2
:102BC0003BEEC11A21EE2D1A21EE2C1AB4EE681A32
:102BD000F1EE10FAB4EE4F1AB8BFF0EE418AF1EE02
:102BE00010FAC8BFB0EE41FA828C30EE290A92FA90
:102BF000A2F221EE011A120D31EE000A01EE102AA6
:102C0000B8EE411A3BEEC11A21EE2D1A21EE2C1A14
:102C1000B4EE681AF1EE10FAB4EE4F1AB8BFF0EE47
:102C2000418AF1EE10FAC8BFB0EE41FAC28C21EE33
:102C3000011A92FAA2F2120D31EE000A01EE102AE8
:102C4000B8EE411A3BEEC11A21EE2D1A21EE2C1AD4
:102C5000B4EE681AF1EE10FAB4EE4F1AB8BFF0EE07
:102C6000418AF1EE10FAC8BFB0EE41FA028D21EEB2
:102C7000011A92FAA2F2120D31EE000A01EE102AA8
:102C8000B8EE411A3BEEC11A21EE2D1A21EE2C1A94
:102C9000B4EE681AF1EE10FAB4EE4F1AB8BFF0EEC7
:102CA000418AF1EE10FAC8BFB0EE41FA428D21EE32
:102CB000011A92FAA2F2120D31EE000A01EE102A68
:102CC000B8EE411A3BEEC11A21EE2D1A21EE2C1A54
:102CD000B4EE681AF1EE10FAB4EE4F1AB8BFF0EE87
:102CE000418AF1EE10FAC8BFB0EE41FA828D21EEB2
:102CF000011A92FAA2F2120D31EE000A01EE102A28
:102D0000B8EE411A3BEEC11A21EE2D1A21EE2C1A13
:102D1000B4EE681AF1EE10FAB4EE4F1AB8BFF0EE46
:102D2000418AF1EE10FAC8BFB0EE41FAC28D21EE31
:102D3000011A92FAA2F2120D31EE000A01EE102AE7
:102D4000B8EE411A3BEEC11A21EE2D1A21EE2C1AD3
:102D5000B4EE681AF1EE10FAB4EE4F1AB8BFF0EE06
:102D6000418AF1EE10FAC8BFB0EE41FA21EE011A25
:102D700071EE009A083900F110007FF4FBAE4FF0BD
:102D80007E5A19AA01204FF40051CDF864A008F032
:102D900003FA9DED190A40F66009C2F20009B5EE8A
:102DA000400AA9F1080700240CAD0026F1EE10FA44
:102DB000D8BFCDF864A000BF08EB4600008A3146BA
:102DC00090FAA0F0000D00EE100AB8EE400A3BEEBB
:102DD000C00A20EE2D0A01204FF400522B4620EEAF
:102DE0002C8ACDF830A008F021F99DED0C0A0136AF
:102DF00020EE080A87ED020AFC600837B6F5005F8E
:102E0000DAD148464FF400510022002607F086FC34
:102E100040F6281009F11004C2F201009FED4F8A1C
:102E20004EF6FC7900F10805C7F6FF7941F201077B
:102E300014ED030A14ED041A20EE000A21EE011A23
:102E400031EE001AB1EEC10AB4EE400AF1EE10FA0A
:102E500068D69DED191A16EA090F21EE081A80EEC0
:102E6000010A06F1010630EE001A08BFB0EE401A62
:102E7000BE4205ED021A7DD014ED010A14ED021ACE
:102E800020EE000A21EE011A31EE001AB1EEC10A5D
:102E9000B4EE400AF1EE10FA54D69DED191A21EE67
:102EA000081A80EE012A94ED010A94ED001A20EE32
:102EB000000A21EE011A31EE001AB1EEC10A32EE1B
:102EC000022A05ED012AB4EE400AF1EE10FA3FD6CF
:102ED0009DED191A21EE081A80EE012A94ED030ADD
:102EE00094ED021A20EE000A21EE011A31EE001ACA
:102EF000B1EEC10A32EE022A85ED002AB4EE400A94
:102F0000F1EE10FA30D69DED191A203421EE081A90
:102F100080EE010A033630EE000A85ED010A103515
:102F200086E700BFB0EE410A09F008FB91E700BF59
:102F300000000000CAF249F1CAF2497100000045E0
:102F40000000003AB0EE410A09F0F8FAA5E700BF28
:102F5000B0EE410A09F0F2FABAE700BF00000046FD
:102F60000024744ADB0FC940B0EE410A09F0E6FACA
:102F7000C9E700BF40F628191FED078A40F6FF7029
:102F8000C2F2010915AF0090484641F20101B0EECE
:102F9000480A4FF400520123019708F0F5FA9DED1D
:102FA000170A1FED103AB0EE082A30EE001A20EE94
:102FB000022A20EE030A80EE080A40F66005C2F2FB
:102FC000010500242846C421CBE90344CBE905448C
:102FD000CBE90744CBF824408DED0B0A21EE030A20
:102FE000C0EE08FA22EE030A80EE088AFDF7BBFD68
:102FF000F7EE00EA08EB4400008A90FAA0F0000D1A
:1030000000EE100AB8EE400A3BEEC00A60EE2DAAB0
:1030100000EE104AB8EE40EA9DED0B0A20EE0E9A43
:10302000B0EE490A09F022F8B0EE40DAB0EE490AF3
:1030300009F0BCF92FEE8E9AB0EE40CAB0EE490A04
:1030400009F014F8B0EE40BAB0EE490A09F0AEF952
:1030500028EE0EEAB0EE40AAB0EE4E0A09F006F8ED
:10306000B0EE409AB0EE4E0A09F0A0F99BED032AAB
:103070002AEEAC1A31EE022A8BED032A95ED002AD6
:1030800095ED013A32EE2E2A85ED002A3DEE032A17
:1030900095ED073A95ED024A85ED012A3DEE032AAA
:1030A00095ED0E3A95ED035A85ED072A3CEE042A7C
:1030B00085ED022A3CEE032A95ED153A85ED0E2AA0
:1030C0003BEE052A85ED032A3BEE032A95ED043AF3
:1030D00085ED152A3AEE032A95ED1C3A85ED042A72
:1030E0003AEE032A95ED053A85ED1C2A39EE032ABE
:1030F00095ED233A85ED052A39EE032A95ED063A3A
:1031000085ED232A30EE032A95ED2A3A85ED062A2D
:1031100030EE032A85ED2A2A9BED042A2DEE013A92
:1031200033EE022A8BED042A95ED082A2DEE0D3A96
:1031300033EE022A85ED082A95ED092A2DEE0C3A88
:1031400095ED0F4A33EE022A85ED092A33EE042A63
:1031500085ED0F2A95ED0A2A2DEE0B3A95ED164ACC
:1031600033EE022A85ED0A2A33EE042A85ED162A6B
:1031700095ED0B2A2DEE0A3A95ED1D4A33EE022A03
:1031800085ED0B2A33EE042A85ED1D2A95ED0C2AD8
:103190002DEE093A95ED244A33EE022A85ED0C2AEC
:1031A00033EE042A85ED242A95ED0D2A2DEE003A02
:1031B00095ED2B4A33EE022A85ED0D2A33EE042AD3
:1031C00085ED2B2A9BED052A2CEE013A33EE022ADF
:1031D0008BED052A95ED102A2CEE0C3A33EE022ADF
:1031E00085ED102A95ED112A2CEE0B3A95ED174A34
:1031F00033EE022A85ED112A33EE042A85ED172AD3
:1032000095ED122A2CEE0A3A95ED1E4A33EE022A6B
:1032100085ED122A33EE042A85ED1E2A95ED132A38
:103220002CEE093A95ED254A33EE022A85ED132A54
:1032300033EE042A85ED252A95ED142A2CEE003A6A
:1032400095ED2C4A33EE022A85ED142A33EE042A3A
:1032500085ED2C2A9BED062A2BEE013A33EE022A4D
:103260008BED062A95ED182A2BEE0B3A33EE022A47
:1032700085ED182A95ED192A2BEE0A3A95ED1F4A8D
:1032800033EE022A85ED192A33EE042A85ED1F2A32
:1032900095ED1A2A2BEE093A95ED264A33EE022ACD
:1032A00085ED1A2A33EE042A85ED262A95ED1B2A90
:1032B0002BEE003A95ED2D4A33EE022A85ED1B2ABE
:1032C00033EE042A85ED2D2A9BED072A2AEE013ADA
:1032D00033EE022A8BED072A95ED202A2AEE0A3AD0
:1032E00033EE022A85ED202A95ED212A2AEE093AAD
:1032F00095ED274A33EE022A85ED212A33EE042A82
:1033000085ED272A95ED222A2AEE003A95ED2E4AE0
:1033100033EE022A85ED222A33EE042A85ED2E2A89
:103320009BED082A29EE013A33EE022A8BED082A9A
:1033300095ED282A29EE093A33EE022A85ED282A4E
:1033400095ED292A29EE003A95ED2F4A33EE022A0F
:1033500085ED292A33EE042A85ED2F2A9BED092AD3
:1033600020EE011A31EE021A8BED091A95ED301A92
:1033700020EE000A013430EE010AB4F5005F85ED5D
:10338000300A7FF437AE0A2003909FEDED2A9FEDBF
:10339000ED9A0020A5F138030890002413E000BF47
:1033A0000398029B073003900A980A9C0728089804
:1033B00040F6281903F1040300F10700C2F20109E5
:1033C000089000F0C181C4F1020C601C052C264657
:1033D0000A9000F2AE800A981CF0030126464FD0F6
:1033E0000A9A2646C2EBC200204405EB800090ED0D
:1033F000000A05EB441090ED001AB0EEC00AB0EEE2
:10340000C11AB4EE410AF1EE10FAC8BF16460129FE
:1034100004F1020034D0C0EBC002224405EB82026A
:1034200092ED000AC6EBC602224405EB820292ED41
:10343000001AB0EEC00AB0EEC11AB4EE410AF1EEC5
:1034400010FAC8BF0646022904F1030018D0C0EBE9
:10345000C001214405EB810191ED000AC6EBC601D4
:10346000214405EB810191ED001AB0EEC00AB0EEE7
:10347000C11AB4EE410AF1EE10FAC8BF0646201D8B
:10348000E11E032955D3C0EBC00103EB810100BF4E
:10349000C6EBC602224405EB820291ED0E0A92EDC4
:1034A000005AB0EEC00AB0EEC55AB4EE450A91ED2E
:1034B000151A91ED1C3A91ED234AF1EE10FAC8BFAE
:1034C0000646C6EBC602224405EB820292ED000AD4
:1034D000B0EEC11AB0EEC00AB4EE401AF1EE10FA26
:1034E000C8BF461CC6EBC602224405EB820292ED21
:1034F000000AB0EEC31AB0EEC00AB4EE401AF1EE04
:1035000010FAC8BF861CC6EBC602224405EB820235
:1035100092ED000AB0EEC41AB0EEC00AB4EE401A42
:10352000F1EE10FAC8BFC61C0430072801F1700183
:10353000AED1C6EBC600011905EB810191ED000A81
:10354000B0EEC00AB4EE490AF1EE10FAC0F28E8174
:10355000A642C4EBC40702932DD055F8273055F886
:1035600020E005EB870245F8203005EB800145F8A7
:1035700027E050684B684860536090688B688860AB
:103580009360D068CB68C860D36010690B6908612C
:10359000136150694B694861536190698B69886117
:1035A0000BF10C00936150F8241050F8262040F8DD
:1035B000261040F82420052C3FF6F2AE05EB44100F
:1035C0000B900BEB840000F10C080A980CF003013F
:1035D000C21905EB820204F1020C09920CEB0702FE
:1035E00005EB82020692E21C07923A4405EB820246
:1035F000DDF80CE00592221DA4F1030907460492B0
:1036000016E000BF4CF2541BC2F2010B98ED001AF9
:103610000BEB870292ED033A20EE010A013730EE00
:10362000030A072F0EF1070E82ED030A3FF4B8AE2E
:10363000C7EBC702131905EB830696ED000A0B9E34
:10364000B1EE400A96ED001A002680EE010A45F818
:1036500023600346A1B3099B012993ED001A00EBF7
:10366000020305EB830393ED003A20EE011A31EEDD
:10367000031A83ED001A634622D0069B022993EDBC
:10368000001A0CEB020305EB830393ED003A20EEE6
:10369000011A31EE031A83ED001A079B10D0059B27
:1036A00093ED001A079B20EE011A1A4405EB8202E3
:1036B00092ED003A049B31EE031A82ED001A00BF2E
:1036C000B9F1030F9ED30898A3F1070B03EB0E0289
:1036D000A5F1100603440A9806EB820206EB830A62
:1036E0009AED041A92ED013A20EE011A31EE031A16
:1036F00082ED011A9AED051A92ED023A20EE011AB6
:1037000031EE031A82ED021A9AED061A92ED033A8F
:1037100020EE011A31EE031A82ED031A9AED071A10
:1037200092ED043A20EE011A31EE031A0AF1100A62
:1037300082ED041A10321BF1040BD1D162E700BFF5
:1037400000000000CCBC8C2B9BED090A95ED301AD3
:1037500095ED292A80EE010A9BED081A95ED283A8D
:1037600095ED214A95ED225A95ED1A6A95ED1B7A51
:10377000D5ED0A0AD5ED0B1A22EE002A31EE421AD7
:1037800081EE031A9BED072A95ED203A24EE014ABB
:1037900032EE442A25EE004A32EE442A82EE032A13
:1037A00095ED195A9BED063A95ED184A25EE025A09
:1037B00033EE453A26EE015A33EE453A27EE005AEB
:1037C00033EE453A83EE043A95ED114A9BED055AE6
:1037D00095ED126A95ED097A24EE034A35EE444AD6
:1037E00026EE025A95ED136A34EE454A26EE015A4A
:1037F00095ED146A34EE454A26EE005A95ED106AAE
:1038000034EE454A84EE064A9BED045A20EE833A94
:1038100021EE822A95ED086A27EE047A35EE475AA2
:1038200035EE433A95ED0C5A33EE422A95ED0D3ABA
:1038300025EE011A32EE411A23EE000A31EE400A5B
:1038400080EE060A24EE041A20EE000A30EE011A79
:10385000B1EEC10AB4EE400AF1EE10FA80F15E84D6
:103860009FED1B1A30EE000A20EE012A9FED19BAD7
:103870009FED17AA29EE8B0AB1EEC01A3FEE683A07
:10388000B5EE402A23EE0A8AF1EE10FAC8BFB0EE78
:10389000428AB4EE411AF1EE10FA80F139849BF8B5
:1038A00004009DED170A21EE0A1A58B1411E0329A2
:1038B00000F0030114D21FED5E2A0022B0EE423A5E
:1038C0003DE000BF002090E0444D415F4552520072
:1038D00000007A44000000390000C842CDCCCC3D45
:1038E0001FED692A0BF1540300F0FC070022B0EE33
:1038F000423A00BF13ED0B4A13ED0A5A33EE043A75
:1039000013ED034A53ED020A13ED096A53ED011A50
:1039100032EE042A13ED087AD3ED002A33EE053A8D
:1039200032EE202A33EE063A32EE212A043233EE0A
:10393000073A32EE222A974203F11003DAD119B383
:103940000BEB820393ED0A4A93ED125A33EE043ADD
:10395000012932EE052A17D0531C0BEB830393ED9C
:103960000A4A93ED125A33EE043A022932EE052A3E
:103970000AD0911C0BEB810191ED0A4A91ED125A8C
:1039800033EE043A32EE052A04EE100AB8EE444A49
:1039900083EE043AB4EE6E3AF1EE10FA0CDD38EE36
:1039A000435AB5EE006AB0EEC55A23EE063AB4EEBD
:1039B000435AF1EE10FA15DC82EE042A1FED3A3A72
:1039C000B4EE432AF1EE10FA0FDD1FED3C4A30EE63
:1039D000423AB0EEC33A22EE042AB4EE423AF1EE95
:1039E00010FA02DD0020ABF804009BF805104CF241
:1039F000A862C2F201020BEB810302EB81070131E5
:103A000083ED0A8A83ED120A01F007014FF0FF33BC
:103A100087ED001A07288BF805109CBF01308BF842
:103A2000040053FA80F3C1B2032B00F0030009D263
:103A30001FEDBD1A0023B0EE412AB0EE413A002836
:103A400046D17BE01FEDC21A01F0FC035B42002768
:103A50000026B0EE412AB0EE413A00BF0BEB06055E
:103A600095ED0A4A941931EE041A94ED004A95ED49
:103A70000B5A33EE043A95ED124AD4ED010AD5ED16
:103A8000133A95ED0C6AD4ED021AD5ED144A32EED4
:103A9000042A95ED0D7AD4ED032AD5ED155A31EEB1
:103AA000051A33EE203A32EE232A31EE061A33EEAF
:103AB000213A32EE242A043F31EE071A33EE223A3D
:103AC00032EE252ABB4206F11006C7D17B42A8B3CD
:103AD0000BEB830797ED0A4A02EB830696ED005A3B
:103AE00031EE041A97ED124A33EE053A012832EE10
:103AF000042A23D05F1C0BEB870696ED0A4A02EBE3
:103B0000870731EE041A97ED004A96ED125A33EE0C
:103B1000043A022832EE052A10D0981C0BEB8003E1
:103B200093ED0A4A02EB800031EE041A90ED004A50
:103B300093ED125A33EE043A32EE052A04EE101ACF
:103B4000B8EE444A81EE041A83EE043A82EE042A67
:103B5000B6EE00CA159A4CF2C860C2F2010001210B
:103B600031EE0C1ABCEEC11A8DED121A33EE0C1A9E
:103B7000BCEEC11A8DED131A22EE0A1A31EE0C1AA0
:103B8000BCEEC11A8DED141A06F0E8F99DED170A86
:103B9000159A48F6E840C2F20100032106F0DEF96A
:103BA000002000BF09EB000191ED010A91ED021A1E
:103BB00091ED032AB4EE490A91ED043A91ED054ADC
:103BC00091ED065A91ED076A91ED087AF1EE10FA3F
:103BD000C8BFB0EE409AB4EE491AF1EE10FAC8BF71
:103BE000B0EE419AB4EE492AF1EE10FAC8BFB0EE39
:103BF000429AB4EE493AF1EE10FAC8BFB0EE439AD9
:103C0000B4EE494AF1EE10FAC8BFB0EE449AB4EEF1
:103C1000495AF1EE10FAC8BFB0EE459AB4EE496ABF
:103C2000F1EE10FAC8BFB0EE469AB4EE497AF1EE62
:103C300010FAC8BFB0EE479A91ED090A91ED0A1A41
:103C400091ED0B2AB4EE490A91ED0C3A91ED0D4A33
:103C500091ED0E5A91ED0F6A91ED107AF1EE10FA96
:103C6000C8BFB0EE409AB4EE491AF1EE10FAC8BFE0
:103C7000B0EE419AB4EE492AF1EE10FAC8BFB0EEA8
:103C8000429AB4EE493AF1EE10FAC8BFB0EE439A48
:103C9000B4EE494AF1EE10FAC8BFB0EE449AB4EE61
:103CA000495AF1EE10FAC8BFB0EE459AB4EE496A2F
:103CB000F1EE10FAC8BFB0EE469AB4EE497AF1EED2
:103CC00010FA00F14000C8BFB0EE479AB0F5804F3F
:103CD0007FF468AF9FEDD90A9FEDD91A29EE008ACB
:103CE00048F2810B9FEDD7DA9FEDD7EADFEDD78A57
:103CF000DFEDD79A4CF2A85AB4EE418A0024C8F2FC
:103D0000800BB3EE04FAC2F2010A40F6FE7740F6E9
:103D1000FD7640F6FC754FF00009F1EE10FAB8BFE1
:103D2000B0EE418A31E000BFB4EE480AF1EE10FA7D
:103D3000B8BFB0EE480A80EE090A30EE0E0A08F06D
:103D400075FA20EE0F0A30EE280A20EE290A80EEDE
:103D5000280A04F58054B5EE400AF1EE10FAB8BF17
:103D6000B0EE4D0AB4EE690AF1EE10FAC8BFB0EE3B
:103D7000690A30EE0C0ABDEEC00A10EE100A0AF80D
:103D80000900B8F1FF0FC1465AD04FEA0930A0FB35
:103D90000B0109F101084FEA0830A0FB0B02C8092A
:103DA000B0EBD21FB0EE4D0ABED8A4FB0B13D9095D
:103DB00040F62813C2F2010303EB81010831D20956
:103DC000B0EE4D0A11ED011AB4EE401AF1EE10FA00
:103DD000C8BFB0EE410A9042A6D2B842A4D891ED35
:103DE000001A431CB4EE401AF1EE10FAC8BFB0EE50
:103DF000410A934298D2B04296D891ED011A831CA1
:103E0000B4EE401AF1EE10FAC8BFB0EE410A934288
:103E10008AD2A8423FF688AF91ED021AC31CB4EED5
:103E2000401AF1EE10FAC8BFB0EE410A9342BFF457
:103E30007BAF1031A84200F10400C3D374E700BF88
:103E400040F62812C2F20102111D0120002340F6A3
:103E5000FE7500BF02EB800696ED000A91ED011A97
:103E60009F1CB4EE401A91ED022AF1EE10FAC8BF81
:103E7000384602EB800696ED000A0831B4EE402A7F
:103E8000F1EE10FAC8BFD81CAF423B46E2D100EEBB
:103E9000100A9FEDA52AB8EE400A20EE020A20EE95
:103EA0000A0A20EE0B0A02EB800130EE0C0A91EDBB
:103EB000001ABCEEC00A8DED0C0A21EE0A0A30EEA3
:103EC0000C0A02F108054CF2541BBCEEC00A00F1CA
:103ED000020A4FF00108002340F6FE772946C2F29D
:103EE000010B8DED0F0A0FE002EB880391ED010A43
:103EF00093ED001AB4EE410AF1EE10FAC8BFB046D5
:103F00000831BC42234619D09C1C544502D81E1DC2
:103F100086420BD202EB880691ED000A96ED001A5C
:103F2000B4EE410AF1EE10FAC8BFA046DE1C5645B9
:103F3000DAD805338342E3D2D6E700BF00EE108A19
:103F4000B8EE400A20EE020A20EE0A0A20EE0B0A22
:103F500002EB880130EE0C0A91ED001ABCEEC00AAB
:103F60008DED0D0A21EE0A0A30EE0C0ABCEEC00AF5
:103F700008F102094FF0010E002740F6FE7C8DED9E
:103F8000100A03E0083563451F4663D03C1DBB1C87
:103F900084424FF0000128BF012153454FF0000635
:103FA00098BF012644454FF0000428BF01244B452B
:103FB0004FF0000298BF0122224208BF11EA060119
:103FC0000FD140F62811C2F2010101EB8E0195EDEF
:103FD000000A91ED001AB4EE410AF1EE10FAC8BFE2
:103FE0009E467A1DF91C82424FF0000628BF01262A
:103FF00051454FF0000798BF012742454FF000029E
:1040000028BF012249454FF0000498BF0124144203
:1040100008BF17EA0602B5D140F62812C2F2010223
:1040200002EB8E0295ED010A92ED001AB4EE410A00
:10403000F1EE10FAC8BF8E46A4E700BF0AD7233CB2
:104040000AD7A33B00000000FFE6DB2E0000204261
:1040500000007F4300EE10EAB8EE400A20EE020AAC
:1040600040F6281020EE0A0AC2F2010020EE0B0AE8
:1040700000EB8E0030EE0C0A90ED001ABCEEC00A88
:104080008DED0E0A21EE0A0A30EE0C0A0DF14808F9
:10409000BCEEC00A40468DED110A05F057FA4CF20D
:1040A000C865C2F2010501202946FF2205F05EFA2B
:1040B00048F6E841C2F201010220FF2205F056FA5B
:1040C0000CAE304605F022FA4CF2A854C2F20104BC
:1040D0002046FF2105F032FA404631462A46234663
:1040E000FEF7C8FB9BF80300032803D105F0AAF9EB
:1040F00002E000BF05F0CAF90CA005F03BFD00206E
:104100008BF800001AB0BDEC108B01B0BDE8F08F49
:1041100008F014FAB0EE401AFFF7C1BBB0EE410A46
:1041200008F00CFAFFF79CBB0024744A5245414446
:104130005900000070B590B04CF25415C2F2010560
:10414000A86808B1287808B110B070BD0020E970E7
:104150006870A8700122481EC0B22A7002289ABF57
:1041600031A151F820302FA36C4646F2884631A287
:1041700020464021C4F20206FCF762F92046FCF713
:1041800011FC82B24CF26030C2F20100214664237D
:1041900002F07EFD2AA005F0EDFC306820F0010061
:1041A00030603068C00709D03068C0071CBF306875
:1041B0005FEAC07002D03068C007F2D14FF474607B
:1041C00046F87C0C41F21000C4F20200B06044F6E4
:1041D000D410C2F20100F06042F20800706042F6B2
:1041E0001440C0F6024030603068002240F0010008
:1041F0003060A86801684A62002101F0ADFF0C2020
:10420000C4F20100816B41F400418163A96809682F
:104210000A6842F001020A60016841F4807101609D
:1042200010B070BD3F00000099D300089FD3000874
:10423000A5D300085245513A2025730D0A0000000D
:10424000434150545552450070B581B00022009250
:1042500090F83C20012A03D10221084601B070BD2C
:10426000D1F800E00122BEF10A0F80F83C200BD308
:104270001FFA8EF25200066812FA8EF2A2F11E03A5
:1042800006F10C0205E000BF06680EEB4E0306F1D6
:1042900010024FF0070C15680CFA03F4A5431560E3
:1042A0008D68146805FA03F32343136049680629EF
:1042B00006D801EB8101053906F134020AE000BF9E
:1042C0000C2901EB810187BF413906F12C0223390A
:1042D00006F130021F2314688B4024EA030342F2E4
:1042E000043C1360C4F2010C1FFA8EF3146803FA45
:1042F00001F1ACF5417321439E4211603ED1BEF104
:10430000120F07D1DCF8001041F48001CCF8001046
:1043100034E000BF2EF0010110292FD1DCF800108D
:10432000BEF1100F41F40001CCF8001026D14CF280
:104330000001C2F2010109684DF68362C4F21B322A
:10434000A1FB0212910C01EB81014900009100993F
:10435000A1B1009901390091009979B10099013911
:104360000091009951B1009901390091009929B14A
:1043700000990139009100990029EAD1002180F8C3
:104380003C10084601B070BD002804BF01207047F2
:1043900010B50446006C00283ED0206CC00645D401
:1043A000206C41F202118843023042F20431206451
:1043B000C4F20101086820F4403008600A6894E8FB
:1043C00009101A43D4F810E00A604168012321F46F
:1043D000807141604168C0F6007341EA0E2141607E
:1043E000416821F040714160416841EA0C0141603F
:1043F000816821F400618160E16882681143816015
:10440000A16A8268994222F070628260826813D148
:1044100022F0405119E000BF204600F065F800206E
:10442000606484F83C00206CC006B9D501200021EE
:1044300084F83C1010BD00BF11438160816821F0F9
:1044400040518160E16A826811438160816821F096
:10445000020181608168227E94F8203041EA4201A5
:104460008160416883B141F40061416041684EF26E
:10447000000221F460414160616ACFF6FF72436837
:1044800002EB4131194301E021F400614160C16A4E
:1044900040F2000C21F47001C162E2696169CFF65B
:1044A000F07CC36A0CEB02521A43C262826822F4A7
:1044B0000072826094F83020836843EA422282606E
:1044C000826822F480628260826842EA812181608F
:1044D00000206064216C012262F30101216400214B
:1044E00084F83C1010BD000070B586B0044642F25E
:1044F00000002168C4F2010000268142059604965E
:1045000002D006B070BD00BF43F630010096C4F281
:1045100002014A6900F5604042F480724A614A69CA
:1045200002F480720092009A00960A6842F001023A
:104530000A60096801F001010091009901210191CF
:104540000321CDE9021601A900F01AFB40F208553B
:1045500046F21040C2F20005C4F202004FF480613E
:10456000C5E9000605F110004FF400624FF4005356
:104570004FF4807C80E80E104FF44030C5E9080607
:104580002846C5E9026600F0E5F9002818BFFEF7E5
:1045900023F9A563AC6306B070BD000010B5002818
:1045A0004FF0010318BF002902D1184610BD00BF0B
:1045B0004379012B4FF00203F7D00371036802F037
:1045C000100ED3F800C0D1E9004140F6FE7202FAA5
:1045D0000EF221432CEA020201FA0EF11143196096
:1045E000C0211A6801FA0EF122EA010119600121C5
:1045F000002301714371184610BD0000002804BF5C
:104600000120704710B50446007920B90020607180
:10461000204600F007F802202071002001212061CF
:10462000217110BDF0B587B0044647F20040216803
:10463000C4F20000002681420696059602D007B01B
:10464000F0BD00BF43F630010196C4F202010A69D1
:1046500000F5C63042F000520A610A6902F00052C9
:104660000192019A01960A6842F001020A60096803
:1046700001F0010101910199302102910321CDE95D
:10468000031602A900F07CFA4CF2282546F28800B5
:10469000C2F20105C4F202004FF0606140224FF403
:1046A000806385E8470005F110004FF4006C4FF47B
:1046B000005E80E808504FF400304FF48077C5E981
:1046C00008062846EF6100F045F9002818BFFEF7FC
:1046D00083F8A560AC6307B0F0BD000070B5866DCF
:1046E000044600F031FB94F8351002292ED105461E
:1046F0002068216C026822F016020260426922F0F2
:104700008002426109B9A16C19B1016821F0080168
:104710000160016821F0010101600068C00708D054
:1047200000F012FB401B052818D820680068C0075D
:10473000F6D1E06D3F2101FA00F0B060012084F86D
:1047400035000020002184F8341070BD80206065A1
:104750000120002184F8341070BD00BF2020606566
:10476000032084F83500002184F8341070BD000067
:1047700090F83510022909D1052180F8351000681C
:10478000016821F00101016000207047802141652E
:1047900001207047F0B581B00446002000904CF233
:1047A0000000C2F201000268D4E9166048F2B513B5
:1047B00037680821C1F64E3381403942A2FB0325F8
:1047C0000CD0226813685B0708D5136823F0040334
:1047D0001360B160616D41F00101616501218140AB
:1047E000394208D022685269120604D5B160616D61
:1047F00041F00201616504218140394208D02268FC
:104800001268920704D5B160616D41F004016165E1
:1048100010218140394217D020680268120713D551
:10482000B16002680168520308D4C90508D4016860
:1048300021F008010160216C21B905E008033FD493
:10484000216C09B120468847E16D202000FA01F271
:104850003A4241D020680368DB063DD5B26094F847
:1048600035300268052B1BD122F016020260426926
:1048700022F080024261226C0AB9A26C1AB102686D
:1048800022F0080202603F208840B060012084F8D6
:104890003500216D0020002984F8340052D157E002
:1048A0000168520310D4C90512D4016821F0100127
:1048B0000160012084F83500002084F8340007E00E
:1048C000A16C0029BED1BFE7080301D4616C00E0F0
:1048D000E16B09B120468847606DC8B3606DC007C1
:1048E0002ED0052084F835002068A90A026822F03D
:1048F00001020260009A01328A4200921AD80268CC
:10490000D20717D0009A01328A42009212D8026868
:10491000D2070FD0009A01328A4200920AD8026868
:10492000D20707D0009A01328A42009202D8026868
:10493000D207DFD1012084F83500002084F834004C
:10494000E16C29B1204601B0BDE8F040084700BF46
:1049500001B0F0BD2DE9F041044600F0F5F9002C5E
:104960004ED00546022084F835000020216884F8E6
:104970003400086820F0010008600868C00708D00B
:1049800000F0E2F9401B05286CD821680868C007D0
:10499000F6D1086848F23F02CFF21002D4E901359F
:1049A000024004F10C0E9EE8C1511A432A43104301
:1049B0003043384340EA0800626A40EA0C00042AA7
:1049C00040EA0E0320D1D4E90A5E206B4EEA0302CE
:1049D000104308604869BEF1000F20F0030040EA70
:1049E000050040F0040C15D0B8F5005F42D0B8F1D6
:1049F000000F51D1022D52D0012D47D055B94EE0B4
:104A00000120BDE8F08100BF0B60486920F007007D
:104A100040EA020C6FF00F004AF6AB2250FA81F028
:104A2000CAF6AA22A0FB02231A094DF24013C0F6CF
:104A300000039A5C40F2FF335F284FF03F00C1F85B
:104A400014C021EA030100FA02F088BF0431C4E96E
:104A500016128860002301220020636584F8352047
:104A6000BDE8F081032220230320636584F835200C
:104A7000BDE8F081032DCDD8012240230120DFE8DD
:104A800005F0030E030500BFE7E700BFAEF1C070FD
:104A9000B0FA80F0400904E0032D04D3BAD1CEF37C
:104AA00000600028B6D0012240230120636584F80D
:104AB0003520BDE8F081000070B590F834C0BCF13D
:104AC000010F46D04FF0010C80F834C0D0F858E008
:104AD00090F835C0BCF1010F38D14FF0020C80F8CE
:104AE00035C04FF0000CC0F854C0D0F800C0846846
:104AF000056CC06DDCF80060402C26F48026CCF8F4
:104B00000060CCF804300B4604BF13460A463F2130
:104B100001FA00F0CCF80830CCF80C20CEF80800F0
:104B2000DCF8000040F01600CCF800002DB1DCF8F5
:104B3000000040F00800CCF80000DCF8000040F075
:104B40000100CCF80000002070BD00BF002180F8FB
:104B50003410022070BD0000B0B5044600F0F4F837
:104B6000054640F20000C2F200000078611C18BF48
:104B7000044400BF00F0E8F8401BA042FAD3B0BDE7
:104B80002DE9F04F82B000F13E4241F6004502F1BE
:104B9000FF77C4F2020508224FEAB726A84208BFF1
:104BA0000722072E38BF4FEAB7224FF0010A002430
:104BB00000274FF00008009208E000BF023708F11C
:104BC0000108202F04F1040400F0B4800E680AFAF2
:104BD00008F916EA090FF1D0D1F804A00AF0030B86
:104BE000ABF10106012E17D80322866802FA07FEF0
:104BF000CA6826EA0E06BA40324382604268CAF3A7
:104C0000001522EA090205FA08F54FEA480C6FEA96
:104C10000E062A4342600BE00322BA40D643BBF1A2
:104C2000030FBC4604D1BC464FF0030B22E000BF8B
:104C3000C2688D68324005FA0CF52A43BBF1020FB9
:104C4000C26017D16FF0030202EA5802024404F076
:104C50001C030F25D2F820E005FA03FA0D692EEAAD
:104C60000A0E05FA03F343EA0E031362D1F804A017
:104C70000AF0030B02680BFA0CF332401A431AF4E1
:104C8000403F4FF0010A026098D0002243F64403EF
:104C90000192C4F202031A6843F6004E42F48042C5
:104CA0001A601A68C4F2010E02F480420192019A5D
:104CB00028F003024FF6084C7244CFF6FF7C52F8FE
:104CC0000C3004F00C060F25B540AB43009D05FAEF
:104CD00006F6334342F80C30DEF808204B6842EA0F
:104CE000090643F60C4CDD0258BF22EA0906CEF84D
:104CF0000860C4F2010CDCF800209D0242EA0906BB
:104D000058BF22EA0906CCF80060DEF804209D03B3
:104D100042EA090658BF22EA0906CEF80460DEF826
:104D20000020DB0342EA090658BF22EA0906CEF852
:104D3000006043E702B0BDE8F08F0000002A08BF22
:104D4000090481617047000048F6E850C2F2010092
:104D50000068704740F2000048F6E851C2F20000D7
:104D6000C2F2010100780A68104408607047000030
:104D700080B543F60040C4F20200016841F40071BE
:104D80000160016841F480610160016841F4807153
:104D90000160032000F08EF80F2000F005F800F00D
:104DA00027F8002080BD000070B540F20006C2F276
:104DB00000064CF200013278C2F201014FF47A731E
:104DC0000968B3FBF2F20446B1FBF2F1084600F0C9
:104DD000F7FB0F2C4FF0010508D838B94FF0FF3022
:104DE00021460022002500F039F87460284670BD85
:104DF00080B582B0002043F640010190C4F2020168
:104E00004A6842F480424A604A6802F48042019251
:104E1000019A00900868002240F0805008600868FD
:104E2000002100F0805000900098052000F016F856
:104E3000052002B0BDE88040AFF30080002848BFE5
:104E4000704700F01F01012202FA01F14EF2001238
:104E50004009CEF2000242F82010704710B54EF61D
:104E60000C5CCEF2000CDCF80030C3F3022E8EF0A6
:104E70000704042C28BF0424BEF103034FF0FF3EB7
:104E80000EFA04F438BF0023A14399400EFA03F34D
:104E90009A43114300F00F02043A624409010C32B4
:104EA00000F16043B0F1FF3FC8BF03F564421170E9
:104EB00010BD00004EF60C51CEF200010A684FF60C
:104EC000FF031A4060F30A2242F0806040F0FD7058
:104ED000086070472DE9F041002800F08B8043F610
:104EE0000808C4F202080446D8F8F8030D4600F09A
:104EF0000700884207D288F8F853D8F8F80300F082
:104F00000700A84276D12068810717D5410705D54B
:104F1000D8F8001041F4E051C8F80010010705D599
:104F2000D8F8001041F46041C8F80010D8F800101B
:104F3000A26821F0F0011143C8F80010C0073FD16A
:104F4000D8F8F80300F00700A84207D988F8F8530A
:104F5000D8F8F80300F00700A8424BD120684107B9
:104F600007D5D8F80010E26821F4E0511143C8F8E1
:104F70000010000708D5D8F80000216920F460402F
:104F800040EAC100C8F8000000F07CF8D8F8001032
:104F90004DF22812C1F30311C0F60002515C4CF22D
:104FA000000220FA01F140F20400C2F200000068A1
:104FB000C2F201021160FFF7F7FE0020BDE8F081A8
:104FC0006068811E022907D258F8081C89015CBF5D
:104FD0000120BDE8F08111E0012807D158F8081C34
:104FE00089035CBF0120BDE8F08107E058F8081C88
:104FF000890703D40120BDE8F08100BFD8F8001074
:1050000021F003010843C8F80000FFF79DFE0646A3
:1050100041F28837D8F80000616800F00C00B0EB6E
:10502000810F8DD0FFF790FE801BB842F2D903208C
:10503000BDE8F0814CF2000043F60801C2F2010025
:10504000C4F20201006809684DF23812C1F38221EE
:10505000C0F60002515CC840704700004CF20000EE
:1050600043F60801C2F20100C4F2020100680968B7
:105070004DF23812C1F34231C0F60002515CC84013
:105080007047000010B543F60404C4F202046068DF
:1050900000F00C0008280BD0042819BF42F2004091
:1050A000C0F2F40047F64000C0F27D1010BD00BF12
:1050B000206821682368490247F64001C0F27D114B
:1050C00000F03F02C3F388105CBF42F20041C0F21F
:1050D000F401A1FB00010023FBF71CF92168022267
:1050E000C1F3014102EB4101B0FBF1F010BD000042
:1050F0002DE9F04182B000286AD00446007843F6DA
:105100000006C007C4F202060BD0B06800F00C0025
:10511000042840F0A1803068800302D56068002830
:1051200056D0207880071AD5B06810F00C0F09D03F
:10513000B06800F00C00082840F0A88070684002B9
:1051400000F1A4803068800702D5E06801283FD1D3
:105150003068216920F0F80040EAC1003060207812
:10516000000739D4207840074ED4A5695DB3B068F4
:1051700000F00C00082840F0BD80012D28D0706898
:10518000E16900F480028A4222D1216A00F03F02E4
:105190008A421DD147F6C071626A0140B1EB821F9D
:1051A00016D1A26A0023CFF6FF7303EBC23200F4DC
:1051B00040316FF30F0291420AD1E16A00F0706052
:1051C000B0EB016F04D1002002B0BDE8F08100BF58
:1051D000012002B0BDE8F0816069002840F20000C3
:1051E000C4F2472076D00121C0F8801EFFF7ACFD45
:1051F000054600BF706F8007B4D4FFF7A5FD401BC4
:105200000228F7D9DDE000BF306C10F080580AD1D9
:1052100000200190306C40F080503064306C00F021
:1052200080500190019847F20007C4F200073868E7
:10523000C00541D4386840F480703860FFF784FDC1
:10524000054600BF3868C00536D4FFF77DFD401B1A
:105250000228F7D9B5E000BFB06800F00C000828BC
:1052600003D1706840023FF556AF6068B0F5803FEB
:1052700007D0B0F5A02F40F08D80306840F480203A
:105280003060306840F4803030608DE0E0680028A5
:1052900052D00020C4F2472001210160FFF754FDE5
:1052A000054600BF306880073FF552AFFFF74CFD61
:1052B000401B0228F6D984E0A068012805D0052803
:1052C0004ED1306F40F004003067306F40F0010085
:1052D00030674FE00021C0F8801EFFF735FD05461E
:1052E000706F80077FF53EAFFFF72EFD401B022851
:1052F000F6D966E00027C4F2472700203866FFF79A
:1053000023FD022D05460BD1306880015ED5FFF7E5
:105310001BFD401B02284FF00300F5D954E700BFE6
:10532000306880017FF54FAFFFF70EFD401B02286C
:105330004FF00300F4D947E70020C4F247200021D2
:105340000160FFF701FD0546306880077FF507AF74
:10535000FFF7FAFC401B02284FF00300F4D933E7B3
:10536000316F002821F001013167316F21F0040114
:1053700031674DD0FFF7E8FC054641F2883700BFA2
:10538000306F800756D4FFF7DFFC401BB842F7D9D7
:1053900017E000BF3168002821F4803131603168A6
:1053A00021F4802131604FD0FFF7CEFC054600BFCD
:1053B000306880033FF5B5AEFFF7C6FC401B64289C
:1053C000F6D9032002B0BDE8F08100BF04F11C054E
:1053D0002FCD08430021CFF6FF7140EA821001EB88
:1053E000C3316FF30F0140EA05600843706001208C
:1053F0003866FFF7A9FC0446306880013FF5E3AE4C
:10540000FFF7A2FC001B02284FF00300F4D9DBE6F3
:10541000FFF79AFC054641F2883700BF306F8007DE
:1054200008D5FFF791FC401BB8424FF00300F5D9B7
:10543000CAE600BFB8F1000F7FF497AE306C20F0E1
:105440008050306491E600BFFFF77EFC054600BF48
:10545000306880037FF565AEFFF776FC401B64285B
:105460004FF00300F4D9AFE670B538B10446406A96
:1054700030B10020206104F1140007E0012070BD6C
:105480006068B0F5827F03D004F11C000021016048
:105490000026A66294F8510020B9204684F8506096
:1054A00000F03CF8022084F8510094E80F0001F469
:1054B0008271056802F4044225F04005056011443C
:1054C00003F400622369114403F00202636911448A
:1054D00003F00102A369E569114403F40072114469
:1054E00005F03802256A114405F08002A56A1143CF
:1054F00005F4005211430160626A042101EA13417C
:1055000002F0100211444160C16921F40061C161DF
:105510000120666584F85100304670BD2DE9F043E6
:1055200085B0006843F20005C4F20105A84203D02B
:1055300005B0BDE8F08300BF002643F630000096BA
:10554000C4F2020041696C4641F4805141614169F5
:105550004FF0020801F48051009100990096016813
:105560004FF0030941F0010101600168052701F0D6
:105570000101009100990096016841F0020101606B
:105580000068214600F00200009000988020009002
:1055900005F55040CDE90186CDF80C900497FFF752
:1055A000EFFA1820CDE9000805F554402146CDE971
:1055B00002690497FFF7E4FA05B0BDE8F083000044
:1055C000411E0020B0EB116F1CBF012070474EF24E
:1055D0001002CEF2000251604EF62351CEF20001CD
:1055E000F0230B7007219060116070477047000036
:1055F00070470000B0B590F83C20012A04BF02209B
:10560000B0BD01F108053CCDD1E900CE23F47C53B7
:1056100022F470521A432EF4F0431A432CF4E04360
:105620001A4324F4C0431A432A43C96922F480422E
:10563000036811435964002180F83C100846B0BD4E
:1056400010B590F83C20012A4FF0020251D080F8AA
:105650003D200268D2F804E0D2F808C00C682EF0B1
:105660007003234341F2FF74C4F20004A24253606A
:105670000EDC40F2FF73C4F200039A4216DCB2F172
:10568000804F2BD040F20043C4F2000324E000BF5F
:1056900040F2FF33C4F201039A4213DC41F60003E7
:1056A000C4F200039A4219D0002313E040F600032D
:1056B000C4F200039A4211D040F60043C4F2000342
:1056C0000AE000BF44F20003C4F201039A4205D08D
:1056D00040F20043C4F201039A4204D149682CF01D
:1056E0008003194391600121002280F83D1080F869
:1056F0003C20104610BD0000002804BF0120704768
:1057000010B5044690F83D0028B9002084F83C000C
:10571000204600F01FF8022084F83D002068211D7B
:1057200003F0CEFA012084F8460084F83E0084F8A5
:105730003F0084F8400084F8410084F8420084F877
:10574000430084F8440084F8450084F83D000020BC
:1057500010BD000080B586B0006840F6FF31C4F28D
:10576000000188422ADD40F60041C4F2000188426F
:105770003ED041F20001C4F2000188426AD000210B
:10578000C4F20101884274D10020019043F6400028
:10579000C4F202004168002241F00101416040680A
:1057A000002100F00100019001981920FFF756FB3D
:1057B000192006B0BDE88040FFF740BBB0F1804F34
:1057C0005AD040F20041C4F20001884251D1002079
:1057D000019043F64000C4F20200016841F002016A
:1057E0000160006800F002000190019806B080BDE1
:1057F000002043F640010190C4F202010A6842F021
:1058000008020A600A6802F008020192019A0190F7
:1058100051F8102C42F0010241F8102C51F8101CE4
:1058200001F00101019101990221CDE9030000205D
:10583000CDE901110591C4F2020001A9FFF7A0F919
:10584000322000210022FFF709FB3220FFF7F6FA91
:1058500006B080BD0020019043F64000C4F2020073
:10586000016841F010010160006800F01000019033
:10587000019806B080BD00BF0020019043F64000B3
:10588000C4F20200016841F001010160006800F00B
:1058900001000190019806B080BD000080B590F82D
:1058A0003C20012A4FF0020200F0C28080F83D2027
:1058B000D0F800C04FF67772DCF8083023EA020215
:1058C000CCF808200B684F2B28DC1F2B44DD202B45
:1058D00045D0302B43D0402B40F0AC80D1F804E0D1
:1058E000C968DCF82030DCF8202022F00102CCF876
:1058F0002020DCF8182022F0F00242EA011123F007
:105900000A0242EA0E02CCF81810CCF82020DCF88B
:10591000081041F0470121F0300180E06F2B27DDB6
:10592000B3F5005F48D0B3F5805F7AD0702B40F0BC
:105930008180D1E901E3C968DCF8082043EA0E035D
:1059400022F47F4243EA01211143CCF80810DCF82D
:10595000081041F0770162E00BB1102B6AD1DCF83E
:10596000081021F07001194341F0070157E000BF12
:10597000502B35D0602B5DD1D1F804E0C968DCF83C
:105980002030DCF8202022F01002CCF82020DCF8B7
:10599000182022F4704242EA013123F0A00242EAC8
:1059A0000E12CCF81810CCF82020DCF8081041F0CA
:1059B000670121F0100132E0D1E901E3C968DCF8A8
:1059C000082043EA0E0322F47F4243EA01211143F7
:1059D000CCF80810DCF8081041F480411FE000BF4B
:1059E000D1F804E0C968DCF82030DCF8202022F08F
:1059F0000102CCF82020DCF8182022F0F00242EA64
:105A0000011123F00A0242EA0E02CCF81810CCF879
:105A10002020DCF8081041F0570121F02001CCF8DB
:105A200008100022012180F83D10002180F83C1070
:105A3000104680BD0122F5E7002804BF0120704711
:105A40002DE9F047044690F83D000D4628B90020A6
:105A500084F83C00204600F049F8022084F83D001C
:105A6000206844F20702816891438160211D03F0A0
:105A700027F920684FF6FF7881688269D0F820C046
:105A8000D5E9003ED5E9026A43EA0109AB6922EA99
:105A9000080246EA03234FF6FC46B343D5E90767FD
:105AA00042EA0A0229691A4342EA062242EA01113D
:105AB0002CF0AA026B6942EA0E0241EA073142EA7F
:105AC0000312C0F8089081610262012084F8460048
:105AD00084F83E0084F83F0084F8420084F84300D4
